:100000000C94D5170C94FF170C94FF170C94FF1742
:100010000C94FF170C94FF170C94FF170C94FF1708
:100020000C94FF170C946F530C94FF170C94FF174C
:100030000C94FF170C9495CB0C94FF170C94FF179E
:100040000C94FF170C947BAB0C945D400C94FF1741
:100050000C945B3E0C94FF170C94FF170C94FF1745
:100060000C94FF170C94FF170C94FF170C94FF17B8
:100070000C94FF170C94FF170C94FF170C94FF17A8
:100080000C94FF170C94FF170C94FF174E3F513F31
:10009000443F483F683F683F553F593F5F3F633F9C
:1000A000CC3FD13FD63FE03F0E400E40EA3FF23F0B
:1000B000FA3F0440084AD73B3BCE016E84BCBFFDEB
:1000C000C12F3D6C74319ABD56833DDA3D00C77F28
:1000D00011BED9E4BB4C3E916BAAAABE00000080C1
:1000E0003F05A84CCDB2D44EB93836A9020C50B950
:1000F000918688083CA6AAAA2ABE000000803F007C
:100100004E414E494E495459494E46CDCCCC3D0AFC
:10011000D7233C17B7D13877CC2B329595E6241FDF
:10012000B14F0A000020410000C84200401C462098
:10013000BCBE4CCA1B0E5AAEC59D74434F4D4D55A7
:100140004E49434154494F4E0044525952554E0076
:100150004552524F525300494E464F004543484F77
:100160000020746F6F206C6F6E67206578747275F5
:1001700073696F6E2070726576656E7465640A00CF
:1001800020636F6C6420657874727573696F6E207C
:1001900070726576656E7465640A0047322F473366
:1001A0002062616420706172616D65746572730AAA
:1001B00000536C6565702E2E2E005A2070726F628F
:1001C00065206F75742E206265640A005A20707273
:1001D0006F6265206F75742E206265640047323847
:1001E000205A20466F7262696464656E0A00473265
:1001F00038205A20466F7262696464656E00205A26
:100200003A200020593A200042656420583A2000E4
:100210003344205072696E7465722072656164792E
:100220002E00526573756D696E67207072696E7409
:1002300000436C69636B20746F20726573756D6524
:100240002E2E2E004E6F206D6F76652E00456E644B
:100250002066696C65206C6973740A004265676981
:100260006E2066696C65206C6973740A00534420C3
:100270007072696E74696E67206279746520004ED1
:100280006F74205344207072696E74696E670A003F
:1002900046696C652064656C657465643A00446504
:1002A0006C6574696F6E206661696C65642C2046AC
:1002B000696C653A20006F70656E206661696C65D7
:1002C000642C2046696C653A200025697300256915
:1002D0006D20256973002569682025696D202569D1
:1002E0007300256964202569682025696D202569CA
:1002F00073002569792025696420256968202569AE
:100300006D20256973005072696E742074696D6583
:100310003A200050726F7465637465642050696E92
:100320000A00452569202573003344205072696E08
:100330007465722072656164792E005C015701500A
:100340000149013B016F66660044454255473A004A
:100350004B494C4C45442E20004D31313320530045
:100360006F6B0048656174696E6720646F6E652EFF
:10037000003F0A0020573A004525692025730033C5
:1003800044205072696E7465722072656164792EC2
:100390000042656420646F6E652E003F0A0020579E
:1003A0003A004265642048656174696E672E0033C7
:1003B00044205072696E746572204F66662E004646
:1003C00049524D574152455F4E414D453A4D61723C
:1003D0006C696E20312E312E302028476974687583
:1003E000622920534F555243455F434F44455F5563
:1003F000524C3A68747470733A2F2F676974687539
:10040000622E636F6D2F4D61726C696E4669726DFD
:10041000776172652F4D61726C696E2050524F5436
:100420004F434F4C5F56455253494F4E3A312E3051
:10043000204D414348494E455F545950453A334455
:10044000205072696E746572204558545255444567
:10045000525F434F554E543A3120555549443A6303
:10046000656465326132662D343161322D34373442
:10047000382D396231322D63353563363266333685
:100480003766660A007A5F6D696E3A2000795F6DA3
:10049000696E3A2000785F6D696E3A20005265708F
:1004A0006F7274696E6720656E6473746F70207309
:1004B00074617475730A004D31343520533C696E94
:1004C0006465783E206F7574206F662072616E6778
:1004D000652028302D31290A0020643A0020693A2D
:1004E0000020703A00426564204C6576656C696E48
:1004F0006720004661696C656420746F20656E61D9
:10050000626C6520426564204C6576656C696E6737
:100510000A004D343231207265717569726564204C
:10052000706172616D6574657273206D6973736952
:100530006E670A004D65736820706F696E74206382
:10054000616E6E6F74206265207265736F6C766584
:10055000640A004F666673657473206170706C691D
:100560006564004572723A20546F6F206661722193
:1005700000546F6F206661722066726F6D20726525
:10058000666572656E636520706F696E740A003A05
:1005900020007A5F6D696E3A20202D3230207A5F1C
:1005A0006D61783A20203230005A204F66667365BC
:1005B0007420004E6F2063617365206C69676874F6
:1005C0000A004163746976652045787472756465C4
:1005D000723A2000556E6B6E6F776E20636F6D6D93
:1005E000616E643A2022004E6F204C696E65204E89
:1005F000756D626572207769746820636865636BE6
:1006000073756D2C204C617374204C696E653A20B3
:10061000004B494C4C45442E200053544F505045FC
:10062000442E20005072696E7465722073746F706E
:100630007065642064756520746F206572726F72D6
:10064000732E2046697820746865206572726F7217
:1006500020616E6420757365204D39393920746FBF
:1006600020726573746172742E202854656D7065F4
:100670007261747572652069732072657365742E7A
:1006800020536574206974206166746572207265F8
:100690007374617274696E67290A004E6F20436833
:1006A00065636B73756D2077697468206C696E651E
:1006B000206E756D6265722C204C617374204C69DC
:1006C0006E653A2000636865636B73756D206D69B4
:1006D000736D617463682C204C617374204C696E77
:1006E000653A20004C696E65204E756D626572201A
:1006F0006973206E6F74204C617374204C696E6551
:10070000204E756D6265722B312C204C6173742004
:100710004C696E653A20004D313130004D33310067
:100720004D383420582059205A2045005344207217
:10073000656164206572726F720A00446F6E652095
:100740007072696E74696E672066696C650A002054
:10075000496E76616C69642065787472756465723F
:100760002000000061430000664300007A4300005F
:100770000000000000000000000000002100240034
:1007800027002A004572726F722077726974696E51
:100790006720746F20454550524F4D210A0020625A
:1007A00079746573290A0053657474696E677320E0
:1007B00053746F726564202800454550524F4D2098
:1007C000636865636B73756D206D69736D617463C8
:1007D000680A00206279746573290A002073746FB7
:1007E0007265642073657474696E677320726574D2
:1007F000726965766564202800204D61726C696EAF
:100800003D563337290A0028454550524F4D3D008B
:10081000454550524F4D2076657273696F6E206D5D
:1008200069736D6174636820000000220025002850
:10083000002B0000002000230026002900020202F5
:100840000202020202040404040404040403030375
:10085000030303030301010101010101010102047A
:10086000081020408001020408102040800102048A
:100870000810204080804020100804020100000081
:10088000010200090A00000000040308070000003C
:1008900000000000000000000000000000024B49C2
:1008A0004C4C45442E2000202D20496E76616C6909
:1008B00064206578747275646572206E756D62650A
:1008C0007220210A002020506C616E6E65724275A4
:1008D0006666657242797465733A200020467265D7
:1008E00065204D656D6F72793A2000436F6D7069B8
:1008F0006C65643A204D61792020342032303137E4
:100900000A00207C20417574686F723A20286E6F4F
:100910006E652C2064656661756C7420636F6E660D
:100920006967290A00323031372D30352D303420B7
:1009300031323A303000204C61737420557064615C
:100940007465643A2000312E312E300A004D6172F8
:100950006C696E0020536F66747761726520526512
:100960007365740A00205761746368646F6720526E
:10097000657365740A002042726F776E206F75741C
:100980002052657365740A002045787465726E6143
:100990006C2052657365740A00506F7765725570EC
:1009A0000A0073746172740A006572726F72207744
:1009B000726974696E6720746F2066696C650A00DD
:1009C000456E6473746F7073202563202563202542
:1009D0006320256300205A3A0020593A0020583AF3
:1009E00000656E6473746F7073206869743A2000D8
:1009F000446F6E6520736176696E672066696C6509
:100A00002E0A004D323900000000000000000000F6
:100A10000000005761726E696E673A20486F6D6919
:100A20006E672042756D702044697669736F72201D
:100A30003C20310A000000A0400000A0400000005F
:100A400040000061430000664300007A43FFFFFF5F
:100A50007C3C3E5E2B3D3F2F5B5D3B2C2A225C00A5
:100A6000205A3A200020593A200042656420583A22
:100A7000200042696C696E656172204C6576656C18
:100A8000696E6720477269643A0A0020706F736963
:100A900074696F6E206F7574206F662072616E6767
:100AA000652E0A003F50726F62652000486F6D65C9
:100AB0002025732573257320666972737400206680
:100AC000697273740A005A0059005800486F6D65C6
:100AD000200052756E6E696E6720696E204452590F
:100AE0002D52554E206D6F64650A00473239204102
:100AF00075746F20426564204C6576656C696E671D
:100B00000A0028422961636B00284629726F6E74BF
:100B1000002852296967687400284C2965667400AA
:100B20003F2856296572626F7365204C6576656C47
:100B300020697320696D706C61757369626C6520E2
:100B400028302D34292E0A00426164205A20766113
:100B50006C75650A004E6F2062696C696E65617222
:100B600020677269640A0053442063617264206FD5
:100B70006B0A006F70656E526F6F74206661696CEE
:100B800065640A00766F6C756D652E696E697420F8
:100B90006661696C65640A00534420696E6974205B
:100BA0006661696C0A006175746F25692E67004D76
:100BB0003234004D32332025730057726974696EE8
:100BC0006720746F2066696C653A20006F70656EEF
:100BD000206661696C65642C2046696C653A20006A
:100BE0006F70656E206661696C65642C2046696C67
:100BF000653A200046696C652073656C65637465B1
:100C0000640A002053697A653A200046696C6520C1
:100C10006F70656E65643A20006F70656E20666166
:100C2000696C65642C2046696C653A200020666911
:100C30006C653A20004E6F7720002220706F7300A1
:100C40002220706172656E743A2200535542524FF1
:100C50005554494E452043414C4C207461726765A0
:100C6000743A22004B494C4C45442E200074727952
:100C7000696E6720746F2063616C6C207375622DE0
:100C800067636F64652066696C6573207769746853
:100C900020746F6F206D616E79206C6576656C7362
:100CA0002E204D4158206C6576656C2069733A00A2
:100CB0004572726F723A004578747275646572009D
:100CC0004D6F7665205A004D6F76652059004D6F47
:100CD00076652058005072657061726500526573C8
:100CE000746F7265206661696C73616665004C6F34
:100CF0006164206D656D6F72790053746F72652049
:100D00006D656D6F72790046696C616D656E74001A
:100D10004D6F74696F6E0054656D706572617475A6
:100D20007265004D61696E0050726568656174207E
:100D300041425320636F6E6600507265686561744E
:100D400020504C4120636F6E66005049442D440092
:100D50005049442D44005049442D49005049442DE8
:100D600049005049442D50005049442D500020085E
:100D700020466163740020082046616374002008E7
:100D8000204D6178002008204D6178002008204D1A
:100D90006178002008204D696E002008204D696EA2
:100DA000002008204D696E004F6666004F6E2000DF
:100DB0004175746F74656D700046616E2073706567
:100DC00065640046616E2073706565640042656409
:100DD00000426564004E6F7A7A6C65004E6F7A7AD5
:100DE0006C6500436F6E74726F6C0053746F726544
:100DF000206D656D6F727900426564004265640024
:100E00004E6F7A7A6C65004E6F7A7A6C6500466137
:100E10006E2073706565640046616E207370656551
:100E2000640054656D70657261747572650020743C
:100E30006F6F206C6F6E6720657874727573696F61
:100E40006E2070726576656E7465640A0020636F4B
:100E50006C6420657874727573696F6E207072654A
:100E600076656E7465640A00507265686561742009
:100E7000504C412042656400507265686561742081
:100E8000504C4120456E6400507265686561742065
:100E9000504C410050726570617265005072656817
:100EA0006561742041425320426564005072656858
:100EB0006561742041425320456E6400507265683C
:100EC0006561742041425300507265706172650023
:100ED0004732380A47323900473239004C65766567
:100EE0006C206265640043616E63656C004D343252
:100EF0003800507265686561742041425300507239
:100F0000656865617420504C4100436F6F6C646F7D
:100F1000776E004D38340044697361626C652073EC
:100F2000746570706572730053657420686F6D65C9
:100F3000206F666673657473004C6576656C20621D
:100F4000656400473238004175746F20686F6D65C5
:100F5000004D6F76652061786973004D61696E00A0
:100F60004D6F76652058004D6F76652059004D6FA6
:100F70007665205A004578747275646572004D6F0D
:100F8000766520302E316D6D004D6F766520316DA8
:100F90006D004D6F76652031306D6D004D6F76655B
:100FA0002061786973004578747275646572004DCC
:100FB0006F7665205A004D6F76652059004D6F762B
:100FC0006520580000060900FE070192032120FF5A
:100FD000FF08FF07FF0000000600000107070602E8
:100FE0000080808080800080030202060105A0A0AE
:100FF0000507070600005050F850F8505005070745
:101000000600002078A07028F020050707060000E1
:10101000C0C810204098180507070600006090A07F
:1010200040A89068020303060104C040800307073C
:101030000601002040808080402003070706010051
:101040008040202020408005050506000120A87072
:10105000A8200505050600012020F8202002030332
:101060000602FFC04080050101060003F8020202EB
:10107000060200C0C00505050600010810204080DA
:1010800005070706000070888888888870030707AE
:1010900006010040C040404040E005070706000050
:1010A000708808708080F8050707060000F8102097
:1010B000100808F005070706000010305090F810DF
:1010C00010050707060000F880F00808887005077B
:1010D00007060000708080F088887005070706000A
:1010E00000F808102020202005070706000070885F
:1010F000887088887005070706000070888878085F
:101100000870020505060200C0C000C0C002060645
:101110000602FFC0C000C0408004070706000010A0
:10112000204080402010050303060002F800F80468
:1011300007070601008040201020408005070706B1
:1011400000007088081020002005070706000070C6
:10115000880868A8A870050707060000708888F846
:10116000888888050707060000F08888F08888F0DE
:1011700005070706000070888080808870050707D3
:10118000060000F08888888888F0050707060000B8
:10119000F88080F08080F8050707060000F880805E
:1011A000F0808080050707060000708880B8888876
:1011B00070050707060000888888F8888888010776
:1011C0000706020080808080808080050707060077
:1011D0000038101010109060050707060000889076
:1011E000A0C0A0908805070706000080808080804E
:1011F00080F805070706000088D8A8888888880531
:1012000007070600008888C8A89888880507070689
:10121000000070888888888870050707060000F03D
:101220008888F0808080050707060000708888881D
:10123000A89068050707060000F08888F0A090884D
:10124000050707060000788080700808F00507078A
:10125000060000F8202020202020050707060000B7
:10126000888888888888700507070600008888882D
:10127000888850200507070600008888888888A885
:101280005005070706000088885020508888050709
:1012900007060000888888502020200507070600E0
:1012A00000F80810204080F8030707060100E080DE
:1012B00080808080E0050505060001804020100840
:1012C000030707060100E02020202020E00503039B
:1012D000060004205088050101060000F802020201
:1012E000060205804005050506000070087888782C
:1012F0000507070600008080B0C88888F00505054E
:101300000600007080808870050707060000080846
:1013100068988888780505050600007088F8807050
:101320000507070600003048E0404040400506063B
:101330000600FF708888780870050707060000809F
:1013400080B0C88888880107070602008000808076
:101350008080800308080601FF200020202020A0B4
:1013600040040707060000808090A0C0A0900307FB
:1013700007060100C04040404040E005050506006A
:1013800000D0A8A8A8A8050505060000B0C8888850
:101390008805050506000070888888700506060621
:1013A00000FFF08888F080800506060600FF788838
:1013B00088780808050505060000B0C8808080050B
:1013C000050506000070807008F00407070600009D
:1013D0004040E04040403005050506000088888810
:1013E00098680505050600008888885020050505D1
:1013F0000600008888A8A85005050506000088504A
:101400002050880506060600FF8888887808700541
:101410000505060000F8102040F803070706010044
:101420002040408040402001070706020080808065
:1014300080808080030707060100804040204040F4
:10144000800502020600026890000000060000000D
:10145000000006000000000006000000000006007A
:101460000000000006000000000006000000000070
:10147000060000000000060000000000060000005A
:10148000000006000000000006000000000006004A
:101490000000000006000000000006000000000040
:1014A000060000000000060000000000060000002A
:1014B000000006000000000006000000000006001A
:1014C0000000000006000000000006000000000010
:1014D00006000000000006000000000006000000FA
:1014E00000000600000000000600000000000600EA
:1014F00000000000060000000000060000000000E0
:1015000006000000000006000000000006000000C9
:1015100000000600000107070602008000808080AE
:1015200080800507070600002070A8A0A87020058D
:101530000707060000304040E04050A805050506BA
:10154000000088705070880507070600008850204A
:10155000F820F820010707060200808080008080C4
:101560008005080806000030482050502090600395
:101570000101060107A0050707060000F888B8B8B2
:10158000B888F8050707060001700878887800F821
:101590000505050600012850A05028050303060094
:1015A00001F8080802020206020640800507070645
:1015B0000000F888A88898A8F8050101060006F838
:1015C000040404060003609090600507070600000D
:1015D0002020F8202000F804050506000360902074
:1015E00040F0030505060003E020E020E0020202CF
:1015F00006020640800508080600FF88888888984B
:10160000E880800507070600007898987818181871
:10161000020202060202C0C00202020602FF40806D
:1016200003050506000340C04040E005070706002B
:1016300001708888887000F8050505060001A05033
:101640002850A00507070600008890A858B8080889
:101650000507070600008890B84898203805080854
:10166000060000C040C048D8380808050707060033
:1016700000200020408088700508080600004020F7
:10168000007088F88888050808060000102000709F
:1016900088F888880508080600002050007088F83F
:1016A00088880508080600006890007088F8888817
:1016B0000508080600005000708888F8888805082A
:1016C000080600002050207088F888880507070663
:1016D00000003860A0B8E0A0B80508080600FF7058
:1016E000888080887020600508080600004020007F
:1016F000F880F080F8050808060000081000F8805F
:10170000F080F8050808060000205000F880F080FE
:10171000F80507070600005000F880F080F803087D
:1017200008060100804000E0404040E00308080651
:101730000100204000E0404040E0030808060100AE
:1017400040A000E0404040E0030707060100A00081
:10175000E0404040E0050707060000704848E848C0
:10176000487005080806000068900088C8A8988896
:1017700005080806000040207088888888700508E1
:101780000806000010207088888888700508080600
:101790000000205000708888887005080806000046
:1017A000689000708888887005080806000050005E
:1017B00070888888887005050506000188502050CB
:1017C000880508080600FF1070A8A8A8A8704005A2
:1017D0000808060000402088888888887005080866
:1017E0000600001020888888888870050808060090
:1017F000002050008888888870050808060000507E
:1018000000888888888870050808060000102088ED
:1018100050202020200509090600FFC040704848DC
:10182000704040E00408080601FF609090A090908E
:10183000E0800508080600004020007008788878DD
:101840000508080600001020007008788878050850
:1018500008060000205000700878887805080806FF
:101860000000689000700878887805070706000077
:10187000500070087888780508080600002050207D
:101880007008788878050606060000D02878A0A899
:10189000500506060600FF70808870206005080865
:1018A0000600004020007088F880700508080600D7
:1018B000001020007088F8807005080806000020DD
:1018C00050007088F880700507070600005000700F
:1018D00088F8807003080806010080400040C0407E
:1018E00040E003080806010020400040C04040E0FE
:1018F00003080806010040A00040C04040E0030784
:1019000007060100A00040C04040E00507070600B0
:1019100000A040A0107888700508080600006890B4
:1019200000B0C888888805080806000040200070BC
:1019300088888870050808060000102000708888D4
:10194000887005080806000020500070888888709C
:1019500005080806000068900070888888700507F0
:10196000070600005000708888887005050506008D
:10197000012000F800200507070600FF1070A8A846
:10198000A870400508080600004020008888889854
:1019900068050808060000102000888888986805F7
:1019A0000808060000205000888888986805070706
:1019B000060000500088888898680509090600FF1D
:1019C000102000888888F808700407070601FFC007
:1019D0004060506040E00508080600FF500088881D
:1019E000887808702042403A0020403A00202F00BA
:1019F00020423A00202F0020543A00205A3A00207A
:101A0000593A0020436F756E7420583A0020453AC9
:101A100000205A3A0020593A00583A00536574742D
:101A2000696E672054726176656C20416363656CF2
:101A300065726174696F6E3A200053657474696EE3
:101A400067205265747261637420416363656C65DD
:101A5000726174696F6E3A200053657474696E67C1
:101A6000205072696E7420416363656C65726174A5
:101A7000696F6E3A200053657474696E6720507206
:101A8000696E7420616E642054726176656C2041C9
:101A90006363656C65726174696F6E3A2000205AE9
:101AA00000205900580020204D61783A2000205A2B
:101AB00000205900580020204D696E3A20004F6EDA
:101AC00020004F666600536F667420656E64737401
:101AD0006F70733A200043290A0061626C656420CC
:101AE000286D696E2074656D702000436F6C6420F2
:101AF0006578747275646573206172652000236473
:101B00006566696E65202044454641554C545F4BDF
:101B100064200023646566696E6520204445464163
:101B2000554C545F4B69200023646566696E6520DF
:101B30002044454641554C545F4B70200050494469
:101B4000204175746F74756E652066696E6973687F
:101B50006564212050757420746865206C6173740D
:101B6000204B702C204B6920616E64204B642063F5
:101B70006F6E7374616E74732066726F6D20626530
:101B80006C6F7720696E746F20436F6E666967753E
:101B9000726174696F6E2E680A0050494420417565
:101BA000746F74756E65206661696C65642120745C
:101BB000696D656F75740A00504944204175746FF2
:101BC00074756E65206661696C6564212054656D6D
:101BD000706572617475726520746F6F20686967D3
:101BE000680A00204B643A2000204B693A2000200C
:101BF0004B703A20000A20436C6173736963205074
:101C00004944200A002054753A2000204B753A20A0
:101C100000206D61783A2000206D696E3A20002026
:101C2000643A200020626961733A200025753A25E4
:101C300030327500253032753A2530327500257501
:101C40006420253032753A25303275005A0059002B
:101C50005800092000000000000000000000000003
:101C6000007FFFE000000000000000000000000016
:101C70007000E000000000000000000000000061B3
:101C8000F86000000000000000000000000041F8C3
:101C90002000000000000000000000000040F020D4
:101CA0000000000000000000000000004060200074
:101CB00000000000000000000000005801A07F802C
:101CC000000000000000004104005C63A0FFC000B1
:101CD0000000000000002082005EF7A0FFC00000AE
:101CE00000000000002082005EF7A0FFC00000009E
:101CF000000000004104005C63A07F800000000041
:101D00000000008208005801A07F80000000000051
:101D10000001041000406020FFC00000000000002F
:101D20000104100040F020FFC0000000000000008F
:101D300082080041F820FFC00000000000000041C0
:101D4000040061F8603F0000000000000000000097
:101D5000007000E01E0000000000000001FFFF8096
:101D60007FFFE00C0000000000000001FFFF80008A
:101D700000000000000000000000000000007FFFE5
:101D8000E00000000000000000000000007000E023
:101D9000000000000000000000000000630C600074
:101DA0000000000000000000000000470E200000BE
:101DB000000000000000000000004F0F20000000A5
:101DC0000000000000000000005F0FA00000000005
:101DD00000000000000000005E07A07F80000000FF
:101DE00000000000410400406020FFC0000000002F
:101DF00000000020820040F020FFC0000000000032
:101E0000000020820040F020FFC000000000000021
:101E1000004104004060207F8000000000000000BE
:101E20008208005E07A07F8000000000000001041F
:101E300010005F0FA0FFC0000000000000010410B0
:101E4000004F0F20FFC000000000000000820800CB
:101E5000470E20FFC00000000000000041040063A6
:101E60000C603F0000000000000000000000700057
:101E7000E01E0000000000000001FFFF807FFFE087
:101E80000C0000000000000001FFFF8000000000C7
:101E9000060900FE000000000001090008FE000025
:101EA00005080806000040F0C888889878100508E2
:101EB00008060000C0F88888888888F805050506A7
:101EC00000012030F830200508080600002070F8D6
:101ED00020202020E00509090600FF2070A8A8B8EE
:101EE000888870200509090600FFE080C0B0A82896
:101EF0003028280509090600FFF8A88888888888FE
:101F0000A8F8050A0A0600FE205050505088A8A8DC
:101F1000887003030306000340A0406265640A0062
:101F20002C2073797374656D2073746F70706564A1
:101F300021204865617465725F49443A2000486514
:101F40006174696E67206661696C656400486561EB
:101F500074696E67206661696C65640048656174C8
:101F6000696E67206661696C6564004865617469C3
:101F70006E67206661696C6564001000C90210011B
:101F80002C014001220170011801B0010E01F00185
:101F900004015002FA00B002F0003003E600D00362
:101FA000DC009004D2007005C800A006BE00000846
:101FB000B400B009AA00D00BA000600E960060111A
:101FC0008C000015820020197800C01D6E00A02230
:101FD0006400B0275A00902C500000314600E034D5
:101FE0003C0010383200903A2800603C1E00A03DB2
:101FF0001400803E0A00203F0000544845524D41E5
:102000004C2052554E4157415900546865726D61DC
:102010006C2052756E61776179004572723A204D7D
:10202000494E54454D5020424544004572723A2075
:102030004D494E54454D50004D494E54454D50204C
:10204000747269676765726564004572723A204D03
:10205000415854454D5020424544004572723A2043
:102060004D415854454D50004D415854454D502018
:102070007472696767657265640048617264636F52
:102080006465642044656661756C7420536574747E
:10209000696E6773204C6F616465640A0020204D8F
:1020A000383531205A005A2D50726F6265204F66C4
:1020B0006673657420286D6D293A0A00204400205B
:1020C000490020204D3330312050005049442073C6
:1020D000657474696E67733A0A00204600204200F6
:1020E00020480020204D3134352053004D61746567
:1020F0007269616C206865617475702070617261CD
:102100006D65746572733A0A00205A0020204D34C0
:1021100032302053004175746F20426564204C6555
:1021200076656C696E673A0A00205A0020590020D3
:10213000204D323036205800486F6D65206F66663E
:102140007365743A0A00204500205A002059002087
:10215000580020420020540020204D3230352053BA
:1021600000416476616E6365643A20533C6D696E2C
:102170005F66656564726174653E20543C6D696E8E
:102180005F74726176656C5F6665656472617465C3
:102190003E20423C6D696E5F7365676D656E745F6E
:1021A00074696D655F6D733E20583C6D61785F7832
:1021B000795F6A65726B3E205A3C6D61785F7A5F29
:1021C0006A65726B3E20453C6D61785F655F6A654C
:1021D000726B3E0A0020540020520020204D323005
:1021E00034205000416363656C65726174696F6E81
:1021F0002028756E6974732F7332293A20503C7011
:1022000072696E745F616363656C3E20523C7265F7
:1022100074726163745F616363656C3E20543C74E7
:10222000726176656C5F616363656C3E0A00204590
:1022300000205A0020590020204D32303120580013
:102240004D6178696D756D20416363656C65726180
:1022500074696F6E2028756E6974732F7332293A12
:102260000A00204500205A0020590020204D32301D
:10227000332058004D6178696D756D206665656421
:1022800072617465732028756E6974732F73293AAF
:102290000A00204500205A0020590020204D3932E4
:1022A00020580053746570732070657220756E69D4
:1022B000743A0A0020204D3230302044300A002089
:1022C000204D3230302044002044697361626C65D7
:1022D000640A0046696C616D656E74207365747480
:1022E000696E67733A002020473231203B20556EDB
:1022F00069747320696E206D6D0A0A001FFFFFFF6D
:10230000FFFFFF600000000001FF40000000000030
:10231000FF8000000000007F83CF00000C303F876B
:10232000FF80000C301F867980000C000F8C30C7B6
:10233000838C30E78C30CFC7CC31F38C30DCECECC5
:1023400033B98C30D86C6C33198C30D06C0C331999
:102350008C30D86C0C33198C30DC6C0E3B198C3003
:10236000CF7C079F198C30C77C038F194000000079
:10237000000002600000000000061FFFFFFFFFFFDB
:10238000F84573746570732F6D6D004573746570D7
:10239000732F6D6D005A73746570732F6D6D005AD5
:1023A00073746570732F6D6D005973746570732F3E
:1023B0006D6D005973746570732F6D6D0058737473
:1023C0006570732F6D6D005873746570732F6D6D2C
:1023D00000412D74726176656C00412D74726176D6
:1023E000656C00412D7265747261637400412D72D9
:1023F00065747261637400416D6178204500416DC0
:102400006178204500416D6178205A00416D617806
:10241000205A00416D6178205900416D6178205942
:1024200000416D6178205800416D61782058005658
:1024300054726176206D696E005654726176206D1B
:10244000696E005654726176206D696E00566D6932
:102450006E00566D696E00566D696E00566D61783E
:10246000204500566D6178204500566D6178204505
:1024700000566D6178205A00566D6178205A0056DA
:102480006D6178205A00566D6178205900566D6153
:1024900078205900566D6178205900566D6178207A
:1024A0005800566D6178205800566D6178205800AC
:1024B00056652D6A65726B0056652D6A65726B00F4
:1024C00056652D6A65726B00567A2D6A65726B00CF
:1024D000567A2D6A65726B0056792D6A65726B00AB
:1024E00056792D6A65726B0056792D6A65726B009C
:1024F00056782D6A65726B0056782D6A65726B008E
:1025000056782D6A65726B00416363656C004163A8
:1025100063656C005A204F6666736574005A204FDD
:10252000666673657400436F6E74726F6C0043610E
:102530006E6E6F74206F70656E2073756264697261
:1025400020006563686F3A00526573656E643A20D7
:10255000006F6B00627573793A2070617573656402
:1025600020666F7220696E7075740A0062757379E7
:102570003A2070617573656420666F7220757365AB
:10258000720A00627573793A2070726F63657373B3
:10259000696E670A004B494C4C45442E20004B495C
:1025A0004C4C2063617573656420627920746F6F91
:1025B000206D75636820696E616374697665207447
:1025C000696D65202D2063757272656E7420636F6E
:1025D0006D6D616E643A2000506C656173652072A8
:1025E00065736574005052494E5445522048414C21
:1025F000544544005072696E7465722068616C7451
:1026000065642E206B696C6C28292063616C6C6595
:1026100064210A00656E7175657565696E672022B3
:102620000024F4D43050C38E20C2A24017828B7095
:1026300011127A910D816CD90AA861E108C7586618
:1026400007615143061E4B5D05C145A7041A4111A0
:1026500004093D9803713931034036DB026533913B
:1026600002D4305402802E1D02632CEE01752AC55F
:1026700001B028A001102781018F2564012B244B74
:1026800001E0223401AC211F018D200D01801FFCCF
:1026900000841EED00971DDF00B81CD200E61BC6AB
:1026A00000201BBC00641AB200B219A8000A19A0CD
:1026B000006A189900D117910040178B00B5168455
:1026C0000031167E00B31579003A157300C7146FF8
:1026D0000058146A00EE1366008813630025135E29
:1026E00000C7125B006C12570015125400C1115143
:1026F0000070114F0021114B00D61049008D10477A
:10270000004610440002104200C00F4000800F3EFF
:1027100000420F3C00060F3B00CB0E3800930E37F3
:10272000005C0E3500270E3400F30D3200C10D3170
:1027300000900D3000600D2E00320D2D00050D2C87
:1027400000D90C2B00AE0C2900850C29005C0C274D
:1027500000350C27000E0C2600E80B2400C40B24C7
:1027600000A00B23007D0B23005A0B2100390B2105
:1027700000180B2000F80A1F00D90A1E00BB0A1E11
:10278000009D0A1D00800A1D00630A1C00470A1BE9
:10279000002C0A1B00110A1A00F7091A00DD09199A
:1027A00000C4091900AB091900920917007B091828
:1027B00000630917004C0916003609160020091697
:1027C000000A091500F5081500E0081400CC0814EB
:1027D00000B8081400A4081400900813007D081223
:1027E000006B081300580812004608120034081144
:1027F00000230811001208110001081100F0071051
:1028000000E0071000D0071000C0071000B0070F4D
:1028100000A107100091070E0083070F0074070F37
:102820000065070E0057070E0049070E003B070D15
:10283000002E070E0020070D0013070D0006070DE0
:1028400000F9060C00ED060D00E0060C00D4060CA5
:1028500000C8060C00BC060C00B0060C00A4060B59
:102860000099060C008D060B0082060B0077060B04
:10287000006C060B0061060A0057060B004C060AA6
:102880000042060A0038060A002E060A0024060A3C
:10289000001A060A001006090007060A00FD0509CD
:1028A00000F4050900EB050900E2050900D9050956
:1028B00000D0050900C7050900BE050900B50508D7
:1028C00000AD050800A50509009C05080094050851
:1028D000008C050800840508007C050800740508C4
:1028E000006C050700650508005D05070056050832
:1028F000004E05070047050700400508003805079A
:1029000000310507002A050700230507001C0506FE
:1029100000160507000F0507000805060002050759
:1029200000FB040600F5040700EE040600E80406B8
:1029300000E2040700DB040600D5040600CF04060D
:1029400000C9040600C3040600BD040600B704065F
:1029500000B1040500AC040600A6040600A00405AE
:10296000009B04060095040500900406008A0405F7
:102970000085040500800406007A0405007504053E
:1029800000700405006B0405006604050061040581
:10299000005C04050057040500520405004D0405C1
:1029A0000048040500430405003E0404003A040501
:1029B0000035040500300404002C0405002704043D
:1029C00000230405001E0404001A04040016040574
:1029D00000110404000D04040009040500040404AB
:1029E0000000040400FC030400F8030400F40304E2
:1029F00000F0030400EC030400E8030400E4030413
:102A000000E0030400DC030400D8030400D4030442
:102A100000D0030400CC030400C8030300C5030373
:102A20000024F404D9201BC40C5C0E9804C4095F74
:102A30000265077101F405F900FB04B3004804873F
:102A400000C10369005803550003034500BE023A64
:102A5000008402310053022A0029022500040220CA
:102A600000E4011C00C8011900AF0117009801140F
:102A70000084011300710110006101100051010E6A
:102A80000043010D0036010B002B010B0020010B50
:102A900000150109000C01090003010800FB0008F2
:102AA00000F3000800EB000700E4000600DE00066B
:102AB00000D8000600D2000600CC000500C70005C3
:102AC00000C2000500BD000400B9000400B5000408
:102AD00000B1000400AD000400A9000400A500033B
:102AE00000A20003009F0004009B00030098000365
:102AF000009500020093000300900003008D000287
:102B0000008B00030088000200860002008400039E
:102B100000810002007F0002007D0002007B0002B5
:102B200000790002007700010076000200740002C4
:102B30000072000100710002006F0002006D0001D0
:102B4000006C0002006A00010069000200670001D9
:102B500000660001006500010064000200620001DF
:102B60000061000100600001005F0002005D0001E3
:102B7000005C0001005B0001005A000100590001E7
:102B800000580001005700010056000100550001E7
:102B900000540001005300000053000100520001E6
:102BA0000051000100500001004F0001004E0000E4
:102BB000004E0001004D0001004C0001004B0000E0
:102BC000004B0001004A00010049000100480000DC
:102BD00000480001004700010046000000460001D7
:102BE00000450000004500010044000100430000D2
:102BF00000430001004200000042000100410000CB
:102C00000041000100400001003F0000003F0001C2
:102C1000003E0000003E0001003D0000003D0001BC
:102C2000003C0000003C0000003C0001003B0000B4
:102C3000003B0001003A0000003A000100390000AA
:102C400000390001003800000038000000380001A1
:102C50000037000000370001003600000036000099
:102C6000003600010035000000350000003500018D
:102C70000034000000340000003400010033000084
:102C80000033000000330001003200000032000079
:102C9000003200010031000000310000003100016D
:102CA000003000000030000000300001002F000064
:102CB000002F0000002F0000002F0001002E000058
:102CC000002E0000002E0001002D0000002D00004D
:102CD000002D0000002D0001002C0000002C000041
:102CE000002C0000002C0001002B0000002B000035
:102CF000002B0000002B0001002A0000002A000029
:102D0000002A0000002A000100290000002900001C
:102D1000002900000029000000290001002800000F
:102D20000028000000280000002800000028000102
:102D300000270000002700000027000000270000F7
:102D400000270001002600000026000000260000E9
:102D500000260000002600010025000000250000DC
:102D600000250000002500000025000000250001CE
:102D700000240000002400000024000000240000C3
:102D800000240001002300000023000000230000B5
:102D900000230000002300000023000000230001A6
:102DA000002200000022000000220000002200009B
:102DB000002200000022000100210000002100008C
:102DC000002100000021000000210000002100007F
:102DD0000021000100200000002000000020000071
:102DE0000020000000200000002000000020000063
:102DF00000200001001F0000001F0000001F000055
:102E0000001F0000001F0000001F0000001F000145
:102E1000001E0000001E0000001E0000001E00003A
:102E2000004D383420582059205A204500507269EE
:102E30006E742061626F7274656400496E69742EED
:102E40002053442063617264004E6F20534420631A
:102E5000617264004D3231004368616E67652053D2
:102E6000442063617264005072696E742066726FF0
:102E70006D205344004D32310053746F70207072D6
:102E8000696E7400526573756D65207072696E7439
:102E9000005061757365207072696E7400436F6EC7
:102EA00074726F6C00507265706172650054756E5B
:102EB0006500496E666F2073637265656E004261DE
:102EC00062797374657070696E6720580042616240
:102ED000797374657070696E672059004261627918
:102EE0007374657070696E67205A0042616279730D
:102EF000746570205A00426162797374657020595C
:102F0000004261627973746570205800466C6F7777
:102F100000466C6F770046616E20737065656400D3
:102F200046616E20737065656400426564004265A9
:102F300064004E6F7A7A6C65004E6F7A7A6C650029
:102F40005370656564005370656564004D61696E1A
:102F50000046696C2E204469612E0046696C2E2063
:102F60004469612E004F6666004F6E20004520695F
:102F70006E206D6D3300436F6E74726F6C00436131
:102F80006E6E6F7420656E7465722073756264690D
:102F9000723A2000022E2E00015265667265736837
:102FA000004D61696E0039E519E611241FBECFEFAF
:102FB000D0E4DEBFCDBF13E0A0E0B1E0EEECF5EE73
:102FC00001E00BBF02C007900D92AA38B107D9F7F4
:102FD00023E1AAE8B3E001C01D92AA3EB207E1F7DF
:102FE00017E1C4EDD7E104C02197FE010E9449F228
:102FF000C33DD107C9F70E9422DD0C94DAF20C948C
:1030000000002F923F924F925F926F927F928F9229
:103010009F92AF92BF92CF92DF92EF92FF920F9367
:103020001F93CF93DF93CDB7DEB7CA57D1090FB641
:10303000F894DEBF0FBECDBF8091F60520E6829FDB
:10304000C00111248A589B4F90939C0E80939B0E35
:1030500080918D0880FF1BC0E2E4F5E284918F012E
:103060000F5F1F4F882321F00E942A3AF801F6CF04
:1030700000919B0E10919C0ED8018D918D0188239B
:1030800019F00E942A3AF8CF8AE00E942A3AE09189
:103090009B0EF0919C0E8081803231F43196F0933A
:1030A0009C0EE0939B0EF3CF8E3469F010919B0E33
:1030B00000919C0E6AE270E0812F902F0E94A2F294
:1030C000009721F52AC0818190ED980F9A3010F079
:1030D0008D3261F73296F0939C0EE0939B0EE09157
:1030E0009B0EF0919C0E808180538A3010F43196B3
:1030F000F2CFE0919B0EF0919C0E80818032B1F670
:103100003196F0939C0EE0939B0EF3CFFC01319629
:103110008291803231F08A3221F0A12FB02F9D911F
:1031200002C01082F5CFFD01808111968032D9F363
:1031300080538A3020F0E2E4F5E20C94A130E12CD7
:10314000F12C2AE02E9DB0012F9D700D11247B01E2
:10315000B0E3EB1AF1088191E80EF11C87FDFA94B7
:10316000808180538A3070F38F013196D8018C9121
:103170008032D1F3109394030093930321E030E065
:1031800030939A0E2093990E9D3411F40C9473236E
:10319000943511F40C946B30973411F00C94833007
:1031A000BCE1EB16F10409F460C790F4F4E0EF160B
:1031B000F10438F48091530122E0E216F10458F151
:1031C0004CC134E0E316F10409F411C70C949830B3
:1031D0004AE5E416F10411F40C94C22270F48DE176
:1031E000E816F10411F40C9421229EE1E916F10491
:1031F00011F40C9425220C949830ABE5EA16F104F6
:1032000011F40C94C622BCE5EB16F10411F40C94F5
:10321000CB220C949830882311F40C9498300E949F
:10322000425E80914F01882321F08CE196E00E945C
:10323000185C0E941F3A80918D0883FD9BC0C0904E
:103240002806D0902906E0902A06F0902B062091BF
:103250005104309152044091530450915404C701D9
:10326000B6010E94BFEA882309F484C080918808CF
:1032700081113CC06091E5087091E6088091E708F3
:103280009091E8080E945CF0072E000C880B990BC7
:103290000E94C6EA20913B0130913C0140913D01E2
:1032A00050913E010E94BFEA87FF20C0C0925104A6
:1032B000D0925204E0925304F0925404E2E4F5E216
:1032C00084918F010F5F1F4F882321F00E942A3ABB
:1032D000F801F6CFE0E8F1E084918F010F5F1F4F16
:1032E000882321F00E942A3AF801F6CFC0902806E0
:1032F000D0902906E0902A06F0902B0620915104E8
:10330000309152044091530450915404C701B601C6
:103310000E94EFEE0E945CF097FF07C090958095A9
:10332000709561957F4F8F4F9F4F693C7105810567
:10333000910504F1C0925104D0925204E0925304DA
:10334000F0925404E2E4F5E284918F010F5F1F4F85
:10335000882321F00E942A3AF801F6CFE1E6F1E055
:1033600084918F010F5F1F4F882321F00E942A3A1A
:10337000F801F6CF20911C0630911D0640911E06E3
:1033800050911F0660914504709146048091470456
:10339000909148040E94BFEA81111DC0209120062F
:1033A00030912106409122065091230660914904F4
:1033B00070914A0480914B0490914C040E94BFEAA2
:1033C000811109C060910001709101018091020199
:1033D000909103013CC0809187086091C101709178
:1033E000C2018823F1F0072E000C880B990B0E9474
:1033F000C6EA2091000130910101409102015091F3
:1034000003010E9425EB2AE037ED43E25CE30E94D2
:1034100025EB2FEF3FEF4FEF5FEF0E949FC80C941B
:103420009830072E000C880B990B0E94C6EA209159
:1034300000013091010140910201509103010E946D
:1034400025EB2AE037ED43E25CE30E9425EB0E9486
:1034500087370E94DB690C949830882311F40C9410
:10346000983011E0E2E0EE16F10409F010E00E945D
:10347000425E82E50E943938882309F45CC10E94CB
:1034800093386B017C014090450450904604609055
:103490004704709048042091490430914A044091B7
:1034A0004B0450914C0423962CAF3DAF4EAF5FAF11
:1034B000239780911C0690911D06A0911E06B09145
:1034C0001F0627968CAF9DAFAEAFBFAF2797209159
:1034D00020063091210640912206509123062F9616
:1034E0002CAF3DAF4EAF5FAF2F9720E030E0A9018A
:1034F000C701B6010E94BFEA882309F45EC5A30193
:10350000920127966CAD7DAD8EAD9FAD27970E9441
:10351000BFEA811111C023962CAD3DAD4EAD5FAD1C
:1035200023972F966CAD7DAD8EAD9FAD2F970E94EA
:10353000BFEA882309F441C520E030E0A901C701B2
:10354000B6010E94BFEA881F8827881F18130BC086
:1035500080E090E0A0E8BFE36B968CAF9DAFAEAF8C
:10356000BFAF6B970AC020E030E040E85FEB6B969E
:103570002CAF3DAF4EAF5FAF6B97A3019201279683
:103580006CAD7DAD8EAD9FAD27970E94EFEE63963B
:103590006CAF7DAF8EAF9FAF639723962CAD3DADE3
:1035A0004EAD5FAD23972F966CAD7DAD8EAD9FADCB
:1035B0002F970E94EFEE67966CAF7DAF8EAF9FAFF7
:1035C000679763962CAD3DAD4EAD5FAD6397CA0175
:1035D000B9010E9425EB4B015C0167962CAD3DAD16
:1035E0004EAD5FAD6797CA01B9010E9425EB9B0103
:1035F000AC01C501B4010E94F0EE0E949EF12B9631
:103600006CAF7DAF8EAF9FAF2B9720E030E040E0F6
:103610005FE30E9425EB4B015C01A7019601C70106
:10362000B6010E9425EB6B017C01A5019401C50147
:10363000B4010E9425EB9B01AC01C701B6010E94B9
:10364000EFEE0E949EF19B01AC016B966CAD7DADDF
:103650008EAD9FAD6B970E9425EB4B015C012796C9
:103660002CAD3DAD4EAD5FAD2797C301B2010E94B9
:10367000F0EE20E030E040E05FE30E9425EB6B01DC
:103680007C0167966CAD7DAD8EAD9FAD6797905810
:103690002B962CAD3DAD4EAD5FAD2B970E94EAEF62
:1036A0009B01AC01C501B4010E9425EB9B01AC015B
:1036B000C701B6010E94F0EEA30192010E94EFEE55
:1036C0006B017C012F962CAD3DAD4EAD5FAD2F97BC
:1036D00023966CAD7DAD8EAD9FAD23970E94F0EE2D
:1036E00020E030E040E05FE30E9425EB2B013C014D
:1036F0002B962CAD3DAD4EAD5FAD2B9763966CAD6B
:103700007DAD8EAD9FAD63970E94EAEF9B01AC014A
:10371000C501B4010E9425EB9B01AC01C301B201BC
:103720000E94F0EE23962CAD3DAD4EAD5FAD2397DC
:103730000E94EFEE14C089E40E943938882329F0F2
:103740000E9493386B017C0103C0C12CD12C7601FF
:103750008AE40E9439388823F9F00E9493382F9622
:103760006CAF7DAF8EAF9FAF2F9720E030E0A90107
:10377000C701B6010E94BFEA81111EC020E030E0FF
:10378000A9012F966CAD7DAD8EAD9FAD2F970E9498
:10379000BFEA811111C011C420E030E0A901C701C6
:1037A000B6010E94BFEA882309F407C42F961CAE15
:1037B0001DAE1EAE1FAE2F97D701C601B05823967F
:1037C0008CAF9DAFAEAFBFAF23972F962CAD3DAD65
:1037D0004EAD5FAD2F97505827962CAF3DAF4EAFF3
:1037E0005FAF27979C01AD01BC01CD010E9425EB85
:1037F0004B015C0127962CAD3DAD4EAD5FAD2797DB
:10380000CA01B9010E9425EB9B01AC01C501B401BD
:103810000E94F0EE0E949EF1AB966CAF7DAF8EAF32
:103820009FAFAB978091450490914604A0914704C7
:10383000B09148042B968CAF9DAFAEAFBFAF2B9726
:10384000A7019601BC01CD010E94F0EE6B966CAF12
:103850007DAF8EAF9FAF6B972091490430914A04A2
:1038600040914B0450914C0463962CAF3DAF4EAF4A
:103870005FAF63972F962CAD3DAD4EAD5FAD2F97EB
:1038800063966CAD7DAD8EAD9FAD63970E94F0EEFB
:103890006F966CAF7DAF8EAF9FAF6F9780911C0618
:1038A00090911D06A0911E06B0911F06A3968CAFA5
:1038B0009DAFAEAFBFAFA3976B962CAD3DAD4EADF8
:1038C0005FAD6B97BC01CD010E94EFEE6B017C01F7
:1038D0002091200630912106409122065091230626
:1038E000A7962CAF3DAF4EAF5FAFA7976F962CADAD
:1038F0003DAD4EAD5FAD6F97A7966CAD7DAD8EAD16
:103900009FADA7970E94EFEE4B015C0180914D04A3
:1039100090914E04A0914F04B0915004E3968CAF67
:103920009DAFAEAFBFAFE3979C01AD0160912406A0
:103930007091250680912606909127060E94EFEE51
:1039400067966CAF7DAF8EAF9FAF679720912806CB
:103950003091290640912A0650912B06AF962CAF44
:103960003DAF4EAF5FAFAF9780915104909152043D
:10397000A0915304B0915404E7968CAF9DAFAEAFC5
:10398000BFAFE797A701960123966CAD7DAD8EADD5
:103990009FAD23970E9425EB2B013C01A5019401CB
:1039A00027966CAD7DAD8EAD9FAD27970E9425EB20
:1039B0009B01AC01C301B2010E94F0EE2B013C015E
:1039C000A501940123966CAD7DAD8EAD9FAD23977F
:1039D0000E9425EB4B015C01A701960127966CAD77
:1039E0007DAD8EAD9FAD27970E9425EB9B01AC016D
:1039F000C501B4010E94EFEEA30192010E946FEF96
:103A00006B017C0120E030E0A9010E94BFEA87FF42
:103A10000AC02BED3FE049EC50E4C701B6010E941B
:103A2000F0EE6B017C01112351F02BED3FE049ECEE
:103A300050E4C701B6010E94EFEE6B017C0120E06B
:103A400030E0A901C701B6010E94BFEA81112AC076
:103A5000A3962CAD3DAD4EAD5FADA3972B966CAD4F
:103A60007DAD8EAD9FAD2B970E94BFEA81111AC02C
:103A7000A7962CAD3DAD4EAD5FADA79763966CADEF
:103A80007DAD8EAD9FAD63970E94BFEA81110AC0E4
:103A90002BED3FE049EC50E4C701B6010E94F0EE87
:103AA0006B017C01AB962CAD3DAD4EAD5FADAB97E0
:103AB000C701B6010E9425EB9B01AC010E9425EBDA
:103AC0004B015C0167962CAD3DAD4EAD5FAD679788
:103AD000CA01B9010E9425EB9B01AC01C501B401EB
:103AE0000E94F0EE0E949EF14B015C012FE632E154
:103AF00043E85AE30E94BFEA87FD5BC2C501B401F7
:103B00000E9492F00E9463F061967FAF6EAF619762
:103B1000DB01AB2B31F4E1E0F0E06196FFAFEEAFFB
:103B2000619761962EAD3FAD6197B90180E090E05D
:103B30000E94C4EA4B015C019B01AC01C701B601C4
:103B40000E94EAEF2B966CAF7DAF8EAF9FAF2B97A5
:103B5000A501940167966CAD7DAD8EAD9FAD679765
:103B60000E94EAEFAB966CAF7DAF8EAF9FAFAB9785
:103B7000E7962CAD3DAD4EAD5FADE797AF966CAD22
:103B80007DAD8EAD9FADAF970E94EFEEA501940184
:103B90000E94EAEFAF966CAF7DAF8EAF9FAFAF974D
:103BA0002B962CAD3DAD4EAD5FAD2B97CA01B90143
:103BB0000E9425EB20E030E040E05FE30E9425EB2F
:103BC0009B01AC0160E070E080E89FE30E94EFEEB3
:103BD00067966CAF7DAF8EAF9FAF6797E3968CAD66
:103BE0009DADAEADBFADE39789879A87AB87BC87A4
:103BF000E7962CAD3DAD4EAD5FADE7972D873E8787
:103C00004F87588B6091C1017091C201072E000C43
:103C1000880B990B0E94C6EA2091000130910101A6
:103C200040910201509103010E9425EB2AE037EDFB
:103C300043E25CE30E9425EBA3966CAF7DAF8EAFB1
:103C40009FAFA3970E9451409B01AC0128533F4F67
:103C50004F4F5F4FA7962CAF3DAF4EAF5FAFA797CB
:103C60004FAC21965FAC219722966FAC229723969A
:103C70007FAC239722242394312CD12C61968EADD6
:103C80009FAD61972816390609F44FC10E94C5AE51
:103C90000E945140DC01CB01A7962CAD3DAD4EAD4D
:103CA0005FADA797821B930BA40BB50BB7FD10C09C
:103CB0000E9451409B01AC0128533F4F4F4F5F4F33
:103CC000A7962CAF3DAF4EAF5FAFA7970E9465C6DA
:103CD000D39438E13D150CF44BC067962CAD3DAD47
:103CE0004EAD5FAD679727966CAD7DAD8EAD9FAD48
:103CF00027970E9425EB4B015C012B962CAD3DAD27
:103D00004EAD5FAD2B97B201C3010E9425EBA5011B
:103D100094010E94F0EE7B018C0167962CAD3DADC5
:103D20004EAD5FAD6797B201C3010E9425EB4B0119
:103D30005C012B962CAD3DAD4EAD5FAD2B9727961C
:103D40006CAD7DAD8EAD9FAD27970E9425EB9B019D
:103D5000AC01C501B4010E94EFEE2B013C01C7018B
:103D6000D80127968CAF9DAFAEAFBFAF27975AC093
:103D7000B10180E090E00E94C4EA2B962CAD3DADED
:103D80004EAD5FAD2B970E9425EB4B015C010E946D
:103D9000E5EF6B017C01C501B4010E9490F14B017C
:103DA0005C01A701960123966CAD7DAD8EAD9FADF4
:103DB00023970E9425EB2B013C01A50194012F962E
:103DC0006CAD7DAD8EAD9FAD2F970E9425EB9B0115
:103DD000AC01C301B2010E94F0EE2B013C01A50130
:103DE000940123966CAD7DAD8EAD9FAD23970E945F
:103DF00025EB4B015C01A70196012F966CAD7DADC3
:103E00008EAD9FAD2F970E9425EB9B01AC01C501A4
:103E1000B4010E94EFEE27966CAF7DAF8EAF9FAFDF
:103E20002797D12C9201A3016B966CAD7DAD8EAD21
:103E30009FAD6B970E94F0EE69837A838B839C839E
:103E400027962CAD3DAD4EAD5FAD27976F966CAD0F
:103E50007DAD8EAD9FAD6F970E94F0EE6D837E833A
:103E60008F839887AB962CAD3DAD4EAD5FADAB97D4
:103E700069857A858B859C850E94F0EE69877A87B3
:103E80008B879C87AF962CAD3DAD4EAD5FADAF97A8
:103E90006D857E858F8598890E94F0EE6D877E877F
:103EA0008F87988B80914F01882321F0CE01019656
:103EB0000E94185CC0908D0389819A81AB81BC817E
:103EC00088A399A3AAA3BBA38D819E81AF81B88546
:103ED0008CA39DA3AEA3BFA389859A85AB85BC8522
:103EE00088A799A7AAA7BBA7AE01485D5F4FBE01EF
:103EF0006C5D7F4FCE0180960E947289A396ECACD8
:103F0000FDAC0EAD1FADA3979E01235F3F4FAE01E9
:103F1000485D5F4FBE016C5D7F4FCE0180960E9471
:103F20003F7C4FEF241A340AA9CEC0908D038091B4
:103F30001C0690911D06A0911E06B0911F0688A335
:103F400099A3AAA3BBA38091200690912106A091DA
:103F50002206B09123068CA39DA3AEA3BFA380919C
:103F6000240690912506A0912606B091270688A7E1
:103F700099A7AAA7BBA7AE01485D5F4FBE016C5DC4
:103F80007F4FCE0180960E947289A396ECACFDAC67
:103F90000EAD1FADA39728E236E0AE01485D5F4F3E
:103FA000BE016C5D7F4FCE0180960E943F7C0E94D7
:103FB000DB690E941F3A0C949830E0EBFCE084919E
:103FC0008F010F5F1F4F882321F00E942A3AF801CA
:103FD000F6CFEBE9F1E084918F010F5F1F4F88234B
:103FE00011F40C9498300E942A3AF801F4CF80E53D
:103FF0000E943938882329F00E9488386B017C019F
:1040000003C0C12CD12C760183E50E943938882366
:1040100021F00E94BC386B017C010E945ECB0E94A3
:104020001F3A80919D0E90919E0EA0919F0EB0918F
:10403000A00EC80ED91EEA1EFB1E809167018111D9
:1040400005C060E081EB91E00E9407980E9451401A
:10405000DC01CB018C199D09AE09BF09B7FD02C077
:104060000C9498300E9465C6F1CF0E945ECB80E030
:104070000E9406600E94886011E010930B0188E5A1
:104080000E943938982E89E50E943938082F8AE530
:104090000E943938882E911004C0011104C01827DD
:1040A00005C0011102C010E001C0182F80E1E5E455
:1040B000F4E0ACE1B6E001900D928A95E1F71111C0
:1040C00005C0911003C0002309F4EDC020E030E0EA
:1040D00040E850E46091550670915606809157066D
:1040E000909158060E94F0EE609324067093250686
:1040F000809326069093270620914D0430914E041C
:1041000040914F04509150040E9450F118167CF4D5
:1041100019821A821B821C829E012F5F3F4F44E24C
:1041200056E069E474E085E494E00E94A86011110F
:104130000EC0911003C00111B0C0B5C0011107C07D
:1041400080E090E00E94AA5C1123A9F3A6C010921F
:10415000490410924A0410924B0410924C0410929D
:1041600045041092460410924704109248040E949D
:104170007839EDE4FAE0B49081E49AE00E94BF3926
:104180002B013C0185E49AE00E94BF396B017C0160
:104190009B01AC01C301B2010E9450F118162CF42E
:1041A000A3019201C701B60104C0A7019601C30192
:1041B000B2010E94EAEF9B01AC010E9425EB20E0D6
:1041C00030E040E85FE30E94F0EE0E949EF120E0C4
:1041D00030E048E452E40E9425EB6BAF7CAF8DAF3A
:1041E0009EAFEEE4FAE0A49020E030E040EC5FE324
:1041F000C701B6010E9425EB6B017C016A2DAA0C58
:10420000770B880B990B0E94C6EA9B01AC01C70192
:10421000B6010E9425EB69837A838B839C8320E01F
:1042200030E040EC5FE3C301B2010E9425EB6B017B
:104230007C016B2DBB0C770B880B990B0E94C6EA97
:104240009B01AC01C701B6010E9425EB68A379A3CD
:104250008AA39BA39E01255C3F4F4DE454E0BE0121
:104260006F5F7F4FCE0180960E94A8601092750408
:104270001092490410924A0410924B0410924C047C
:10428000109245041092460410924704109248047C
:10429000111156CF911054CF4ECF81E090E00E9483
:1042A000AA5C111103C0882009F4BFC080913504B5
:1042B000882321F08091360481111EC060E08EEECB
:1042C00091E00E940798E2E4F5E284918F010F5F8C
:1042D0001F4F882321F00E942A3AF801F6CFEDED16
:1042E000F1E084918F010F5F1F4F882309F49DC077
:1042F0000E942A3AF801F5CF0E94783920E030E098
:1043000040EE52E460914D0670914E0680914F064A
:10431000909150060E94F0EE4B015C0160931C06E8
:1043200070931D0680931E0690931F0620E030E0D8
:1043300046EE52E460915106709152068091530608
:10434000909154060E94F0EE6B017C016093200670
:1043500070932106809322069093230680914D044A
:1043600090914E04A0914F04B09150048093240684
:1043700090932506A0932606B09327068CE196E03D
:104380000E9467708823A1F120E030E048EF51E4FB
:10439000C501B4010E94F0EE60931C0670931D06E7
:1043A00080931E0690931F0620E030E040EA51E41F
:1043B000C701B6010E94EFEE6093200670932106BC
:1043C000809322069093230619821A821B821C82F4
:1043D0009E012F5F3F4F4DE454E060E276E08CE1B8
:1043E00096E00E94A86082E090E00E94AA5C1DC056
:1043F00060E08CEC91E00E940798E2E4F5E28491A1
:104400008F010F5F1F4F882321F00E942A3AF80185
:10441000F6CFEAEBF1E084918F010F5F1F4F882305
:1044200021F00E942A3AF801F6CF0E947839809153
:10443000940980930B010E946E600E943D9D0C9434
:1044400098300E94C9630C94983088E50E943938EE
:10445000882319F00E9493380EC020E030E048EF26
:1044600051E4609145047091460480914704909115
:1044700048040E94EFEE2B013C0189E50E94393887
:10448000882319F00E9493380EC020E030E040EA03
:1044900051E46091490470914A0480914B049091D9
:1044A0004C040E94F0EE4B015C0149825A826B82FF
:1044B0007C826D837E838F83988720E030E0A90122
:1044C0006091550670915606809157069091580656
:1044D0000E94F0EE69877A878B879C87CE010196D0
:1044E0000E946770082F882311F40C94983080E0A4
:1044F0000E9406600E94886083E50E943938882304
:1045000019F00E94ED38082FEE24E394F12CA50158
:104510009401C301B2010E9446626B017C012CEA46
:1045200035EC47E257E3C301B2010E94F0EEAB0164
:10453000BC0188E092E00E94987A2CEA35EC47E2D0
:1045400057E3C501B4010E94F0EEAB01BC0183E06A
:1045500092E00E94987A2CEA35EC47E257E3C701D3
:10456000B6010E94F0EEAB01BC018EEF91E00E941B
:10457000987A8AE00E942A3A0E946E600E943D9DCD
:104580000C949830109292030C94983081E08093B0
:1045900092030C94993085E40E943938B82E811129
:1045A00002C00E945ECBF7EC8F2EF1E09F2EA5E4B7
:1045B000CA2EA4E0DA2EB0E1EB2EB6E0FB2E00E02E
:1045C00010E0A12CD4018D914D010E94393888232F
:1045D000F1F1F6012081318142815381E8962FAFBC
:1045E000E897E9963FAFE997EA964FAFEA97EB96DF
:1045F0005FAFEB970E949338D6016D937D938D93B7
:104600009C931397E8962FADE897E9963FADE9970D
:10461000EA964FADEA97EB965FADEB970330110545
:10462000B1F00E94EFEE9B01AC01F7016081718156
:10463000828193810E94F0EED7016D937D938D93DB
:104640009C931397C8010E94C539AA24A3940F5FB5
:104650001F4FB4E0CB0ED11CE4E0EE0EF11C043091
:10466000110509F0AFCFAA2019F00E94783937C0A0
:10467000BB20A9F1C0905104D0905204E0905304A3
:10468000F09054042091A30A3091A40A4091A50A05
:104690005091A60AC701B6010E9425EB0E945DF168
:1046A00060934C0B70934D0B80934E0B90934F0B7C
:1046B000C701B6010E945CF02FB7F89460933A09E5
:1046C00070933B0980933C0990933D092FBF109252
:1046D0003C0B10923D0B10923E0B10923F0B0E9430
:1046E0003D9D0C949830F2E7EF16F10411F40C9410
:1046F000982B08F0F2C03BE4E316F10409F48EC5F0
:1047000008F06FC058E1E516F10409F4D8C2E8F5E5
:1047100092E1E916F10409F44EC7B0F4B2E0EB16E9
:10472000F10408F405C2E1E1EE16F10411F00C9475
:10473000983060E084E492E00E9407985E985E986A
:1047400015985E980C949830F5E1EF16F10409F491
:10475000ACC248F434E1E316F10411F00C94983043
:10476000ECE5F2E05FC246E1E416F10409F4A1C20F
:1047700057E1E516F10411F00C94983040E061E047
:10478000C8010E945F6C0C9498308CE1E816F1042B
:1047900009F4EAC268F4AAE1EA16F10409F49AC23B
:1047A00008F0A6C21092800B0E9483710C9498307E
:1047B000EFE1EE16F10409F446C438F42EE1E216F6
:1047C000F10409F4D8C20C94983030E2E316F104F5
:1047D00009F4E9C34AE2E416F10409F4DAC40C94DA
:1047E000983058E6E516F10409F421C508F046C0F2
:1047F00092E5E916F10409F4D7C620F5BDE4EB16FD
:10480000F10409F411C508F40CC5F1E5EF16F10443
:1048100011F00C9498300E94EBAA0E945ECB0E948B
:10482000E1C510920D0610920C0668EE73E080E070
:1048300090E00E943A4760E08FEA93E00E94079878
:104840000C94983024E5E216F10409F4B4C608F497
:10485000AEC645E5E416F10409F4DAC65CE5E516F2
:10486000F10411F00C94983087ECC82E81E0D82E1A
:1048700097E9E92E9AE0F92E10E0DBC68DE6E816FE
:10488000F10409F42CC6B0F4AAE6EA16F10409F41E
:1048900057C608F407C6EBE6EE16F10409F474C631
:1048A000FCE6EF16F10411F00C9498301092BE0162
:1048B0000C9498302FE6E216F10409F416C508F4BA
:1048C00003C540E7E416F10409F4ACC551E7E51669
:1048D000F10409F4ABC50C9498308CE2E81681E041
:1048E000F80611F40C944B2D08F08CC0A8ECEA16D5
:1048F000F10411F40C948B2CB8F5E8E7EE16F104F2
:1049000009F48FC798F425E7E216F10409F420C7EB
:1049100037E7E316F10409F420C743E7E416F1048E
:1049200011F00C949830EFEBF3E007C75CE8E51664
:10493000F10409F4A4C560F499E7E916F10411F053
:104940000C94983010920B01109294090C949830AA
:10495000A1E9EA16F10409F46AC7BEEBEB16F1040B
:1049600009F4D5C50C949830EEECEE16F10411F470
:104970000C940D2D40F52BECE216F10411F40C947F
:10498000EC2C88F449ECE416F10411F00C94983006
:104990006FEAE62E6AE0F62E07EC11E074E0D72EFF
:1049A000D00E0C94D32C5CECE516F10411F40C94AD
:1049B0000A2D8DECE816F10411F00C9498300E9449
:1049C0006A9C0C9498309CEDE916F10411F40C9457
:1049D000102D50F4B3EDEB16F10411F00C94983057
:1049E0000E94D49B0C949830EDEDEE16F10411F476
:1049F0000C941D2DF2EEEF16F10411F40C94202D01
:104A00000C94983024EAE21621E0F20611F40C949A
:104A10001B2E08F042C043E6E41641E0F40611F410
:104A20000C944230A8F48EE2E81681E0F80611F406
:104A30000C94102E10F40C94712DAFE2EA16A1E044
:104A4000FA0611F00C9498300E94E59E0C94983070
:104A5000B1E9EB16B1E0FB0611F40C94132E58F4F7
:104A6000F0E9EF16F1E0FF0611F00C9498300E9487
:104A70005ECB0C94983022E9E21621E0F20611F4A4
:104A80000C94172E3AE9E31631E0F30611F00C947A
:104A900098300E94109B0C94983046EFE41641E049
:104AA000F40611F40C94003018F58CEAE81681E055
:104AB000F80611F40C94EC2E48F4A5EAEA16A1E0ED
:104AC000FA0611F40C94772E0C949830B4EFEB1690
:104AD000B1E0FB0611F40C94FD2FE5EFEE16E1E0DA
:104AE000FE0611F00C9498300E94B74A0C9498304E
:104AF000F3E5EF16F3E0FF0611F40C940F3048F4E1
:104B000037EFE31631E0F30611F40C9403300C9404
:104B1000983040EAE41643E0F40609F48AC257EEFE
:104B2000E51653E0F50611F40C945B300C949830C4
:104B300080E50E943938882361F00E9488386B0133
:104B40007C01BB24B394672B682B692B31F4B12C07
:104B500004C0B12CC12CD12C760183E50E943938D8
:104B6000882399F00E94BC386B017C01B1100FC002
:104B7000672B682B692B59F4D8018C91882339F065
:104B800061E0C8010E941C9807C0BB20A9F360E047
:104B900081E392E00E94079883E090E090939A0E60
:104BA0008093990E81E08093D1080E945ECB0E9491
:104BB0001F3AC114D104E104F104E9F080919D0E83
:104BC00090919E0EA0919F0EB091A00EC80ED91E7E
:104BD000EA1EFB1E0E945140DC01CB018C199D098D
:104BE000AE09BF09B7FF1AC08091D1088823B1F080
:104BF0000E9465C6EFCF8091D108882319F00E94EA
:104C000065C6F9CF8091800B60E0882319F082E2BD
:104C100092E002C080E192E00E9407981092D108D1
:104C20000C94983084918F010F5F1F4F882321F0DF
:104C30000E942A3AF801F6CF1092060E1092050E45
:104C400040E050E0BA0181EB9BE00E9440548BE1D0
:104C5000E1EBFBE0DE01159601900D928A95E1F7FC
:104C60008091AF0B9091B00B9C838B838DEC92E085
:104C70009A83898340E050E0BE016F5F7F4F88E8F0
:104C800093E00E9487C3CE0101960E94D9C5EDE44E
:104C9000F2E084918F010F5F1F4F882311F40C9471
:104CA00098300E942A3AF801F4CF0E94946F0C9435
:104CB00098301092800B1092810B0C949830809158
:104CC000810B882319F081E08093800B0E9443714F
:104CD0000C9498308091810B882311F40C949830B7
:104CE00083E50E94393881110C94BC300C949830C3
:104CF0008091810B882351F1EDE6F2E084918F01E0
:104D00000F5F1F4F882321F00E942A3AF801F6CF47
:104D10006091FC0D7091FD0D8091FE0D9091FF0D45
:104D20004AE00E94313A8FE20E942A3A6091F80DDF
:104D30007091F90D8091FA0D9091FB0D4AE00E945F
:104D4000313A8AE00E942A3A0C949830EFE7F2E078
:104D500084918F010F5F1F4F882311F40C949830BA
:104D60000E942A3AF801F4CF40E060E0C8010E94B6
:104D70005F6C0C9498308091810B882311F40C9413
:104D800098308BE49DE00E94FD538BE49DE00E94EF
:104D9000795510927F0B10927E0BE0909303F09068
:104DA00094038091810B882311F40C9498300E9415
:104DB000546C1D8218861C821B828DEC92E09A83B3
:104DC00089838DEA9BE09093CD0B8093CC0BF70108
:104DD00080818F3209F068C06FE270E0C7010E94E5
:104DE000A2F28C010F5F1F4F9E012F5F3F4F4901C1
:104DF0000115110509F45EC06FE270E0C8010E9460
:104E0000A2F26C01009709F456C00817190708F0C0
:104E100052C05C01A01AB10AA501B801CE0180966A
:104E20000E94CBF2E0E2F0E0EC0FFD1FEA0DFB1D6B
:104E300010828E01005E1F4FD8018D918D01882355
:104E400019F00E942A3AF8CF8AE00E942A3A60912B
:104E5000CC0B7091CD0B6115710511F06C5F7F4F1C
:104E600021E0AE01405E5F4FCE0105960E94235BBC
:104E7000811112C0BE01605E7F4F86EB92E00E94FE
:104E8000EB7A8EE20E942A3A8AE00E942A3AC40112
:104E90000E94D9C50C9498309092CD0B8092CC0B87
:104EA00086010F5F1F4FA4CF8EEC9BE09093CD0B3C
:104EB0008093CC0B87016091CC0B7091CD0B611569
:104EC000710511F06C5F7F4F18A21BA222E0A801B0
:104ED000CE0180960E94235B811102C0F12C1EC07E
:104EE000CE0180960E94F5C28823C1F36CA57DA5F2
:104EF0008EA59FA541E00E94034F882379F3E8A97E
:104F0000B0E2EB9FF0011124E75AF94F309731F3EB
:104F100085EE80831BA20E94C34EF82ECE018096A0
:104F20000E94193AFF2009F1E0E9F2E084917F0143
:104F30002FEFE21AF20A882321F00E942A3AF701A1
:104F4000F5CFD8018D918D01882319F00E942A3A5E
:104F5000F8CF8AE00E942A3A1092FC0D1092FD0DC3
:104F60001092FE0D1092FF0D18C0EEE9F2E0849150
:104F70007F01BFEFEB1AFB0A882321F00E942A3A37
:104F8000F701F5CFF80181918F01882319F00E9474
:104F90002A3AF8CF8EE20E942A3ACE0101960E9468
:104FA000D9C50C9498308091800B81110E945ECB02
:104FB000009193031091940361E270E0C8010E9494
:104FC000A2F2009719F08C010F5F1F4F80E50E943D
:104FD0003938882349F0FF24F39480918A03909113
:104FE0008B038017910708F0F12C8091810B8823A7
:104FF00011F40C9498304F2D61E0C8010E945F6C51
:1050000083E50E943938882349F080918A03909182
:105010008B038017910710F40C94CD308091810B95
:10502000882319F081E08093800BF1100C94983064
:105030004DCE81E080937F0B40E060E0C8010E948C
:105040005F6C0C9498300E94BFC2ECE3CE2ED12C42
:10505000E12CF12CA70196010E94B3EE762E672E6B
:10506000CA01B901A70196010E94B3EE6B017C0150
:10507000CA01B90128E130E040E050E00E94B3EEFF
:105080004B015C01C9016DE671E00E9402F28E01E4
:105090000F5F1F4F6115710599F06F927F92DF923C
:1050A000CF929F928F929F938F937F936F9382EF74
:1050B00092E09F938F931F930F930E9456EA12C022
:1050C0000097B1F06F927F92DF92CF929F928F9272
:1050D0009F938F9382EE92E09F938F931F930F93F2
:1050E0000E9456EA0FB6F894DEBF0FBECDBF36C0A1
:1050F00081149104A104B10479F06F927F92DF9240
:10510000CF929F928F9286ED92E09F938F931F9301
:105110000F930E9456EAE6CFC114D104E104F104D2
:1051200069F06F927F92DF92CF928EEC92E09F9324
:105130008F931F930F930E9456EAD4CF6F927F9262
:105140008AEC92E09F938F931F930F930E9456EAED
:105150000F900F900F900F900F900F9060E0C8018C
:105160000E941C98E2E4F5E284917F01BFEFEB1A04
:10517000FB0A882321F00E942A3AF701F5CFB801F3
:1051800086E093E00E94EB7A8AE00E942A3A0C942F
:10519000983083E50E943938882311F40C949830B4
:1051A0000E947B387C018F3F910519F010F00C9420
:1051B000983080E50E943938882311F40C94983097
:1051C0000E947B388C0197FF02C00C949830EBEC66
:1051D000F1E09927219131912817390731F022E028
:1051E000EB31F207B9F70C948530E0EBFCE08491E9
:1051F0008F010F5F1F4F882321F00E942A3AF80188
:10520000F6CFE3E1F3E084918F010F5F1F4F882316
:1052100009F48EC70E942A3AF801F5CF0E94437123
:1052200087C70E94837184C70E949BC181C788E69B
:1052300090E00E94B53A81117BC780918D0883FD73
:1052400077C783E50E9439388823D9F10E947B38DB
:1052500090930B0680930A0680E00E94B8AA0E94F1
:105260007B38863591053CF40E949BC160E089E261
:1052700093E00E9407980E947B388C016091E508BA
:105280007091E6088091E7089091E8080E945CF030
:1052900060177107B4F480EF92E09F938F93809131
:1052A0008C0390E001969F938F9382E293E09F930B
:1052B0008F931F920E9428710FB6F894DEBF0FBE25
:1052C000CDBF0E9415E334C78EE40E94393888238D
:1052D00009F42EC70E9406DB60938D0E70938E0E2C
:1052E00080938F0E9093900E23C783E50E943938E8
:1052F000882319F00E944C3801C080E080938D080B
:10530000E2E4F5E284918F010F5F1F4F882321F0C3
:105310000E942A3AF801F6CFE9E4F3E084918F0184
:105320000F5F1F4F882321F00E942A3AF801F6CF21
:1053300080918D088823A1F16BE3C62E63E0D62E01
:10534000E12CF12C20E080918D0890E00E2C02C021
:10535000959587950A94E2F780FF17C0BB24B39414
:10536000B20E222319F08CE20E942A3AF60125910E
:105370003491F901849189010F5F1F4F882321F037
:105380000E942A3A9801F5CF2B2DFFEFEF1AFF0A62
:1053900032E0C30ED11C45E0E416F104A1F63EC094
:1053A000E5E4F3E084918F010F5F1F4F8823B1F193
:1053B0000E942A3AF801F6CF8AE50E9439388823FC
:1053C00009F453C60E9493386B017C0120E030E061
:1053D00040EA51EC0E9450F187FD3AC620E030E0EF
:1053E00040EA51E4C701B6010E94BFEA18160CF466
:1053F0002FC6C0921201D0921301E0921401F092D4
:1054000015010E949D7160911201709113018091AC
:1054100014019091150142E00E94E63D8AE00E944D
:105420002A3A86C680E593E00E94EBC583E50E9498
:105430003938882359F00E944C388093B4018D3359
:1054400008F476C68CE38093B40172C6E2E4F5E218
:1054500084918F010F5F1F4F882321F00E942A3A09
:10546000F801F6CF4091B40150E060E070E089E5CA
:1054700093E00E947B7A8AE00E942A3A59C6809182
:105480008D0883FD55C683E50E943938882309F4C9
:105490004FC60E947B3890930F0680930E060E94A1
:1054A00085AA46C689E690E00E94B53A811111C0EE
:1054B000E0E6F3E084918F010F5F1F4F882321F016
:1054C0000E942A3AF801F6CF0E94559E8AE00E9477
:1054D0002A3A10929A0E1092990E0C943A348DE654
:1054E00090E00E94B53A811123C680918D0883FD1A
:1054F0001FC683E50E9439382C968FAF2C978111F7
:105500005EC682E50E943938811159C611C6809164
:105510008D0883FD0DC660E082EA93E00E94079843
:1055200083E50E9439382C968FAF2C9781110C940B
:10553000823282E50E94393881110C948232F8C59A
:1055400083E50E943938882321F00E94F9DA8C0122
:1055500002C00FEF10E080E50E943938882319F06F
:105560000E94F9DA02C080E090E098010F3F110537
:1055700019F010F02FEF30E0892B09F0D9C53093E6
:105580000D0620930C06D4C580E50E9439388111A0
:1055900005C010920D0610920C06CAC50E94F9DAD9
:1055A000892B09F0C5C5F5CF10929103C1C581E0E3
:1055B00080939103BEC583E50E943938882359F052
:1055C0000E94BC386093B5017093B6018093B70117
:1055D0009093B801ADC588E50E94393881110C94CB
:1055E000F33389E50E94393881110C94F3338AE54D
:1055F0000E94393881110C94F33385E40E943938C4
:1056000081110C94F3330E945ECB0E94E1C590C5DA
:1056100083E50E943938882309F48AC50E94BC3882
:105620006093A10E7093A20E8093A30E9093A40E8C
:105630007FC5D6018D916D010E943938882309F408
:105640006DC0133009F063C00E9493384B015C01B8
:1056500020E030E040EA51E40E94BFEA87FF4EC0FC
:10566000A50194016091A30A7091A40A8091A50AF2
:105670009091A60A0E94EAEF2B013C019B01AC012C
:105680006091E30A7091E40A8091E50A9091E60A3C
:105690000E9425EB6093E30A7093E40A8093E50A85
:1056A0009093E60AA30192016091D30A7091D40A03
:1056B0008091D50A9091D60A0E9425EB6093D30A77
:1056C0007093D40A8093D50A9093D60A60919A0871
:1056D00070919B0880919C0890919D080E94C4EA5B
:1056E000A30192010E9425EB0E9463F060939A0847
:1056F00070939B0880939C0890939D088092A30AC6
:105700009092A40AA092A50AB092A60A07C00E948D
:105710009338F70160837183828393831F5FF4E082
:10572000EF0EF11C143009F084CF0E94448A00C5AA
:105730000E945ECB0E943D9DFBC484918F010F5F50
:105740001F4F882309F4F4C40E942A3AF801F5CFC8
:1057500060E0C8010E941C98EBC4EDE9F4E084917C
:105760008F010F5F1F4F882321F00E942A3AF80112
:10577000F6CFE5E9F4E084918F010F5F1F4F882396
:1057800021F00E942A3AF801F6CF329B03C009EDBE
:1057900012E002C00EED12E0D8018D918D01882338
:1057A00019F00E942A3AF8CF8AE00E942A3AEDE8DE
:1057B000F4E084918F010F5F1F4F882321F00E9436
:1057C0002A3AF801F6CF339B03C009ED12E002C07C
:1057D0000EED12E0F80181918F01882319F00E94EB
:1057E0002A3AF8CF8AE00E942A3AE5E8F4E0849168
:1057F0008F010F5F1F4F882321F00E942A3AF80182
:10580000F6CF349B03C009ED12E002C00EED12E0AA
:10581000D8018D918D01882309F400CE0E942A3A87
:10582000F7CF81E080930B018093940982C483E5D4
:105830000E9439388823F1F00E947B38182F82307B
:10584000D0F0E0EBFCE084918F010F5F1F4F8823C5
:1058500021F00E942A3AF801F6CFE7EBF4E08491B8
:105860008F010F5F1F4F882309F462C40E942A3AF8
:10587000F801F5CF10E088E40E9439388823B1F0B0
:105880000E947B38E12FF0E08A3A91053CF08530A8
:10589000B1E09B072CF084E091E002C08AEA90E03E
:1058A000EE0FFF1FE559F74F9183808386E40E9436
:1058B00039388823A1F00E947B38E12FF0E0EE0F09
:1058C000FF1FE159F74F8F3F910519F014F08FEF4B
:1058D00090E097FF02C080E090E09183808382E4B3
:1058E0000E943938882309F423C40E947B38E12FB1
:1058F000F0E08530910534F0843791052CF083E792
:1059000090E002C085E090E0EE0FFF1FE959F74FED
:10591000918380830DC488EC90E00E94B53A811198
:1059200007C484E40E9439388823D1F10E94933857
:1059300011E020E030E0A9010E94BFEA811101C01E
:1059400010E01093DF13112359F100918C0310E044
:105950000E949338000F111F000F111FF801ED5323
:10596000FE4F608371838283938320E030E0A9013E
:105970006091C3017091C4018091C5019091C601ED
:105980000E94BFEA81110CC080E090E0A0E4B0E486
:105990008093C3019093C401A093C501B093C60145
:1059A0000E9473C5C5C3F80181918F010E943938E7
:1059B000882351F00E9493380E9463F0D7016D93C1
:1059C0007D938D939C931397B4E0EB0EF11CD01252
:1059D000EACF0E94127BACC347ECE42E4AE0F42EDF
:1059E00007EC11E054E0D52ED00EF80181918F0123
:1059F0000E943938882341F00E949338D7016D9373
:105A00007D938D939C931397B4E0EB0EF11CD01211
:105A1000ECCF8EC30E94D49C8BC30E94FC9D88C394
:105A200083E50E943938882309F482C30E947B38B9
:105A30009093C2018093C1017BC30E94B99B78C33C
:105A400080E50E943938882309F472C30E947B38AC
:105A50008C0183E50E943938882321F00E947B382D
:105A60007C0103C0EE24EA94FE2CC7010196039743
:105A700008F05EC317FD5CC3EBECF1E0C8019927A9
:105A8000219131912817390709F452C322E0EB31F3
:105A9000F207B1F7C7C683E50E943938882319F0A9
:105AA0000E94F9DA02C084E091E099A388A380E51E
:105AB0000E943938882349F00E94F9DA893833E1A5
:105AC000930728F088E893E102C088EE93E09A8378
:105AD0008983BE01605E7F4FCE0101960E943370C4
