:100000000C9448170C9472170C9472170C94721776
:100010000C9472170C9472170C9472170C9472173C
:100020000C9472170C943A6D0C9472170C9472170E
:100030000C9472170C949C980C9472170C94721771
:100040000C9472170C94795E0C94BC6E0C9472171D
:100050000C94DE500C9472170C9472170C94721757
:100060000C9472170C9472170C9472170C947217EC
:100070000C9472170C9472170C9472170C947217DC
:100080000C9472170C9472170C9472179E6CA16CDE
:10009000946C986CB86CB86CA56CA96CAF6CB36CB4
:1000A0002B6E306E356E3F6E6D6E6D6E496E516E9D
:1000B000596E636E084AD73B3BCE016E84BCBFFDD0
:1000C000C12F3D6C74319ABD56833DDA3D00C77F28
:1000D00011BED9E4BB4C3E916BAAAABE00000080C1
:1000E0003F05A84CCDB2D44EB93836A9020C50B950
:1000F000918688083CA6AAAA2ABE000000803F007C
:100100004E414E494E495459494E46CDCCCC3D0AFC
:10011000D7233C17B7D13877CC2B329595E6241FDF
:10012000B14F0A000020410000C84200401C462098
:10013000BCBE4CCA1B0E5AAEC59D74434F4D4D55A7
:100140004E49434154494F4E0044525952554E0076
:100150004552524F525300494E464F004543484F77
:100160000047322F47332062616420706172616DF5
:1001700065746572730A00536C6565702E2E2E00CF
:100180005A2070726F6265206F75742E20626564EC
:100190000A005A2070726F6265206F75742E20629B
:1001A000656400473238205A20466F726269646481
:1001B000656E0A00473238205A20466F72626964C1
:1001C00064656E00205A3A200020593A20004265AA
:1001D0006420583A20004D65736820706F696E7412
:1001E0002063616E6E6F74206265207265736F6C40
:1001F0007665640A003344205072696E746572201B
:1002000072656164792E00436C69636B20746F20A2
:10021000726573756D652E2E2E004E6F206D6F7694
:10022000652E002569730025696D202569730025F9
:1002300069682025696D202569730025696420257A
:1002400069682025696D2025697300256979202555
:100250006964202569682025696D2025697300502F
:1002600072696E742074696D653A200050726F7403
:1002700065637465642050696E0A00452569202510
:1002800073003344205072696E7465722072656128
:1002900064792E005C015701500149013B016F66F2
:1002A000660044454255473A004B494C4C45442E64
:1002B00020004D3131332053006F6B0042656420C4
:1002C000646F6E652E0020573A00426564204865D1
:1002D0006174696E672E004361703A454D4552471F
:1002E000454E43595F5041525345523A300A0043FC
:1002F00061703A434153455F4C494748545F42520D
:10030000494748544E4553533A300A004361703AC6
:10031000544F47474C455F4C49474854533A300A7D
:10032000004361703A534F4654574152455F504F16
:100330005745523A300A004361703A4C4556454C95
:10034000494E475F444154413A310A004361703A93
:100350005A5F50524F42453A310A004361703A4168
:1003600055544F4C4556454C3A310A004361703A5A
:100370005052494E545F4A4F423A310A004361702D
:100380003A50524F47524553533A300A0043617036
:100390003A4155544F5245504F52545F54454D5079
:1003A0003A310A004361703A454550524F4D3A3157
:1003B0000A004649524D574152455F4E414D453A1C
:1003C0004D61726C696E206275676669782D312E99
:1003D000312E7820284769746875622920534F555B
:1003E0005243455F434F44455F55524C3A687474DD
:1003F00070733A2F2F6769746875622E636F6D2F63
:100400004D61726C696E4669726D776172652F4DD0
:1004100061726C696E2050524F544F434F4C5F567F
:10042000455253494F4E3A312E30204D41434849B1
:100430004E455F545950453A3344205072696E74AA
:1004400065722045585452554445525F434F554EAE
:10045000543A3120555549443A63656465326132F6
:10046000662D343161322D343734382D39623132D2
:100470002D6335356336326633363766660A002FAC
:100480002F20007A5F6D696E3A2000795F6D696E8A
:100490003A2000785F6D696E3A20005265706F7285
:1004A00074696E6720656E6473746F702073746115
:1004B0007475730A0000010F150E12FF16170E1344
:1004C000FF03021A14FFFFFF0C04FFFFFF01000EE1
:1004D000FFFF0C190DFF18FFFFFFFFFFFF20643A1D
:1004E0000020693A0020703A0043290A0061626CDA
:1004F000656420286D696E2074656D702000436FFF
:100500006C6420657874727564657320617265200F
:100510000023646566696E65202044454641554C5C
:10052000545F4B64200023646566696E6520204437
:10053000454641554C545F4B69200023646566690C
:100540006E65202044454641554C545F4B70200059
:10055000504944204175746F74756E652066696EEC
:100560006973686564212050757420746865206C17
:10057000617374204B702C204B6920616E64204B9A
:100580006420636F6E7374616E74732066726F6D36
:100590002062656C6F7720696E746F20436F6E66A2
:1005A000696775726174696F6E2E680A00504944FC
:1005B000204175746F74756E65206661696C656441
:1005C000212074696D656F75740A0050494420419B
:1005D00075746F74756E65206661696C6564212041
:1005E00054656D706572617475726520746F6F20EB
:1005F000686967680A00204B643A2000204B693A1A
:100600002000204B703A20000A20436C617373690C
:100610006320504944200A002054753A2000204BA2
:10062000753A2000206D61783A2000206D696E3A9D
:10063000200020643A200020626961733A20004F54
:1006400066660A00466164652048656967687420CB
:1006500000426564204C6576656C696E67200046D3
:1006600061696C656420746F20656E61626C6520E1
:10067000426564204C6576656C696E670A004D655D
:10068000736820706F696E742063616E6E6F742082
:100690006265207265736F6C7665640A004D343252
:1006A0003120696E636F727265637420706172616C
:1006B0006D657465722075736167650A004F6666C3
:1006C00073657473206170706C6965640045727243
:1006D0003A20546F6F206661722100546F6F20665C
:1006E00061722066726F6D207265666572656E63F9
:1006F0006520706F696E740A003A20007A5F6D6938
:100700006E3A20202D3230207A5F6D61783A2020B9
:100710003230005A204F666673657420004E6F2099
:1007200063617365206C696768740A00416374696A
:1007300076652045787472756465723A2000556E4E
:100740006B6E6F776E20636F6D6D616E643A202201
:100750000020746F6F206C6F6E67206578747275FF
:1007600073696F6E2070726576656E7465640A00D9
:1007700020636F6C6420657874727573696F6E2086
:1007800070726576656E7465640A00656E71756574
:100790007565696E672022004E6F204C696E65207A
:1007A0004E756D6265722077697468206368656351
:1007B0006B73756D2C204C617374204C696E653AB7
:1007C00020004B494C4C45442E200053544F505070
:1007D00045442E20005072696E7465722073746FE8
:1007E000707065642064756520746F206572726F27
:1007F00072732E2046697820746865206572726F66
:100800007220616E6420757365204D39393920740A
:100810006F20726573746172742E202854656D7038
:100820006572617475726520697320726573657491
:100830002E2053657420697420616674657220727D
:10084000657374617274696E67290A004E6F204384
:100850006865636B73756D2077697468206C696E69
:1008600065206E756D6265722C204C617374204C2E
:10087000696E653A2000636865636B73756D206D02
:1008800069736D617463682C204C617374204C69CA
:100890006E653A20004C696E65204E756D6265721A
:1008A000206973206E6F74204C617374204C696EE4
:1008B00065204E756D6265722B312C204C6173740E
:1008C000204C696E653A20004D3131300020496E70
:1008D00076616C6964206578747275646572200055
:1008E0000000000000000000000000000000614364
:1008F0000000664300007A434D3530320A4D3530F2
:100900003000526573746F7265206661696C736143
:100910006665004C6F61642073657474696E6773FB
:1009200000496E697469616C697A65204545505269
:100930004F4D0053746F72652073657474696E67F0
:10094000730046696C616D656E74004D6F74696FFC
:100950006E0054656D7065726174757265004D61ED
:10096000696E00507265686561742041425320636E
:100970006F6E66005072656865617420504C41204E
:10098000636F6E66005049442D44005049442D4425
:10099000005049442D49005049442D4900504944D4
:1009A0002D50005049442D500020082046616374AA
:1009B0000020082046616374002008204D61780003
:1009C0002008204D6178002008204D617800200823
:1009D000204D696E002008204D696E002008204DD2
:1009E000696E004F6666004F6E20004175746F742B
:1009F000656D700046616E207370656564004661C8
:100A00006E2073706565640046616E207370656565
:100A1000640042656400426564004E6F7A7A6C65DA
:100A2000004E6F7A7A6C6500436F6E74726F6C0063
:100A300053746F72652073657474696E67730042D6
:100A400065640042656400426564004E6F7A7A6CAA
:100A500065004E6F7A7A6C65004E6F7A7A6C65002D
:100A600046616E2073706565640046616E20737028
:100A70006565640046616E20737065656400546549
:100A80006D7065726174757265005654726176207E
:100A90006D696E005654726176206D696E00565411
:100AA000726176206D696E00566D696E00566D69D3
:100AB0006E00566D696E00566D6178204500566D6A
:100AC0006178204500566D6178204500566D61784B
:100AD000205A00566D6178205A00566D6178205A70
:100AE00000566D6178205900566D61782059005686
:100AF0006D6178205900566D6178205800566D61FF
:100B000078205800566D61782058004D6F74696FD9
:100B10006E001000C90210012C0140012201700179
:100B20001801B0010E01F00104015002FA00B002F8
:100B3000F0003003E600D003DC009004D200700522
:100B4000C800A006BE000008B400B009AA00D00B7F
:100B5000A000600E960060118C0000158200201924
:100B60007800C01D6E00A0226400B0275A00902CAF
:100B7000500000314600E0343C0010383200903A1A
:100B80002800603C1E00A03D1400803E0A00203F6B
:100B900000004572723A204D494E54454D50204256
:100BA0004544004572723A204D494E54454D50001F
:100BB0004D494E54454D50207472696767657265A2
:100BC00064004572723A204D415854454D502042C0
:100BD0004544004572723A204D415854454D5000ED
:100BE0004D415854454D5020747269676765726570
:100BF00064001FFFFFFFFFFFFF600000000001FF18
:100C0000400000000000FF8000000000007F83CF54
:100C100000000C303F87FF80000C301F8679800079
:100C20000C000F8C30C7838C30E78C30CFC7CC31B1
:100C3000F38C30DCECEC33B98C30D86C6C33198C21
:100C400030D06C0C33198C30D86C0C33198C30DCF0
:100C50006C0E3B198C30CF7C079F198C30C77C03FE
:100C60008F19400000000000026000000000000634
:100C70001FFFFFFFFFFFF8526573656E643A2000A7
:100C80006F6B0020746F6F206C6F6E6720657874D7
:100C9000727573696F6E2070726576656E746564C7
:100CA0000A0020636F6C6420657874727573696FD5
:100CB0006E2070726576656E7465640A0062757385
:100CC000793A2070617573656420666F7220696E71
:100CD0007075740A00627573793A20706175736576
:100CE0006420666F7220757365720A00627573798D
:100CF0003A2070726F63657373696E670A004B49BF
:100D00004C4C45442E20004B494C4C20636175737C
:100D1000656420627920746F6F206D756368206947
:100D20006E6163746976652074696D65202D20633A
:100D3000757272656E7420636F6D6D616E643A20BA
:100D400000506C6561736520726573657400505264
:100D5000494E5445522048414C5445440050726914
:100D60006E7465722068616C7465642E206B696CAA
:100D70006C28292063616C6C6564210A0000000006
:100D80000000000000000000000000484200004891
:100D90004200002041000000005761726E696E67DA
:100DA0003A20486F6D696E672042756D7020446906
:100DB0007669736F72203C20310A00020204000041
:100DC000A0400000A040000000400000614300007F
:100DD000664300007A43FFFFFF4572726F7220770F
:100DE000726974696E6720746F20454550524F4D8B
:100DF000210A0000002100240027002A0000002210
:100E000000250028002B00000020002300260029D8
:100E100000020202020202020204040404040404A6
:100E2000040303030303030303010101010101019F
:100E30000101020408102040800102040810204033
:100E40008001020408102040808040201008040225
:100E500001000000010200090A000000000403086C
:100E6000070000000000000000000000000000007B
:100E700000024B494C4C45442E2000202D20496E49
:100E800076616C6964206578747275646572206E31
:100E9000756D62657220210A004572726F723A00A8
:100EA0002020506C616E6E65724275666665724296
:100EB000797465733A20002046726565204D656D32
:100EC0006F72793A2000436F6D70696C65643A20E7
:100ED0004A756C20313620323031370A00207C20B0
:100EE000417574686F723A20284A6F686E6E795443
:100EF00068654F6E652C20416E6574204136206315
:100F00006F6E666967290A00323031372D30352D12
:100F100030342031323A303000204C617374205527
:100F20007064617465643A20006275676669782D43
:100F3000312E312E780A004D61726C696E0020539B
:100F40006F6674776172652052657365740A00205C
:100F50005761746368646F672052657365740A0033
:100F60002042726F776E206F7574205265736574BE
:100F70000A002045787465726E616C205265736555
:100F8000740A00506F77657255700A00737461724D
:100F9000740A00456E6473746F7073202563202596
:100FA0006320256320256300205A3A0020593A0027
:100FB00020583A00656E6473746F707320686974AA
:100FC0003A20006563686F3A0042696C696E65613A
:100FD00072204C6576656C696E6720477269643A69
:100FE0000A0020706F736974696F6E206F757420CA
:100FF0006F662072616E67652E0A003F50726F62E5
:10100000652000486F6D6520257325732573206664
:1010100069727374002066697273740A005A005909
:10102000005800486F6D65200052756E6E696E67DE
:1010300020696E204452592D52554E206D6F6465C3
:101040000A00473239204175746F20426564204C94
:101050006576656C696E670A0028422961636B00DA
:10106000284629726F6E74002852296967687400D7
:10107000284C29656674003F2856296572626F7393
:1010800065206C6576656C20697320696D706C6194
:10109000757369626C652028302D34292E0A004250
:1010A0006164205A2076616C75650A004E6F20627B
:1010B000696C696E65617220677269640A00202F2D
:1010C000002042403A0020403A00436F6E74726F35
:1010D0006C00507265706172650054756E650049F0
:1010E0006E666F2073637265656E005A204F666688
:1010F000736574005A204F666673657400466C6FA2
:101100007700466C6F7700466C6F770046616E2003
:1011100073706565640046616E2073706565640078
:1011200046616E20737065656400426564004265C7
:1011300064004E6F7A7A6C65004E6F7A7A6C650047
:101140005370656564005370656564005370656530
:1011500064004D61696E005072656865617420506D
:101160004C4120456E640050726568656174205082
:101170004C4120426564005072656865617420507E
:101180004C4100507265706172650050726568650F
:1011900061742041425320456E6400507265686559
:1011A0006174204142532042656400507265686555
:1011B0006174204142530050726570617265004D48
:1011C000343238005072656865617420504C4100BB
:1011D000436F6F6C646F776E005072656865617401
:1011E000204142530044697361626C6520737465E9
:1011F0007070657273004D38340053657420686FE9
:101200006D65206F66667365747300426564204C7B
:101210006576656C696E67004732380A4732390077
:101220004175746F20686F6D6500473238004D6FEF
:1012300076652061786973004D61696E00416D616A
:1012400078204500416D6178204500416D6178202E
:101250005A00416D6178205A00416D617820590033
:10126000416D6178205900416D6178205800416DD1
:101270006178205800412D74726176656C00412DB3
:1012800074726176656C00412D726574726163746D
:1012900000412D7265747261637400416363656C13
:1012A00000416363656C004D6F74696F6E00566535
:1012B0002D6A65726B0056652D6A65726B00566506
:1012C0002D6A65726B00567A2D6A65726B00567ACC
:1012D0002D6A65726B0056792D6A65726B005679BE
:1012E0002D6A65726B0056792D6A65726B005678AF
:1012F0002D6A65726B0056782D6A65726B005678A0
:101300002D6A65726B004D6F74696F6E0045737462
:101310006570732F6D6D004573746570732F6D6DFF
:10132000005A73746570732F6D6D005A7374657015
:10133000732F6D6D005973746570732F6D6D005947
:1013400073746570732F6D6D005873746570732FAF
:101350006D6D005873746570732F6D6D004D6F74F3
:10136000696F6E0053746570732F6D6D004A6572FE
:101370006B00416363656C65726174696F6E0056E2
:10138000656C6F63697479005A204F666673657483
:1013900000436F6E74726F6C0046696C2E20446956
:1013A000612E0046696C2E204469612E004F6666EE
:1013B000004F6E20004520696E206D6D3300436F35
:1013C0006E74726F6C0000060900FE070192032123
:1013D00020FFFF08FF07FF000000060000010707CD
:1013E00006020080808080800080030202060105E2
:1013F000A0A00507070600005050F850F85050050F
:1014000007070600002078A07028F02005070706CF
:101410000000C0C8102040981805070706000060AB
:1014200090A040A89068020303060104C040800316
:101430000707060100204080808040200307070640
:101440000100804020202040800505050600012085
:10145000A870A8200505050600012020F82020021C
:1014600003030602FFC04080050101060003F802E5
:101470000202060200C0C005050506000108102092
:1014800040800507070600007088888888887003F8
:10149000070706010040C040404040E0050707063E
:1014A0000000708808708080F8050707060000F8C3
:1014B0001020100808F005070706000010305090B3
:1014C000F81010050707060000F880F0080888707B
:1014D000050707060000708080F088887005070700
:1014E000060000F80810202020200507070600004D
:1014F00070888870888870050707060000708888E3
:1015000078080870020505060200C0C000C0C002CD
:1015100006060602FFC0C000C040800407070600A0
:101520000010204080402010050303060002F80050
:10153000F8040707060100804020102040800507BE
:101540000706000070880810200020050707060025
:101550000070880868A8A870050707060000708852
:1015600088F8888888050707060000F08888F088D2
:1015700088F0050707060000708880808088700565
:101580000707060000F08888888888F005070706A6
:101590000000F88080F08080F8050707060000F85A
:1015A0008080F0808080050707060000708880B882
:1015B000888870050707060000888888F88888886A
:1015C0000107070602008080808080808005070771
:1015D0000600003810101010906005070706000084
:1015E0008890A0C0A0908805070706000080808032
:1015F000808080F805070706000088D8A8888888BA
:10160000880507070600008888C8A8988888050705
:10161000070600007088888888887005070706001C
:1016200000F08888F0808080050707060000708839
:101630008888A89068050707060000F08888F0A051
:101640009088050707060000788080700808F0057C
:101650000707060000F820202020202005070706A5
:101660000000888888888888700507070600008839
:1016700088888888502005070706000088888888A1
:1016800088A85005070706000088885020508888E1
:1016900005070706000088888850202020050707D6
:1016A000060000F80810204080F803070706010034
:1016B000E08080808080E0050505060001804020F4
:1016C0001008030707060100E02020202020E00585
:1016D0000303060004205088050101060000F802FB
:1016E0000202060205804005050506000070087824
:1016F00088780507070600008080B0C88888F00554
:101700000505060000708080887005070706000048
:10171000080868988888780505050600007088F82C
:1017200080700507070600003048E0404040400553
:1017300006060600FF70888878087005070706000F
:10174000008080B0C88888880107070602008000F2
:1017500080808080800308080601FF200020202070
:1017600020A040040707060000808090A0C0A09041
:10177000030707060100C04040404040E005050562
:10178000060000D0A8A8A8A8050505060000B0C856
:101790008888880505050600007088888870050619
:1017A000060600FFF08888F080800506060600FF28
:1017B000788888780808050505060000B0C880808C
:1017C0008005050506000070807008F00407070614
:1017D00000004040E040404030050505060000881C
:1017E00088889868050505060000888888502005C7
:1017F00005050600008888A8A85005050506000014
:1018000088502050880506060600FF8888887808DA
:1018100070050505060000F8102040F803070706CC
:101820000100204040804040200107070602008060
:101830008080808080800307070601008040402070
:101840004040800502020600026890000000060089
:10185000000000000600000000000600000000007C
:101860000600000000000600000000000600000066
:101870000000060000000000060000000000060056
:10188000000000000600000000000600000000004C
:101890000600000000000600000000000600000036
:1018A0000000060000000000060000000000060026
:1018B000000000000600000000000600000000001C
:1018C0000600000000000600000000000600000006
:1018D00000000600000000000600000000000600F6
:1018E00000000000060000000000060000000000EC
:1018F00006000000000006000000000006000000D6
:1019000000000600000000000600000000000600C5
:1019100000000000060000010707060200800080AA
:10192000808080800507070600002070A8A0A870AE
:1019300020050707060000304040E04050A805059C
:1019400005060000887050708805070706000088AB
:101950005020F820F8200107070602008080800050
:1019600080808005080806000030482050502090F4
:1019700060030101060107A0050707060000F888BB
:10198000B8B8B888F80507070600017008788878A5
:1019900000F80505050600012850A050280503039E
:1019A000060001F808080202020602064080050748
:1019B00007060000F888A88898A8F8050101060025
:1019C00006F804040406000360909060050707060B
:1019D00000002020F8202000F80405050600036020
:1019E000902040F0030505060003E020E020E0021F
:1019F000020206020640800508080600FF88888863
:101A00008898E8808005070706000078989878187D
:101A10001818020202060202C0C00202020602FFF9
:101A2000408003050506000340C04040E00507076D
:101A3000060001708888887000F805050506000119
:101A4000A0502850A00507070600008890A858B8A5
:101A500008080507070600008890B8489820380550
:101A60000808060000C040C048D838080805070725
:101A7000060000200020408088700508080600004D
:101A80004020007088F888880508080600001020AB
:101A9000007088F88888050808060000205000704B
:101AA00088F888880508080600006890007088F8A3
:101AB00088880508080600005000708888F8888823
:101AC0000508080600002050207088F8888805075F
:101AD000070600003860A0B8E0A0B80508080600B6
:101AE000FF7088808088702060050808060000402C
:101AF0002000F880F080F8050808060000081000B3
:101B0000F880F080F8050808060000205000F880F2
:101B1000F080F80507070600005000F880F080F814
:101B2000030808060100804000E0404040E0030850
:101B300008060100204000E0404040E0030808069D
:101B4000010040A000E0404040E00307070601001C
:101B5000A000E0404040E00507070600007048484C
:101B6000E848487005080806000068900088C8A882
:101B700098880508080600004020708888888870CA
:101B800005080806000010207088888888700508FD
:101B90000806000020500070888888700508080634
:101BA00000006890007088888870050808060000AA
:101BB00050007088888888700505050600018850E7
:101BC0002050880508080600FF1070A8A8A8A87073
:101BD000400508080600004020888888888870052D
:101BE0000808060000102088888888887005080882
:101BF00006000020500088888888700508080600C4
:101C00000050008888888888700508080600001041
:101C1000208850202020200509090600FFC04070C0
:101C20004848704040E00408080601FF609090A01A
:101C30009090E080050808060000402000700878B9
:101C40008878050808060000102000700878887859
:101C500005080806000020500070087888780508FC
:101C60000806000068900070087888780507070665
:101C700000005000700878887805080806000020E9
:101C800050207008788878050606060000D028786D
:101C9000A0A8500506060600FF7080887020600529
:101CA00008080600004020007088F88070050808C9
:101CB0000600001020007088F880700508080600F3
:101CC000002050007088F88070050707060000505B
:101CD000007088F88070030808060100804000400A
:101CE000C04040E003080806010020400040C0401A
:101CF00040E003080806010040A00040C04040E06A
:101D0000030707060100A00040C04040E0050707A8
:101D1000060000A040A010788870050808060000A2
:101D2000689000B0C8888888050808060000402030
:101D30000070888888700508080600001020007070
:101D40008888887005080806000020500070888880
:101D50008870050808060000689000708888887000
:101D60000507070600005000708888887005050583
:101D70000600012000F800200507070600FF10708C
:101D8000A8A8A87040050808060000402000888820
:101D90008898680508080600001020008888889840
:101DA00068050808060000205000888888986805A3
:101DB000070706000050008888889868050909060A
:101DC00000FF102000888888F808700407070601C3
:101DD000FFC04060506040E00508080600FF50006A
:101DE00088888878087024F4D43050C38E20C2A22A
:101DF0004017828B7011127A910D816CD90AA861FB
:101E0000E108C7586607615143061E4B5D05C14591
:101E1000A7041A411104093D980371393103403672
:101E2000DB0265339102D4305402802E1D02632CF4
:101E3000EE01752AC501B028A001102781018F2568
:101E400064012B244B01E0223401AC211F018D20C1
:101E50000D01801FFC00841EED00971DDF00B81CE3
:101E6000D200E61BC600201BBC00641AB200B219E7
:101E7000A8000A19A0006A189900D117910040170C
:101E80008B00B516840031167E00B31579003A1523
:101E90007300C7146F0058146A00EE1366008813AD
:101EA000630025135E00C7125B006C125700151209
:101EB0005400C111510070114F0021114B00D61078
:101EC00049008D1047004610440002104200C00F28
:101ED0004000800F3E00420F3C00060F3B00CB0E3F
:101EE0003800930E37005C0E3500270E3400F30DDA
:101EF0003200C10D3100900D3000600D2E00320D0A
:101F00002D00050D2C00D90C2B00AE0C2900850CE2
:101F100029005C0C2700350C27000E0C2600E80B6E
:101F20002400C40B2400A00B23007D0B23005A0BBC
:101F30002100390B2100180B2000F80A1F00D90AD4
:101F40001E00BB0A1E009D0A1D00800A1D00630AB8
:101F50001C00470A1B002C0A1B00110A1A00F70973
:101F60001A00DD091900C4091900AB09190092090A
:101F700017007B091800630917004C091600360981
:101F80001600200916000A091500F5081500E008DA
:101F90001400CC081400B8081400A4081400900819
:101FA00013007D0812006B08130058081200460841
:101FB0001200340811002308110012081100010852
:101FC0001100F0071000E0071000D0071000C00754
:101FD0001000B0070F00A107100091070E00830743
:101FE0000F0074070F0065070E0057070E00490722
:101FF0000E003B070D002E070E0020070D001307F3
:102000000D0006070D00F9060C00ED060D00E006B8
:102010000C00D4060C00C8060C00BC060C00B00670
:102020000C00A4060B0099060C008D060B0082061E
:102030000B0077060B006C060B0061060A005706C2
:102040000B004C060A0042060A0038060A002E065B
:102050000A0024060A001A060A00100609000706EC
:102060000A00FD050900F4050900EB050900E20579
:102070000900D9050900D0050900C7050900BE05FA
:102080000900B5050800AD050800A50509009C0577
:102090000800940508008C050800840508007C05EC
:1020A0000800740508006C050700650508005D055B
:1020B0000700560508004E050700470507004005C4
:1020C000080038050700310507002A050700230529
:1020D00007001C050600160507000F050700080588
:1020E000060002050700FB040600F5040700EE04E5
:1020F0000600E8040600E2040700DB040600D5043D
:102100000600CF040600C9040600C3040600BD048F
:102110000600B7040600B1040500AC040600A604DE
:102120000600A00405009B04060095040500900429
:1021300006008A04050085040500800406007A0470
:10214000050075040500700405006B0405006604B5
:102150000500610405005C040500570405005204F5
:1021600005004D04050048040500430405003E0435
:1021700004003A04050035040500300404002C0472
:10218000050027040400230405001E0404001A04AB
:10219000040016040500110404000D0404000904E1
:1021A00005000404040000040400FC030400F80318
:1021B0000400F4030400F0030400EC030400E8034B
:1021C0000400E4030400E0030400DC030400D8037B
:1021D0000400D4030400D0030400CC030400C803AB
:1021E0000300C503030024F404D9201BC40C5C0EB7
:1021F0009804C4095F0265077101F405F900FB0446
:10220000B30048048700C103690058035500030365
:102210004500BE023A008402310053022A0029021E
:10222000250004022000E4011C00C8011900AF01D0
:10223000170098011400840113007101100061015E
:10224000100051010E0043010D0036010B002B015F
:102250000B0020010B00150109000C01090003010E
:102260000800FB000800F3000800EB000700E40092
:102270000600DE000600D8000600D2000600CC00F2
:102280000500C7000500C2000500BD000400B9003C
:102290000400B5000400B1000400AD000400A90072
:1022A0000400A5000300A20003009F0004009B009F
:1022B00003009800030095000200930003009000C3
:1022C00003008D0002008B000300880002008600DE
:1022D000020084000300810002007F0002007D00F4
:1022E00002007B0002007900020077000100760006
:1022F00002007400020072000100710002006F0011
:1023000002006D0001006C0002006A00010069001B
:102310000200670001006600010065000100640022
:1023200002006200010061000100600001005F0026
:1023300002005D0001005C0001005B0001005A002A
:10234000010059000100580001005700010056002B
:10235000010055000100540001005300000053002B
:1023600001005200010051000100500001004F0027
:1023700001004E0000004E0001004D0001004C0025
:1023800001004B0000004B0001004A000100490021
:10239000010048000000480001004700010046001D
:1023A0000000460001004500000045000100440017
:1023B0000100430000004300010042000000420011
:1023C00001004100000041000100400001003F0009
:1023D00000003F0001003E0000003E0001003D0003
:1023E00000003D0001003C0000003C0000003C00FB
:1023F00001003B0000003B0001003A0000003A00F1
:1024000001003900000039000100380000003800E8
:1024100000003800010037000000370001003600DE
:1024200000003600000036000100350000003500D5
:1024300000003500010034000000340000003400CA
:1024400001003300000033000000330001003200BF
:1024500000003200000032000100310000003100B5
:1024600000003100010030000000300000003000AA
:1024700001002F0000002F0000002F0000002F009F
:1024800001002E0000002E0000002E0001002D0093
:1024900000002D0000002D0000002D0001002C0088
:1024A00000002C0000002C0000002C0001002B007C
:1024B00000002B0000002B0000002B0001002A0070
:1024C00000002A0000002A0000002A000100290064
:1024D0000000290000002900000029000000290058
:1024E000010028000000280000002800000028004B
:1024F000000028000100270000002700000027003E
:102500000000270000002700010026000000260030
:102510000000260000002600000026000100250023
:102520000000250000002500000025000000250017
:102530000000250001002400000024000000240009
:1025400000002400000024000100230000002300FC
:1025500000002300000023000000230000002300EF
:1025600000002300010022000000220000002200E1
:1025700000002200000022000000220001002100D3
:1025800000002100000021000000210000002100C7
:1025900000002100000021000100200000002000B8
:1025A00000002000000020000000200000002000AB
:1025B000000020000000200001001F0000001F009C
:1025C00000001F0000001F0000001F0000001F008F
:1025D00000001F0001001E0000001E0000001E0081
:1025E00000001E00000048656174696E6720646F1A
:1025F0006E652E0020573A0045256920257300336B
:1026000044205072696E7465722072656164792E1F
:10261000004D31343520533C696E6465783E206F3F
:102620007574206F662072616E67652028302D31C9
:10263000290A003344205072696E746572204F6617
:10264000662E00205A3A0020593A0020436F756EDA
:102650007420583A0020453A00205A3A0020593A4E
:1026600000583A0053657474696E6720547261763D
:10267000656C20416363656C65726174696F6E3A65
:10268000200053657474696E6720526574726163CB
:102690007420416363656C65726174696F6E3A2082
:1026A0000053657474696E67205072696E742041BE
:1026B0006363656C65726174696F6E3A200053657F
:1026C0007474696E67205072696E7420616E642044
:1026D00054726176656C20416363656C65726174E8
:1026E000696F6E3A2000205A0020590058002020BF
:1026F0004D61783A2000205A0020590058002020CF
:102700004D696E3A20004F6E20004F666600536F91
:10271000667420656E6473746F70733A2000290AC2
:10272000002062797465733B2063726320005365F7
:102730007474696E67732053746F72656420280027
:10274000202863616C63756C6174656429210A00DB
:1027500020213D2000454550524F4D2043524320FB
:102760006D69736D61746368202D202873746F72B6
:102770006564292000290A002062797465733B2072
:1027800063726320002073746F72656420736574D4
:1027900074696E677320726574726965766564200A
:1027A0002800204D61726C696E3D563339290A004C
:1027B00028454550524F4D3D00454550524F4D2004
:1027C00076657273696F6E206D69736D617463688D
:1027D0002000205A3A200020593A20004265642007
:1027E000583A200000060900FE0000000000010920
:1027F0000008FE000005080806000040F0C88888B0
:10280000987810050808060000C0F888888888882D
:10281000F80505050600012030F8302005080806F7
:1028200000002070F820202020E00509090600FFA4
:102830002070A8A8B8888870200509090600FFE064
:1028400080C0B0A8283028280509090600FFF8A88C
:102850008888888888A8F8050A0A0600FE20505053
:10286000505088A8A8887003030306000340A040C6
:102870005A00590058000920000000000000000024
:1028800000000000007FFFE00000000000000000EA
:10289000000000007000E0000000000000000000E8
:1028A00000000061F860000000000000000000006F
:1028B000000041F8200000000000000000000000BF
:1028C0000040F020000000000000000000000000B8
:1028D00040602000000000000000000000000058E0
:1028E00001A07F80000000000000004104005C6344
:1028F000A0FFC0000000000000002082005EF7A0E2
:10290000FFC0000000000000002082005EF7A0FF72
:10291000C0000000000000004104005C63A07F8054
:10292000000000000000008208005801A07F800025
:10293000000000000001041000406020FFC0000003
:10294000000000000104100040F020FFC000000063
:102950000000000082080041F820FFC000000000D5
:1029600000000041040061F8603F0000000000002A
:1029700000000000007000E01E00000000000000E9
:1029800001FFFF807FFFE00C00000000000000015D
:10299000FFFF8000000000000000000000000000B9
:1029A00000007FFFE00000000000000000000000C9
:1029B000007000E0000000000000000000000000C7
:1029C000630C6000000000000000000000000047F1
:1029D0000E200000000000000000000000004F0F6B
:1029E000200000000000000000000000005F0FA0B9
:1029F0000000000000000000000000005E07A07F53
:102A00008000000000000000410400406020FFC082
:102A10000000000000000020820040F020FFC00005
:102A200000000000000020820040F020FFC00000F5
:102A300000000000004104004060207F8000000092
:102A4000000000008208005E07A07F8000000000F8
:102A50000000010410005F0FA0FFC0000000000094
:102A600000010410004F0F20FFC000000000000014
:102A700000820800470E20FFC00000000000000098
:102A8000410400630C603F000000000000000000F3
:102A900000007000E01E0000000000000001FFFFC9
:102AA000807FFFE00C0000000000000001FFFF80BD
:102AB00000000048617264636F6465642044656669
:102AC00061756C742053657474696E6773204C6F04
:102AD000616465640A002823000088130000320046
:102AE0000000102700000000C8430000C843000099
:102AF00020410000C8410000C8420000C842000058
:102B0000C8430000BE4220204D383531205A005ABB
:102B10002D50726F6265204F666673657420286D54
:102B20006D293A0A0020440020490020204D33300E
:102B3000312050005049442073657474696E677386
:102B40003A0A0020460020420020480020204D3153
:102B500034352053004D6174657269616C2068657D
:102B60006174757020706172616D65746572733A1D
:102B70000A00205A0020204D343230205300417585
:102B8000746F20426564204C6576656C696E673AA7
:102B90000A00205A0020590020204D32303620589B
:102BA00000486F6D65206F66667365743A0A002091
:102BB0004500205A0020590020580020420020548F
:102BC0000020204D323035205300416476616E6321
:102BD00065643A20533C6D696E5F66656564726139
:102BE00074653E20543C6D696E5F74726176656CED
:102BF0005F66656564726174653E20423C6D696E16
:102C00005F7365676D656E745F74696D655F6D7325
:102C10003E20583C6D61785F78795F6A65726B3EE3
:102C2000205A3C6D61785F7A5F6A65726B3E204521
:102C30003C6D61785F655F6A65726B3E0A00205487
:102C40000020520020204D32303420500041636378
:102C5000656C65726174696F6E2028756E69747336
:102C60002F7332293A20503C7072696E745F616331
:102C700063656C3E20523C726574726163745F617F
:102C80006363656C3E20543C74726176656C5F6171
:102C90006363656C3E0A00204500205A00205900FD
:102CA00020204D3230312058004D6178696D756DAE
:102CB00020416363656C65726174696F6E2028756D
:102CC0006E6974732F7332293A0A00204500205A26
:102CD0000020590020204D3230332058004D6178BB
:102CE000696D756D20666565647261746573202811
:102CF000756E6974732F73293A0A00204500205AB3
:102D00000020590020204D3932205800537465703E
:102D1000732070657220756E69743A0A0020204D28
:102D20003230302044300A0020204D3230302044F0
:102D3000002044697361626C65640A0046696C61D5
:102D40006D656E742073657474696E67733A0020E4
:102D5000204D3134392043203B20556E6974732057
:102D6000696E2043656C736975730A0020204732D1
:102D700031202020203B20556E69747320696E201D
:102D80006D6D0A006265640A002C207379737465A6
:102D90006D2073746F70706564212048656174657F
:102DA000725F49443A200048656174696E67206625
:102DB00061696C65640048656174696E672066616D
:102DC000696C65640048656174696E672066616955
:102DD0006C65640048656174696E67206661696C42
:102DE000656400544845524D414C2052554E415760
:102DF000415900546865726D616C2052756E61773F
:102E00006179004D6F76652058004D6F76652059C9
:102E1000004D6F7665205A0045787472756465724E
:102E2000004D6F766520302E316D6D004D6F7665EB
:102E300020316D6D004D6F76652031306D6D004D28
:102E40006F76652061786973004578747275646582
:102E500072004D6F7665205A004D6F7665205900DF
:102E60004D6F766520580045787472756465720000
:102E70004D6F7665205A004D6F76652059004D6F75
:102E8000766520580050726570617265000046CF0B
:102E900011241FBECFEFD0E4DEBFCDBF12E0A0E013
:102EA000B1E0EAECFBEB01E00BBF02C007900D9232
:102EB000AC3EB107D9F72EE0ACEEB2E001C01D92F6
:102EC000AC3EB207E1F717E1C8E4D7E104C02197AF
:102ED000FE010E948EDDC734D107C9F70E9466C883
:102EE0000C94E3DD0C9400002F923F924F925F927E
:102EF0006F927F928F929F92AF92BF92CF92DF920A
:102F0000EF92FF920F931F93CF93DF93CDB7DEB76E
:102F1000CA57D1090FB6F894DEBF0FBECDBF0091DE
:102F2000BD0720E6029F800111240F5E1C4F809197
:102F3000A30480FF1AC0E3ECFFE084917F013FEF20
:102F4000E31AF30A811102C0780104C00E94924D75
:102F5000F701F3CFD7018D917D01882319F00E94ED
:102F6000924DF8CF8AE00E94924D81E090E09093DC
:102F70001C0780931B0710929204109291048FE318
:102F80008093950410929404109293041092060377
:102F9000109207031092080310920903F801808130
:102FA0000F5F1F4F8032D1F38E34B1F4818190EDE9
:102FB000980F9A3020F08D3211F08B3269F43296EE
:102FC000DF0131962C9120532A30D0F3CD01FC0142
:102FD000019620812032D9F3F0932307E093220752
:102FE0007F01BFEFEB1AFB0A10816AE270E0C701B4
:102FF0000E94ABDD009731F0FC0131978081803277
:10300000E1F311821D3429F0143519F0173409F059
:10301000CFC0F70180812FEFE21AF20A8032C9F3A4
:1030200080538A3008F0C4C0109395042091930413
:10303000309194044AE03196429FC001439F900D25
:103040001124DF0111972C91022E000C330B205319
:103050003109280F391F808180538A3060F3309303
:10306000940420939304DF0131968C918032D9F33C
:103070001D3449F00091220740919104509192042F
:1030800061E070E058C02E31310591F03CF42731F9
:10309000310571F02C31310569F70AC0253731054A
:1030A0004CF32737310524F0203A43E0340711F779
:1030B000B0939204A09391047BC0813209F445C07F
:1030C0009FEBB92EB80E89E1A82EAB1408F45EC0B0
:1030D000DF01FD01908111969032D9F3A0EDA90F87
:1030E000AA3008F047C04F01EB2CF12C6701A3E098
:1030F000D594C794AA95E1F7C6018A5F9C4F6C01ED
:103100008B2D8770DB0102C0AA0FBB1F8A95E2F7E7
:10311000CD01D6019C91892B8C9381149104A1F14E
:10312000801AC70184519D4FDC018C9280818154AB
:103130008A3188F5DF01FD0131968C918111BDCF77
:10314000509392044093910433C01D3409F0B8CFDA
:103150002032310509F0B4CFF0939204E09391044A
:1031600063E270E0CF010E94ABDD009709F1DC0162
:103170001C921EC0A3EDA90FA23008F4B4CF9B325D
:1031800011F00C94E030AFCF812CCBCF411551051D
:1031900069F6AD01CBCFDF0131969C9190539A3007
:1031A000D0F3CD01FC010196A081A032D9F3C2CFAA
:1031B000809195048D3411F40C94FD22843511F422
:1031C0000C947E30873411F00C94BF3080919304BE
:1031D000909194048C31910509F4C9C57CF4843034
:1031E00091053CF482309105CCF597FF2BC00C94EF
:1031F000D930049709F475C50C94D9308A329105F9
:1032000011F40C9411225CF48D31910511F40C949D
:10321000D8204E9711F40C94DC200C94D9308B35C7
:10322000910511F40C9464218C35910511F40C94E2
:1032300069218A35910511F00C94D9301092100350
:103240000C94D9308091B501882311F40C94D930B5
:103250000E9431700E9495680C94D9302091B5017C
:10326000222311F40C94D93011E0029709F010E0F8
:103270000E94317082E50E947A4D882309F430C1A2
:103280000E94184D6B017C0140906D0D50906E0DA9
:1032900060906F0D7090700D2091710D3091720DD6
:1032A0004091730D5091740D2EA33FA348A759A7C9
:1032B0008091380790913907A0913A07B0913B0768
:1032C0008AA79BA7ACA7BDA720913C0730913D07DB
:1032D00040913E0750913F072AAB3BAB4CAB5DABF7
:1032E00020E030E0A901C701B6010E9404D688237E
:1032F00009F4DDC4A30192016AA57BA58CA59DA557
:103300000E9404D681110DC02EA13FA148A559A548
:103310006AA97BA98CA99DA90E9404D6882309F4D7
:10332000C6C420E030E0A901C701B6010E9404D65E
:10333000881F8827881F18130BC080E090E0A0E842
:10334000BFE322968CAF9DAFAEAFBFAF22970AC04E
:1033500020E030E040E85FEB22962CAF3DAF4EAF6F
:103360005FAF2297A30192016AA57BA58CA59DA5BD
:103370000E9434DA6EAB7FAB88AF99AF2EA13FA12C
:1033800048A559A56AA97BA98CA99DA90E9434DAF0
:103390006AAF7BAF8CAF9DAF2EA93FA948AD59ADA9
:1033A000CA01B9010E946AD64B015C012AAD3BAD4E
:1033B0004CAD5DADCA01B9010E946AD69B01AC015A
:1033C000C501B4010E9435DA0E94E3DC6EA77FA735
:1033D00088AB99AB20E030E040E05FE30E946AD622
:1033E0004B015C01A7019601C701B6010E946AD694
:1033F0006B017C01A5019401C501B4010E946AD64C
:103400009B01AC01C701B6010E9434DA0E94E3DCE3
:103410009B01AC0122966CAD7DAD8EAD9FAD229728
:103420000E946AD64B015C012AA53BA54CA55DA56F
:10343000C301B2010E9435DA20E030E040E05FE3F2
:103440000E946AD66B017C016AAD7BAD8CAD9DADEF
:1034500090582EA53FA548A959A90E942FDB9B0192
:10346000AC01C501B4010E946AD69B01AC01C70141
:10347000B6010E9435DAA30192010E9434DA6B0191
:103480007C012AA93BA94CA95DA96EA17FA188A5B1
:1034900099A50E9435DA20E030E040E05FE30E9429
:1034A0006AD62B013C012EA53FA548A959A96EA9B2
:1034B0007FA988AD99AD0E942FDB9B01AC01C501AE
:1034C000B4010E946AD69B01AC01C301B2010E9403
:1034D00035DA2EA13FA148A559A50E9434DA14C0BF
:1034E00089E40E947A4D882329F00E94184D6B01CF
:1034F0007C0103C0C12CD12C76018AE40E947A4D54
:103500008823D9F00E94184D6AAB7BAB8CAB9DAB86
:1035100020E030E0A901C701B6010E9404D6811164
:103520001AC020E030E0A9016AA97BA98CA99DA955
:103530000E9404D681110FC0BAC320E030E0A90177
:10354000C701B6010E9404D6882309F4B0C31AAAA1
:103550001BAA1CAA1DAAD701C601B0588EA39FA3FF
:10356000A8A7B9A72AA93BA94CA95DA950582AA781
:103570003BA74CA75DA79C01AD01BC01CD010E94FA
:103580006AD64B015C012AA53BA54CA55DA5CA01E5
:10359000B9010E946AD69B01AC01C501B4010E9429
:1035A00035DA0E94E3DC62966CAF7DAF8EAF9FAFE1
:1035B000629780916D0D90916E0DA0916F0DB091FD
:1035C000700D8EA79FA7A8ABB9ABA7019601BC0150
:1035D000CD010E9435DA22966CAF7DAF8EAF9FAFE2
:1035E00022972091710D3091720D4091730D509181
:1035F000740D2EAB3FAB48AF59AF2AA93BA94CA9DC
:103600005DA96EA97FA988AD99AD0E9435DA26968D
:103610006CAF7DAF8EAF9FAF2697809138079091AA
:103620003907A0913A07B0913B072A968CAF9DAF1E
:10363000AEAFBFAF2A9722962CAD3DAD4EAD5FAD7C
:103640002297BC01CD010E9434DA6B017C012091EC
:103650003C0730913D0740913E0750913F072E9621
:103660002CAF3DAF4EAF5FAF2E9726962CAD3DAD44
:103670004EAD5FAD26972E966CAD7DAD8EAD9FADF8
:103680002E970E9434DA4B015C018091750D909168
:10369000760DA091770DB091780D6A968CAF9DAFA5
:1036A000AEAFBFAF6A979C01AD01609140077091CA
:1036B000410780914207909143070E9434DA6AAF34
:1036C0007BAF8CAF9DAF209144073091450740916F
:1036D00046075091470766962CAF3DAF4EAF5FAFA0
:1036E00066978091790D90917A0DA0917B0DB091A4
:1036F0007C0D6E968CAF9DAFAEAFBFAF6E97A7013E
:1037000096016EA17FA188A599A50E946AD62B017A
:103710003C01A50194016AA57BA58CA59DA50E94ED
:103720006AD69B01AC01C301B2010E9435DA2B01BC
:103730003C01A50194016EA17FA188A599A50E94D5
:103740006AD64B015C01A70196016AA57BA58CA5F1
:103750009DA50E946AD69B01AC01C501B4010E94DF
:1037600034DAA30192010E94B4DA6B017C0120E0FB
:1037700030E0A9010E9404D687FF0AC02BED3FE08C
:1037800049EC50E4C701B6010E9435DA6B017C01B7
:10379000112351F02BED3FE049EC50E4C701B60195
:1037A0000E9434DA6B017C0120E030E0A901C701FE
:1037B000B6010E9404D6811124C02A962CAD3DADDD
:1037C0004EAD5FAD2A976EA57FA588A999A90E94E5
:1037D00004D6811116C02E962CAD3DAD4EAD5FAD19
:1037E0002E976EA97FA988AD99AD0E9404D681114C
:1037F00008C06BEDC62E6FE0D62E69ECE62E60E4B5
:10380000F62E62962CAD3DAD4EAD5FAD6297C70111
:10381000B6010E946AD69B01AC010E946AD64B0198
:103820005C012AAD3BAD4CAD5DADCA01B9010E9452
:103830006AD69B01AC01C501B4010E9435DA0E9431
:10384000E3DC4B015C012FE632E143E85AE30E94DE
:1038500004D687FD28C2C501B4010E94D7DB0E94AF
:10386000A8DB7FAB6EAB672B21F421E030E03FABF0
:103870002EABAEA8BFA8B50180E090E00E9409D6AB
:103880004B015C019B01AC01C701B6010E942FDB1B
:103890006EA77FA788AB99ABA50194016AAD7BADFC
:1038A0008CAD9DAD0E942FDB62966CAF7DAF8EAF6D
:1038B0009FAF62976E962CAD3DAD4EAD5FAD6E97EE
:1038C00066966CAD7DAD8EAD9FAD66970E9434DA85
:1038D000A50194010E942FDB66966CAF7DAF8EAF81
:1038E0009FAF66972EA53FA548A959A9CA01B9015E
:1038F0000E946AD620E030E040E05FE30E946AD692
:103900009B01AC0160E070E080E89FE30E9434DA44
:103910006AAF7BAF8CAF9DAF6A962CAD3DAD4EAD1F
:103920005FAD6A9729873A874B875C876E968CAD27
:103930009DADAEADBFAD6E978D879E87AF87B88BBF
:103940006091560170915701072E000C880B990B5E
:103950000E940BD620916D0130916E0140916F0154
:10396000509170010E946AD62AE037ED43E25CE391
:103970000E946AD62A966CAF7DAF8EAF9FAF2A9712
:103980000E94B06E9B01AC0128533F4F4F4F5F4FD9
:103990002E962CAF3DAF4EAF5FAF2E974EA05FA0DF
:1039A00068A479A422242394312C59E1D52EAEA801
:1039B000BFA82A143B0409F432C10E9404C10E942A
:1039C000B06EDC01CB012E962CAD3DAD4EAD5FADA2
:1039D0002E97821B930BA40BB50BB7FD10C00E9452
:1039E000B06E9B01AC0128533F4F4F4F5F4F2E9657
:1039F0002CAF3DAF4EAF5FAF2E970E942766DA9493
:103A0000DD20E9F12AAD3BAD4CAD5DAD6AA57BA5EE
:103A10008CA59DA50E946AD64B015C012EA53FA5F1
:103A200048A959A9B201C3010E946AD6A50194010F
:103A30000E9435DA7B018C012AAD3BAD4CAD5DAD0A
:103A4000B201C3010E946AD64B015C012EA53FA5BD
:103A500048A959A96AA57BA58CA59DA50E946AD6EF
:103A60009B01AC01C501B4010E9434DA2B013C0179
:103A7000C701D8018AA79BA7ACA7BDA74FC0B101BA
:103A800080E090E00E9409D62EA53FA548A959A93B
:103A90000E946AD64B015C010E942ADB6B017C010B
:103AA000C501B4010E94D5DC4B015C01A701960160
:103AB0006EA17FA188A599A50E946AD62B013C0121
:103AC000A50194016AA97BA98CA99DA90E946AD627
:103AD0009B01AC01C301B2010E9435DA2B013C010C
:103AE000A50194016EA17FA188A599A50E946AD61F
:103AF0004B015C01A70196016AA97BA98CA99DA92C
:103B00000E946AD69B01AC01C501B4010E9434DA5F
:103B10006AA77BA78CA79DA739E1D32E9201A301A9
:103B200022966CAD7DAD8EAD9FAD22970E9435DAA9
:103B300069837A838B839C832AA53BA54CA55DA5CD
:103B400026966CAD7DAD8EAD9FAD26970E9435DA81
:103B50006D837E838F83988762962CAD3DAD4EAD8D
:103B60005FAD629769857A858B859C850E9435DA81
:103B700069877A878B879C8766962CAD3DAD4EAD65
:103B80005FAD66976D857E858F8598890E9435DA51
:103B90006D877E878F87988B8091C201882321F063
:103BA000CE0101960E94DE63C0900B0389819A8149
:103BB000AB81BC818E8B9F8BA88FB98F8D819E81AD
:103BC000AF81B8858A8F9B8FAC8FBD8F89859A8591
:103BD000AB85BC858E8F9F8FA8A3B9A3AE01425E33
:103BE0005F4FBE01665E7F4FCE0146960E94444500
:103BF0002A96ECACFDAC0EAD1FAD2A979E01235F5B
:103C00003F4FAE01425E5F4FBE01665E7F4FCE0109
:103C100046960E9415383FEF231A330AC8CEC0904B
:103C20000B038091380790913907A0913A07B09122
:103C30003B078E8B9F8BA88FB98F80913C0790910B
:103C40003D07A0913E07B0913F078A8F9B8FAC8FB5
:103C5000BD8F8091400790914107A0914207B0919C
:103C600043078E8F9F8FA8A3B9A3AE01425E5F4F1B
:103C7000BE01665E7F4FCE0146960E9444452A965D
:103C8000ECACFDAC0EAD1FAD2A9724E437E0AE01DD
:103C9000425E5F4FBE01665E7F4FCE0146960E9438
:103CA00015380E94D04B0E94874D0C94D930E9E919
:103CB000FEE084918F010F5F1F4F882321F00E9447
:103CC000924DF801F6CFE1E6F1E084918F010F5FAC
:103CD0001F4F882311F40C94D9300E94924DF801A3
:103CE000F4CF80E50E947A4D882329F00E94D44CBD
:103CF0006B017C0103C0C12CD12C760183E50E94AD
:103D00007A4D882361F00E94184D20E030E04AE7A8
:103D100054E40E946AD60E94A8DB6B017C010E94D9
:103D2000BDC20E94874D8091240790912507A091E4
:103D30002607B0912707C80ED91EEA1EFB1E8091E8
:103D40007201811105C060E087E791E00E94907FD9
:103D50000E94B06EDC01CB018C199D09AE09BF0930
:103D6000B7FD02C00C94D9300E942766F1CF0E94A3
:103D7000BDC280E00E94F6710E943F7311E0109373
:103D8000500188E50E944B4D382E89E50E944B4D2D
:103D9000082F8AE50E944B4D282E311004C00111D6
:103DA00004C0182705C0011102C010E001C0182F7F
:103DB0000E94C64B111105C0311003C0002309F445
:103DC00016C120E030E040E850E46091850D70912C
:103DD000860D8091870D9091880D0E9435DA609351
:103DE00040077093410780934207909343072091C7
:103DF000750D3091760D4091770D5091780D0E94A0
:103E000095DC18167CF419821A821B821C829E0192
:103E10002F5F3F4F40E457E061E77DE08DE69DE096
:103E20000E94E14A11110EC0311003C00111D9C026
:103E3000DEC0011107C080E090E00E947064112391
:103E4000A9F3CFC01092710D1092720D1092730DE4
:103E50001092740D10926D0D10926E0D10926F0DE8
:103E60001092700D0E948D4CE6EDFDE0B490BAA664
:103E7000EAECFDE0C590D590E590F490EEECFDE025
:103E800085909590A590B490A5019401C701B601C5
:103E90000E9495DC18162CF4A7019601C501B40107
:103EA00004C0A5019401C701B6010E942FDB6EA3D7
:103EB0007FA388A799A789E8682E8DE0782EF30163
:103EC00065917591859194912DE8422E2DE0522EA9
:103ED000F20125913591459154910E9404D687FFB6
:103EE00002C0F30101C0F2014590559065907490B5
:103EF0002EA13FA148A559A5CA01B9010E946AD6C1
:103F000020E030E040E85FE30E9435DA0E94E3DC25
:103F10009B01AC01C301B2010E946AD66AA37BA3D4
:103F20008CA39DA3E7EDFDE024912EA320E030E0DB
:103F300040EC5FE3C501B4010E946AD62B013C014D
:103F4000AEA06A2DAA0C770B880B990B0E940BD69A
:103F50009B01AC01C301B2010E946AD669837A83D6
:103F60008B839C8320E030E040EC5FE3C701B60127
:103F70000E946AD66B017C01BAA46B2DBB0C770B37
:103F8000880B990B0E940BD69B01AC01C701B601AF
:103F90000E946AD66E8B7F8B888F998F9E012E5DD3
:103FA0003F4F45E75DE0BE016F5F7F4FCE01469614
:103FB0000E94E14A10926C0D1092710D1092720DD8
:103FC0001092730D1092740D10926D0D10926E0D73
:103FD00010926F0D1092700D11112DCF31102BCF4B
:103FE00025CF81E090E00E947064111103C022206F
:103FF00009F4CFC080918D07882321F080918E072E
:1040000081111EC060E084EB91E00E94907FE3ECA0
:10401000FFE084918F010F5F1F4F882321F00E94E2
:10402000924DF801F6CFE3EAF1E084918F010F5F42
:104030001F4F882309F4ADC00E94924DF801F5CFBF
:104040000E948D4C40907D0D50907E0D60907F0DB4
:104050007090800D2091810D3091820D4091830DE3
:104060005091840D2EA33FA348A759A78091750DA9
:104070009091760DA091770DB091780D80934007C7
:1040800090934107A0934207B093430720E030E0AC
:1040900040EE52E4C301B2010E9435DA20E030E084
:1040A00048EF51E40E9435DA4B015C016093380718
:1040B0007093390780933A0790933B0720E030E0F4
:1040C00046EE52E46EA17FA188A599A50E9435DA3B
:1040D00020E030E040EA51E40E9434DA6B017C01D8
:1040E00060933C0770933D0780933E0790933F0792
:1040F000A3019201C501B4010E9434DA4B015C01B5
:104100002FE632E143E85AEB0E9495DC87FF02C0BC
:104110000C94EA3022E430E041E653E4C501B401F6
:104120000E9404D6181614F40C94EA302EA13FA174
:1041300048A559A5C701B6010E9434DA6B017C017C
:104140002FE632E143E85AEB0E9495DC87FF02C07C
:104150000C94EA3022E430E046E653E4C701B601AD
:104160000E9404D6181614F40C94EA3019821A82AC
:104170001B821C829E012F5F3F4F45E75DE06CE391
:1041800077E088E397E00E94E14A82E090E00E94B5
:1041900070640E948D4C8091620E809350010E9449
:1041A000257383E0809371010E94B7A20C94D930EB
:1041B0000E945F730C94D930C0906D0DD0906E0D3D
:1041C000E0906F0DF090700D88E50E947A4D81119E
:1041D00009C020E030E048EF51E4C701B6010E9479
:1041E00034DA02C00E94184D6E8B7F8B888F998FB6
:1041F000C090710DD090720DE090730DF090740D21
:1042000089E50E947A4D811109C020E030E040EA42
:1042100051E4C701B6010E9435DA02C00E94184D70
:104220006B017C0169837A838B839C834090810D31
:104230005090820D6090830D7090840D20917D0DC3
:1042400030917E0D40917F0D5091800D6E897F8958
:10425000888D998D0E9434DA4B015C012FE632E1A2
:1042600043E85AEB0E9495DC87FF02C00C94D930DA
:1042700022E430E042E453E4C501B4010E9404D6D4
:10428000181614F40C94D930A3019201C701B60199
:104290000E9434DA6B017C0124EF3DEF4FE951E4D9
:1042A0000E9495DC87FF02C00C94D93022E430E0F4
:1042B00046E653E4C701B6010E9404D6181614F46A
:1042C0000C94D9300C94093181E0809310030C9444
:1042D000D93085E40E947A4DB82E811102C00E9427
:1042E000BDC2B5EC8B2EB1E09B2E1DE6C12E1DE0AC
:1042F000D12E0CE2E02E07E0F02E00E010E0A12C21
:10430000D4018D914D010E947A4D8823F1F1F6017F
:104310002081318142815381E8962FAFE897E99659
:104320003FAFE997EA964FAFEA97EB965FAFEB970F
:104330000E94184DD6016D937D938D939C93139796
:10434000E8962FADE897E9963FADE997EA964FAD2D
:10435000EA97EB965FADEB9703301105B1F00E9441
:1043600034DA9B01AC01F701608171818281938114
:104370000E9435DAD7016D937D938D939C931397AB
:10438000C8010E94354CAA24A3940F5F1F4FB4E0CC
:10439000CB0ED11CE4E0EE0EF11C0430110509F047
:1043A000AFCFAA2019F00E948D4C37C0BB20A9F1D5
:1043B000C090790DD0907A0DE0907B0DF0907C0D3F
:1043C00020913508309136084091370850913808CF
:1043D000C701B6010E946AD60E94A2DC6093EA0D72
:1043E0007093EB0D8093EC0D9093ED0DC701B6012A
:1043F0000E94A1DB2FB7F8946093750E7093760E30
:104400008093770E9093780E2FBF1092DA0D109252
:10441000DB0D1092DC0D1092DD0D0E94B7A20C9402
:10442000D9308091B501882311F40C94D93089E4F6
:104430000E947A4D182F882321F00E94E44CF62E1A
:1044400001C0F12C8AE40E947A4D082F882331F0B4
:104450000E94E44CE62E111104C00BC0E12C112384
:10446000C9F0F2E0FF1510F00C942634E6EDF1E00F
:1044700005C0A2E0AA2EAE14C8F30CC084918F012F
:104480000F5F1F4F882311F40C94D9300E94924D76
:10449000F801F4CF0E94C64B112341F12091600D29
:1044A0003091610D4F2D4203B001439F700D1124D7
:1044B00080915C0D90915D0D680F791F072E000CA7
:1044C000880B990B0E940BD620917D0D30917E0DAB
:1044D00040917F0D5091800D0E9435DA609338072E
:1044E0007093390780933A0790933B07002341F17B
:1044F0002091620D3091630D5E2D5203B001539FE8
:10450000700D112420915E0D30915F0D620F731FAD
:10451000072E000C880B990B0E940BD62091810D61
:104520003091820D4091830D5091840D0E9435DAB7
:1045300060933C0770933D0780933E0790933F073D
:1045400080E50E944B4D8823A1F10E94084D8823ED
:1045500081F11123B1F020E030E048EF51E46091A7
:1045600038077091390780913A0790913B070E9474
:1045700035DA609338077093390780933A07909340
:104580003B070023B1F020E030E040EA51E46091C5
:104590003C0770913D0780913E0790913F070E9434
:1045A00034DA60933C0770933D0780933E07909305
:1045B0003F0786E40E947A4D8823D9F00E94184D67
:1045C0006B017C0120E030E0A9010E9495DC181607
:1045D00084F420E030E040E752E4C701B6010E94D5
:1045E0002FDB60936D0170936E0180936F01909348
:1045F00070010E9495680C94D93080919304909139
:1046000094048937910509F49BC60CF08FC0883655
:10461000910509F4F2C20CF057C08C34910509F4ED
:10462000D2C24CF58231910509F4B5C4BCF497FFB0
:1046300002C00C94D930823091050CF42AC1419704
:1046400011F00C94D93060E08AE192E00E94907FF2
:104650005E985E9815985E980C94D9308A329105D0
:1046600009F46DC28B34910509F4A9C24F9711F07A
:104670000C94D9308FC18335910509F487C47CF43B
:104680008135910509F47AC40CF07CC48D34910510
:1046900011F00C94D9300E948EAE0C94D93085352F
:1046A000910509F47CC40CF476C48C35910511F0A5
:1046B0000C94D93045ECC42E41E0D42E59E2E52EBD
:1046C00058E0F52E10E06FC48037910509F4A6C3B9
:1046D0009CF48C36910509F49DC33CF48A3691050F
:1046E00009F429C40CF4E8C345C48E36910509F4D5
:1046F000DBC20CF402C4EBC28537910509F469C52D
:1047000074F48237910509F4CEC40CF48BC383375B
:10471000910511F00C94D930E2EBF3E0CAC487376D
:10472000910509F4A3C50CF46AC504C68D32A1E055
:104730009A0709F4D9C60CF04CC08C3C910509F4D9
:104740000DC624F58E3B910509F4DBC374F4813961
:10475000910509F4FAC58B39910509F4CAC38C385F
:10476000910511F00C94D93089C3893C910509F465
:10477000EFC58B3C910509F4EEC5883C910511F01D
:104780000C94D9300E946AA20C94D9308C3D9105CA
:1047900009F431C67CF48E3C910509F4E5C50CF4AE
:1047A000E0C5833D910511F00C94D9300E94BAA068
:1047B0000C94D930823E910509F443C68C32E1E075
:1047C0009E0709F468C68D3D910511F00C94D9300F
:1047D0001FC6843AF1E09F0711F40C94E92D4CF5C3
:1047E000803931E0930711F40C94DE2D84F48F327C
:1047F00051E0950709F46AC70CF414C78336914059
:1048000011F00C94D930E9E9FEE00C94553082396E
:10481000E1E09E0711F40C94E52D14F40C94E12DC5
:104820008A39914011F00C94D9300E948AA00C94DE
:10483000D930853F31E0930711F40C940B309CF490
:104840008C3A51E0950711F40C941C2F843FA1E0A1
:104850009A0711F40C940830853A914011F00C94A9
:10486000D9300C94882E873FE1E09E0711F40C9418
:10487000113014F40C940E30833523E0920711F4B8
:104880000C941F30873E934011F40C946C300C94C0
:10489000D930A0909104B090920480E50E947A4DA6
:1048A000882359F00E94D44C6B017C0111E0672BE6
:1048B000682B692B31F410E004C010E0C12CD12C1E
:1048C000760183E50E947A4D8823F1F00E94184D0D
:1048D00020E030E04AE754E40E946AD60E94A8DB58
:1048E0006B017C01111112C0672B682B692B71F4CD
:1048F000A114B10459F0D5018C91882339F061E0FD
:10490000C5010E94AF7F07C0112391F360E087E0EB
:1049100092E00E94907F83E090E090931C07809348
:104920001B0781E08093DE070E94BDC20E94874D75
:10493000C114D104E104F104E9F0809124079091BD
:104940002507A0912607B0912707C80ED91EEA1E99
:10495000FB1E0E94B06EDC01CB018C199D09AE09D3
:10496000BF09B7FF13C08091DE07882379F00E944A
:104970002766EFCF8091DE07882319F00E94276613
:10498000F9CF60E085EF91E00E94907F1092DE0702
:104990000C94D93080910E0E90910F0E019719F45E
:1049A0000E94B06E08C06091180E7091190E80912F
:1049B0001A0E90911B0E0091140E1091150E20915D
:1049C000160E3091170E601B710B820B930B28EEA5
:1049D00033E040E050E00E94F8D98091100E9091B1
:1049E000110EA091120EB091130EBC01CD01620FF9
:1049F000731F841F951FFCE3CF2ED12CE12CF12CCB
:104A0000A70196010E94F8D9762E672ECA01B90136
:104A1000A70196010E94F8D96B017C01CA01B90176
:104A200028E130E040E050E00E94F8D94B015C0101
:104A3000C9016DE671E00E9447DD8E010F5F1F4FD7
:104A40006115710599F06F927F92DF92CF929F92DC
:104A50008F929F938F937F936F938BE492E09F93BA
:104A60008F931F930F930E949BD512C00097B1F0B4
:104A70006F927F92DF92CF929F928F929F938F93AC
:104A80008BE392E09F938F931F930F930E949BD58C
:104A90000FB6F894DEBF0FBECDBF36C081149104AF
:104AA000A104B10479F06F927F92DF92CF929F922E
:104AB0008F928FE292E09F938F931F930F930E94A8
:104AC0009BD5E6CFC114D104E104F10469F06F92E3
:104AD0007F92DF92CF9287E292E09F938F931F9312
:104AE0000F930E949BD5D4CF6F927F9283E292E086
:104AF0009F938F931F930F930E949BD50F900F90BE
:104B00000F900F900F900F9060E0C8010E94AF7F50
:104B1000E3ECFFE084917F019FEFE91AF90A882313
:104B200021F00E94924DF701F5CFB8018FE592E098
:104B30000E94CE9F8AE00E94924D0C94D93083E56A
:104B40000E947A4D882311F40C94D9300E94F44CC1
:104B5000E82E80E50E947A4D882311F40C94D93018
:104B60000E94E44C162FC62ED72ED7FE02C00C94FE
:104B7000D930E5EBF4E088E28E0F9491191729F013
:104B800031968E13FACF0C945F31E9E9FEE08491FF
:104B90008F010F5F1F4F882321F00E94924DF80173
:104BA000F6CFECE6F2E084918F010F5F1F4F882370
:104BB00011F40C94D9300E94924DF801F4CF0E9468
:104BC00056B00C94D93080910E0E90910F0E019733
:104BD00011F00C94D93082E090E090930F0E809306
:104BE0000E0E0E94B06E6093180E7093190E809393
:104BF0001A0E90931B0E0C94D93088E690E00E9418
:104C0000784E81110C94D9308091A30483FF02C0A7
:104C10000C94D93083E50E947A4D882309F440C072
:104C20000E94184D0E94A1DB7093E30E6093E20E88
:104C300080E00E9479BE0E94184D20E030E04AEAF0
:104C400052E40E9404D618163CF00E948EAE60E03A
:104C500082E892E00E94907F0E94184D20911D0EE4
:104C600030911E0E40911F0E5091200E0E9495DC37
:104C70001816B4F48AE492E09F938F9380910A030C
:104C800090E001969F938F938BE792E09F938F9391
:104C90001F920E943BB00FB6F894DEBF0FBECDBF8F
:104CA0000E94B8360C94D9308EE40E947A4D882345
:104CB00011F40C94D9300E94E44C60930F07709368
:104CC000100780931107909312070C94D93083E555
:104CD0000E947A4D882319F00E94F44C01C080E0B4
:104CE0008093A304E3ECFFE084918F010F5F1F4FDB
:104CF000882321F00E94924DF801F6CFE2EAF2E01B
:104D000084918F010F5F1F4F882321F00E94924DE5
:104D1000F801F6CF8091A3048823A1F1E4E9CE2E17
:104D2000E2E0DE2EE12CF12C20E08091A30490E063
:104D30000E2C02C0959587950A94E2F780FF17C064
:104D4000BB24B394B20E222319F08CE20E94924D40
:104D5000F60125913491F901849189010F5F1F4F6C
:104D6000882321F00E94924D9801F5CF2B2DFFEF63
:104D7000EF1AFF0A32E0C30ED11C45E0E416F1043D
:104D8000A1F643C0EEE9F2E084918F010F5F1F4F5F
:104D90008823D9F10E94924DF801F6CF8AE50E944E
:104DA0004B4D882311F40C9447300E94184D6B0131
:104DB0007C0120E030E040EA51EC0E9495DC87FF66
:104DC00002C00C94393020E030E040EA51E4C701E1
:104DD000B6010E9404D6181614F40C943930C0920F
:104DE0006501D0926601E0926701F092680180E06F
:104DF0000E94F59F60916501709166018091670145
:104E00009091680142E00E9469508AE00E94924DB0
:104E10000C94D930109200010C94D93089EA92E0B8
:104E20000E94AF6583E50E947A4D882369F00E9455
:104E3000F44C809344018D3310F40C94D9308CE3FE
:104E4000809344010C94D930E3ECFFE084918F010E
:104E50000F5F1F4F882321F00E94924DF801F6CF7B
:104E60004091440150E060E070E082EB92E00E94EB
:104E70005E9F8AE00E94924D0C94D9308091A304E9
:104E800083FF02C00C94D93083E50E947A4D8823B9
:104E900011F40C94D9300E94184D0E94A1DB6338A4
:104EA000710514F062E870E07093E10E6093E00E1B
:104EB0000E942EBE0C94D93089E690E00E94784E74
:104EC000811111C0E9EBF2E084918F010F5F1F4F58
:104ED000882321F00E94924DF801F6CF0E94A56F21
:104EE0008AE00E94924D10921C0710921B070C94AE
:104EF00054340E943CA60C94D9300E9466A40C94B1
:104F0000D9308091A30483FF02C00C94D93060E0B3
:104F10008AEC92E00E94907F83E50E947A4D8AABF2
:104F200081110C94763182E50E947A4D81110C94A6
:104F300076310C94D93083E50E947A4D882339F07C
:104F40000E94E44C8B016F3F710519F010F00FEFD8
:104F500010E080E50E947A4D811106C01093E50EA5
:104F60000093E40E0C94D9300E94F44C81110C94FF
:104F7000D930F4CF0E942DA60C94D9300E94DAA328
:104F80000C94D93010920F030C94D93081E08093A7
:104F90000F030C94D9300E948EA30C94D9300E9438
:104FA00076A30C94D930D6018D916D010E944B4DA2
:104FB000882309F46DC0133009F063C00E94184DB6
:104FC0004B015C0120E030E040EA51E40E9404D64D
:104FD00087FF4EC0A5019401609135087091360895
:104FE00080913708909138080E942FDB2B013C01FB
:104FF0009B01AC01609125087091260880912708DB
:10500000909128080E946AD660932508709326081C
:105010008093270890932808A3019201609161056D
:105020007091620580916305909164050E946AD633
:1050300060936105709362058093630590936405A6
:105040006091B0047091B1048091B2049091B30466
:105050000E9409D6A30192010E946AD60E94A8DB91
:105060006093B0047093B1048093B2049093B3043E
:105070008092350890923608A0923708B09238088E
:1050800007C00E94184DF701608371838283938368
:105090001F5FF4E0EF0EF11C143009F084CF0E9482
:1050A00016460C94D9300E94BDC20E94B7A20C943F
:1050B000D93084918F010F5F1F4F882321F00E9408
:1050C000924DF801F6CFE4EAF3E084918F010F5F8F
:1050D0001F4F882321F00E94924DF801F6CFEDE892
:1050E000F3E084918F010F5F1F4F882321F00E940E
:1050F000924DF801F6CFEDE7F3E084918F010F5F59
:105100001F4F882321F00E94924DF801F6CFECE664
:10511000F3E084918F010F5F1F4F882321F00E94DD
:10512000924DF801F6CFEBE5F3E084918F010F5F2C
:105130001F4F882321F00E94924DF801F6CFECE436
:10514000F3E084918F010F5F1F4F882321F00E94AD
:10515000924DF801F6CFE7E3F3E084918F010F5F02
:105160001F4F882321F00E94924DF801F6CFE1E213
:10517000F3E084918F010F5F1F4F882321F00E947D
:10518000924DF801F6CFECE0F3E084918F010F5FD0
:105190001F4F882321F00E94924DF801F6CFEFEEC9
:1051A000F2E084918F010F5F1F4F882321F00E944E
:1051B000924DF801F6CFE7EDF2E084918F010F5F99
:1051C0001F4F882311F40C94D9300E94924DF8019E
:1051D000F4CF60919104709192048091890D8111B6
:1051E0000C94D93042E450E082E791E00E94D4DD93
:1051F0000E94727F83E0809371010C94D93085E422
:105200000E944B4D882381F00E94084D882361F055
:10521000E3ECFFE084918F010F5F1F4F882321F0A3
:105220000E94924DF801F6CF81E40E944B4D8823F5
:1052300081F00E94084D882361F0EFE7F4E084914B
:105240008F010F5F1F4F882321F00E94924DF801BC
:10525000F6CF0091910410919204D8018D918D01A7
:10526000882309F4D2CD0E94924DF7CFEBE9F4E008
:1052700084918F010F5F1F4F882321F00E94924D70
:10528000F801F6CFE3E9F4E084918F010F5F1F4F3F
:10529000882321F00E94924DF801F6CF329B03C083
:1052A0000FE212E002C004E312E0F80181918F01E5
:1052B000882319F00E94924DF8CF8AE00E94924D07
:1052C000EBE8F4E084918F010F5F1F4F882321F0FA
:1052D0000E94924DF801F6CF339B03C00FE212E01B
:1052E00002C004E312E0D8018D918D01882319F0EA
:1052F0000E94924DF8CF8AE00E94924DE3E8F4E0DC
:1053000084918F010F5F1F4F882321F00E94924DDF
:10531000F801F6CF349B03C00FE212E002C004E3B1
:1053200012E0F80181918F01882309F46ECD0E946B
:10533000924DF7CF81E0809350018093620E39C780
:10534000109250011092620E34C70E94EFA331C731
:105350000E9445A22EC70E9423A22BC70E94BAA179
:1053600028C70E9450A125C795ECA92E91E0B92E1F
:105370002DE6C22E2DE0D22E31E9E32E37E0F32EBA
:1053800000E010E0D5018D915D010E944B4D882316
:1053900011F10E94184D2B013C01F7012081318150
:1053A000428153810E9434DA9B01AC01D6016D9198
:1053B0007D918D919C910E9435DAF6016083718315
:1053C00082839383D7014D925D926D927C92139765
:1053D000C8010E94354C0F5F1F4FB4E0CB0ED11CAB
:1053E000E4E0EE0EF11C0330110561F60E948D4CD5
:1053F0000E94B7A2DEC683E50E947A4D882309F495
:10540000D8C60E94E44C7093570160935601D1C6F0
:105410008DED90E00E94784E8111CBC683E50E940D
:105420007A4D882309F4C5C600910A0310E00E9452
:10543000E44C000F111FF801EC5AFE4F718360839A
:10544000B8C680E50E944B4D882309F4B2C60E947D
:10545000E44CF62EC62ED72E83E50E947A4D882383
:1054600021F00E94E44C8B0102C00FEF1FEFC80136
:105470000196039708F09DC6D7FC9BC6E5EBF4E0C8
:1054800088E28E0F9491F91609F493C631968E1323
:10549000F9CF0C942D3483E50E947A4D882319F0BE
:1054A0000E94E44C02C064E071E07F8B6E8B80E56B
:1054B0000E947A4D882339F00E94E44C6938F3E168
:1054C0007F0730F402C068EE73E07A83698304C01A
:1054D00088E893E19A838983BE016A5E7F4FCE019B
:1054E00001960E9407B065C685E40E947A4D81113D
:1054F00010C080E50E944B4D882391F00E94184D0A
:1055000060930F0170931001809311019093120129
:1055100007C00E94F44C882361F3E9E9FEE071C002
:1055200089E40E944B4D882381F00E94184D2CEA9B
:1055300035EC47E25EE30E946AD6609317017093F0
:1055400018018093190190931A0184E40E944B4D35
:10555000882381F00E94184D2CEA35EC47E25EE387
:105560000E942FDB60931301709314018093150147
:1055700090931601E3ECFFE084918F010F5F1F4FC2
:10558000882321F00E94924DF801F6CF40910F013F
:1055900050911001609111017091120185EE94E01B
:1055A0000E94989F2CEA35EC47E25EE36091170178
:1055B000709118018091190190911A010E942FDBBE
:1055C000AB01BC0181EE94E00E947B9F2CEA35EC9C
:1055D00047E25EE36091130170911401809115011F
:1055E000909116010E946AD6AB01BC018DED94E04A
:1055F0000E947B9F8AE00E94924DDBC50E94924DE3
:10560000F80184918F010F5F1F4F8111F7CF05E5DE
:1056100012E0D8018D918D01882309F4F6CB0E9408
:10562000924DF7CF83E50E944B4D182F882371F0E0
:105630000E94184D0E94A1DB70930A01609309013A
:1056400021E0672B09F020E020939E0480E50E9472
:105650004B4D882359F02091090130910A01232BE9
:1056600011F00E94084D80939E04A3C51111A1C59D
:10567000E3ECFFE084918F010F5F1F4F882321F03F
:105680000E94924DF801F6CF80919E04811103C0D3
:105690006EE372E002C061E372E08EEF94E00E947C
:1056A000CE9F6091090170910A018DEE94E00E94F5
:1056B000B59FE9EEF4E084918F010F5F1F4F8823BF
:1056C00009F477C50E94924DF801F5CF85E40E9458
:1056D0007A4D882321F00E94E44C8B0102C000E047
:1056E00010E083E40E947A4D882339F00E94E44C54
:1056F000E3967FAF6EAFE39706C0E5E0F0E0E39698
:10570000FFAFEEAFE39785E50E944B4DA8968FAFB4
:10571000A897882329F00E94084DA8968FAFA897D4
:1057200017FD07C0C12CD12CB6E1EB2EB3E4FB2E44
:1057300006C0C12CD12CACE8EA2EA2E4FA2E83E5F7
:105740000E947A4D882321F00E94184D6B017C0144
:10575000C701B6010E94A1DB0115110511F41092D9
:105760000A03072E000C880B990B0E940BD66EA71C
:105770007EAB8AAF9EAF0E94B06E4B015C01012BE5
:1057800019F406E612E00BC009E712E0D8018D918A
:105790008D01882309F439CB0E94924DF7CFF8018F
:1057A00081918F01882319F00E94924DF8CF8AE0F1
:1057B0000E94924D0E94C4BE8FE78093770581E0DE
:1057C00080930001AD968CAE9DAEAEAEBFAEAD97F0
:1057D000E7968CAE9DAEAEAEBFAEE79723961FAEFA
:1057E0002397F0E42796FFAF27972CE12B962FAF56
:1057F0002B9736E467963FAF67976B961FAE6B9714
:105800002F961FAE2F9763961FAE63976F961FAEAE
:105810006F97A7961CAE1DAE1EAE1FAEA797A396A0
:105820001CAE1DAE1EAE1FAEA397C12CD12C7601AF
:10583000FFE74F2E512C612C712C8FE790E0A0E0F8
:10584000B0E08AA79BA7ACA7BDA7E1961CAE1DAE92
:105850001EAE1FAEE19791E0A9969FAFA9971BAA34
:105860001AAA212C312C00E010E08091000188233D
:1058700009F49DC10E94B06E6EA37FA388A799A76B
:1058800080917505882309F4B3C00E9486BF2090DB
:105890001D0E30901E0E00911F0E1091200E9101D2
:1058A000A8016B966FAD6B972F967FAD2F97639680
:1058B0008FAD63976F969FAD6F970E9404D687FF59
:1058C0000CC06B962FAE6B972F963FAE2F976396BB
:1058D0000FAF63976F961FAF6F979101A801239643
:1058E0006FAD239727967FAD27972B968FAD2B977C
:1058F00067969FAD67970E9495DC181664F423960F
:105900002FAE239727963FAE27972B960FAF2B9757
:1059100067961FAF6797A996AFADA9972EA53EA929
:105920004AAD5EADB101C801AA2309F447C00E9487
:1059300095DC18160CF05CC04EA15FA168A579A596
:10594000481959096A097B09DB01CA018858934142
:10595000A109B109B7FD4CC08AA59BA5ACA5BDA501
:1059600084199509A609B709B595A79597958795BF
:1059700080937705E1964CAF5DAF6EAF7FAFE19757
:10598000BEA56B96BFAF6B97EEA92F96EFAF2F9783
:10599000FAAD6396FFAF63972EAD6F962FAF6F97FB
:1059A0008EA19FA1A8A5B9A5AD968CAF9DAFAEAFB6
:1059B000BFAFAD97A9961FAEA9971AC00E9404D693
:1059C00087FF16C08EA19FA1A8A5B9A5AD962CAD45
:1059D0003DAD4EAD5FADAD97821B930BA40BB50BE8
:1059E000AC01BD01485853416109710977FFC3C536
:1059F00020E030E040EA51E46EA57EA98AAD9EAD7C
:105A00000E9435DA9B01AC01B101C8010E9495DC0E
:105A1000181664F40BEC15E0F8018491882309F45E
:105A2000C8C30F5F1F4F0E94924DF6CF80E398EFDF
:105A3000AFEFBFEFE7962CAD3DAD4EAD5FADE79755
:105A4000821B930BA40BB50B2EA13FA148A559A512
:105A5000820F931FA41FB51FB7FD0FC00E94A56F33
:105A60008AE00E94924D8EA19FA1A8A5B9A5E796B4
:105A70008CAF9DAFAEAFBFAFE7978EA19FA1A8A59A
:105A8000B9A5880F991FAA1FBB1FAD962CAD3DADC0
:105A90004EAD5FADAD97821B930BA40BB50B881970
:105AA0009909AA09BB0981389F44A241B10560F058
:105AB0000DEA15E0F8018491882309F47AC30F5F99
:105AC0001F4F0E94924DF6CF2AA93BA9E3964EADF7
:105AD0005FADE397421753070CF066C0E0E5F5E0D1
