:100000000C94EC170C9416180C9416180C941618E3
:100010000C9416180C9416180C9416180C941618A8
:100020000C9416180C94AB610C9416180C941618BA
:100030000C9416180C94E9500C9416180C9416187D
:100040000C9416180C9459490C94DB590C941618FE
:100050000C94A3450C9416180C9416180C941618AE
:100060000C9416180C9416180C9416180C94161858
:100070000C9416180C9416180C9416180C94161848
:100080000C9416180C9416180C941618CC58CF58BB
:10009000C258C658E658E658D358D758DD58E158E4
:1000A0004A594F5954595E598C598C59685970594D
:1000B00078598259084AD73B3BCE016E84BCBFFDBC
:1000C000C12F3D6C74319ABD56833DDA3D00C77F28
:1000D00011BED9E4BB4C3E916BAAAABE00000080C1
:1000E0003F05A84CCDB2D44EB93836A9020C50B950
:1000F000918688083CA6AAAA2ABE000000803F007C
:100100004E414E494E495459494E46CDCCCC3D0AFC
:10011000D7233C17B7D13877CC2B329595E6241FDF
:10012000B14F0A000020410000C84200401C462098
:10013000BCBE4CCA1B0E5AAEC59D7420746F6F2096
:100140006C6F6E6720657874727573696F6E20705E
:10015000726576656E7465640A0020636F6C642056
:10016000657874727573696F6E2070726576656EEE
:100170007465640A0047322F47332062616420703F
:100180006172616D65746572730A00536C656570A8
:100190002E2E2E005A2070726F6265206F75742E9D
:1001A000206265640A005A2070726F6265206F7564
:1001B000742E2062656400473238205A20466F72E0
:1001C00062696464656E0A00473238205A20466FBF
:1001D0007262696464656E00205A3A200020593AC0
:1001E000200042656420583A200033442050726950
:1001F0006E7465722072656164792E005265737544
:100200006D696E67207072696E7400436C69636B10
:1002100020746F20726573756D652E2E2E004E6FE3
:10022000206D6F76652E00456E642066696C6520D2
:100230006C6973740A00426567696E2066696C6553
:10024000206C6973740A005344207072696E74697B
:100250006E67206279746520004E6F7420534420CD
:100260007072696E74696E670A0046696C65206415
:10027000656C657465643A0044656C6574696F6E9D
:10028000206661696C65642C2046696C653A2000C3
:100290006F70656E206661696C65642C2046696CC0
:1002A000653A20002569730025696D202569730072
:1002B0002569682025696D202569730025696420FA
:1002C0002569682025696D202569730025697920D5
:1002D000256964202569682025696D2025697300DA
:1002E0005072696E742074696D653A200050726FA7
:1002F0007465637465642050696E0A004B494C4C08
:1003000045442E20004D31313320530033442050DA
:1003100072696E746572204F66662E007A5F6D6931
:100320006E3A2000795F6D696E3A2000785F6D69E2
:100330006E3A20005265706F7274696E6720656E48
:100340006473746F70207374617475730A005365FD
:100350007474696E672054726176656C20416363C2
:10036000656C65726174696F6E3A200053657474D0
:10037000696E6720526574726163742041636365BE
:100380006C65726174696F6E3A20005365747469AC
:100390006E67205072696E7420416363656C65728C
:1003A0006174696F6E3A200053657474696E6720DA
:1003B0005072696E7420616E642054726176656C4F
:1003C00020416363656C65726174696F6E3A2000E9
:1003D000205A00205900580020204D61783A200012
:1003E000205A00205900580020204D696E3A200004
:1003F0004F6E20004F666600536F667420656E6412
:1004000073746F70733A200020643A0020693A00D8
:1004100020703A0043290A0061626C656420286DEF
:10042000696E2074656D702000436F6C6420657880
:10043000747275646573206172652000236465665B
:10044000696E65202044454641554C545F4B6420FD
:100450000023646566696E65202044454641554C1D
:10046000545F4B69200023646566696E65202044F3
:10047000454641554C545F4B702000504944204143
:1004800075746F74756E652066696E6973686564EE
:10049000212050757420746865206C617374204B42
:1004A000702C204B6920616E64204B6420636F6E5A
:1004B0007374616E74732066726F6D2062656C6F09
:1004C0007720696E746F20436F6E6669677572611D
:1004D00074696F6E2E680A00504944204175746F2C
:1004E00074756E65206661696C6564212074696D40
:1004F000656F75740A00504944204175746F7475B6
:100500006E65206661696C6564212054656D706557
:1005100072617475726520746F6F20686967680A0C
:1005200000204B643A2000204B693A2000204B7099
:100530003A20000A20436C61737369632050494478
:10054000200A002054753A2000204B753A200020E4
:100550006D61783A2000206D696E3A200020643A7F
:10056000200020626961733A2000426564204C6576
:1005700076656C696E6720004661696C65642074FD
:100580006F20656E61626C6520426564204C657603
:10059000656C696E670A004D65736820706F696EDF
:1005A000742063616E6E6F74206265207265736F74
:1005B0006C7665640A004D34323120696E636F7267
:1005C0007265637420706172616D65746572207507
:1005D000736167650A004F666673657473206170A6
:1005E000706C696564004572723A20546F6F2066C2
:1005F00061722100546F6F206661722066726F6DA8
:10060000207265666572656E636520706F696E74D1
:100610000A003A20007A5F6D696E3A20202D323050
:10062000207A5F6D61783A20203230005A204F6680
:100630006673657420004E6F2063617365206C697A
:100640006768740A0041637469766520457874723E
:10065000756465723A2000556E6B6E6F776E20631D
:100660006F6D6D616E643A2022004E6F204C696E92
:1006700065204E756D6265722077697468206368C5
:1006800065636B73756D2C204C617374204C696EBF
:10069000653A20004B494C4C45442E200053544FA2
:1006A000505045442E20005072696E74657220735C
:1006B000746F707065642064756520746F20657256
:1006C000726F72732E204669782074686520657297
:1006D000726F7220616E6420757365204D393939EF
:1006E00020746F20726573746172742E20285465B3
:1006F0006D706572617475726520697320726573BF
:1007000065742E2053657420697420616674657267
:100710002072657374617274696E67290A004E6F86
:1007200020436865636B73756D2077697468206C0E
:10073000696E65206E756D6265722C204C617374F4
:10074000204C696E653A2000636865636B73756D54
:10075000206D69736D617463682C204C6173742023
:100760004C696E653A20004C696E65204E756D626D
:100770006572206973206E6F74204C617374204C15
:10078000696E65204E756D6265722B312C204C614F
:100790007374204C696E653A20004D313130004D44
:1007A0003331004D383420582059205A2045005309
:1007B000442072656164206572726F720A00446F32
:1007C0006E65207072696E74696E672066696C650B
:1007D0000A0020496E76616C6964206578747275D0
:1007E0006465722000000061430000664300007AE7
:1007F00043000000000000000000000000205A3A02
:10080000200020593A200042656420583A200042D6
:10081000696C696E656172204C6576656C696E679E
:1008200020477269643A0A001000C90210012C01C5
:100830004001220170011801B0010E01F001040114
:100840005002FA00B002F0003003E600D003DC00F2
:100850009004D2007005C800A006BE000008B400D5
:10086000B009AA00D00BA000600E960060118C00A9
:100870000015820020197800C01D6E00A0226400BF
:10088000B0275A00902C500000314600E0343C0064
:1008900010383200903A2800603C1E00A03D140041
:1008A000803E0A00203F0000544845524D414C20F4
:1008B00052554E4157415900546865726D616C2024
:1008C00052756E61776179004572723A204D494EDA
:1008D00054454D5020424544004572723A204D49DE
:1008E0004E54454D50004D494E54454D5020747264
:1008F00069676765726564004572723A204D4158B8
:1009000054454D5020424544004572723A204D41B5
:100910005854454D50004D415854454D5020747227
:1009200069676765726564001FFFFFFFFFFFFF6077
:100930000000000001FF400000000000FF800000F8
:100940000000007F83CF00000C303F87FF80000C49
:10095000301F867980000C000F8C30C7838C30E705
:100960008C30CFC7CC31F38C30DCECEC33B98C302D
:10097000D86C6C33198C30D06C0C33198C30D86C2B
:100980000C33198C30DC6C0E3B198C30CF7C079FFC
:10099000198C30C77C038F194000000000000260F2
:1009A0000000000000061FFFFFFFFFFFF824F4D443
:1009B0003050C38E20C2A24017828B7011127A91E0
:1009C0000D816CD90AA861E108C7586607615143D7
:1009D000061E4B5D05C145A7041A411104093D9847
:1009E00003713931034036DB0265339102D4305450
:1009F00002802E1D02632CEE01752AC501B028A0CD
:100A000001102781018F2564012B244B01E0223442
:100A100001AC211F018D200D01801FFC00841EED03
:100A200000971DDF00B81CD200E61BC600201BBCCF
:100A300000641AB200B219A8000A19A0006A189935
:100A400000D117910040178B00B516840031167E37
:100A500000B31579003A157300C7146F0058146A73
:100A600000EE1366008813630025135E00C7125B57
:100A7000006C12570015125400C111510070114F33
:100A80000021114B00D61049008D1047004610443C
:100A90000002104200C00F4000800F3E00420F3C99
:100AA00000060F3B00CB0E3800930E37005C0E356E
:100AB00000270E3400F30D3200C10D3100900D30CF
:100AC00000600D2E00320D2D00050D2C00D90C2BD1
:100AD00000AE0C2900850C29005C0C2700350C2782
:100AE000000E0C2600E80B2400C40B2400A00B23EE
:100AF000007D0B23005A0B2100390B2100180B201D
:100B000000F80A1F00D90A1E00BB0A1E009D0A1D1C
:100B100000800A1D00630A1C00470A1B002C0A1BE8
:100B200000110A1A00F7091A00DD091900C4091991
:100B300000AB091900920917007B09180063091717
:100B4000004C09160036091600200916000A09157E
:100B500000F5081500E0081400CC081400B80814CB
:100B600000A4081400900813007D0812006B0813FD
:100B7000005808120046081200340811002308111A
:100B8000001208110001081100F0071000E0071022
:100B900000D0071000C0071000B0070F00A1071019
:100BA0000091070E0083070F0074070F0065070E02
:100BB0000057070E0049070E003B070D002E070ED9
:100BC0000020070D0013070D0006070D00F9060CA5
:100BD00000ED060D00E0060C00D4060C00C8060C63
:100BE00000BC060C00B0060C00A4060B0099060C15
:100BF000008D060B0082060B0077060B006C060BBF
:100C00000061060A0057060B004C060A0042060A5D
:100C10000038060A002E060A0024060A001A060AF0
:100C2000001006090007060A00FD050900F4050981
:100C300000EB050900E2050900D9050900D0050906
:100C400000C7050900BE050900B5050800AD050887
:100C500000A50509009C050800940508008C0508FE
:100C600000840508007C050800740508006C050771
:100C700000650508005D050700560508004E0507DC
:100C80000047050700400508003805070031050743
:100C9000002A050700230507001C050600160507A6
:100CA000000F0507000805060002050700FB040603
:100CB00000F5040700EE040600E8040600E204075D
:100CC00000DB040600D5040600CF040600C90406B4
:100CD00000C3040600BD040600B7040600B1040505
:100CE00000AC040600A6040600A00405009B040650
:100CF0000095040500900406008A0405008504059B
:100D000000800406007A04050075040500700405DF
:100D1000006B04050066040500610405005C040521
:100D20000057040500520405004D04050048040561
:100D300000430405003E0404003A040500350405A0
:100D400000300404002C04050027040400230405DB
:100D5000001E0404001A0404001604050011040413
:100D6000000D040400090405000404040000040448
:100D700000FC030400F8030400F4030400F003047F
:100D800000EC030400E8030400E4030400E00304AF
:100D900000DC030400D8030400D4030400D00304DF
:100DA00000CC030400C8030300C503030024F404BB
:100DB000D9201BC40C5C0E9804C4095F026507713E
:100DC00001F405F900FB04B30048048700C103697E
:100DD000005803550003034500BE023A0084023167
:100DE0000053022A002902250004022000E4011C0D
:100DF00000C8011900AF0117009801140084011305
:100E000000710110006101100051010E0043010D3D
:100E10000036010B002B010B0020010B001501090E
:100E2000000C01090003010800FB000800F30008A2
:100E300000EB000700E4000600DE000600D8000614
:100E400000D2000600CC000500C7000500C2000566
:100E500000BD000400B9000400B5000400B10004A6
:100E600000AD000400A9000400A5000300A20003D7
:100E7000009F0004009B00030098000300950002FF
:100E80000093000300900003008D0002008B00031C
:100E90000088000200860002008400030081000236
:100EA000007F0002007D0002007B0002007900024A
:100EB0000077000100760002007400020072000159
:100EC00000710002006F0002006D0001006C000262
:100ED000006A00010069000200670001006600016D
:100EE0000065000100640002006200010061000171
:100EF00000600001005F0002005D0001005C000175
:100F0000005B0001005A0001005900010058000177
:100F10000057000100560001005500010054000177
:100F20000053000000530001005200010051000175
:100F300000500001004F0001004E0000004E000173
:100F4000004D0001004C0001004B0000004B00016F
:100F5000004A00010049000100480000004800016B
:100F60000047000100460000004600010045000067
:100F7000004500010044000100430000004300015F
:100F80000042000000420001004100000041000159
:100F900000400001003F0000003F0001003E000053
:100FA000003E0001003D0000003D0001003C00004B
:100FB000003C0000003C0001003B0000003B000141
:100FC000003A0000003A0001003900000039000139
:100FD0000038000000380000003800010037000031
:100FE0000037000100360000003600000036000126
:100FF000003500000035000000350001003400001D
:101000000034000000340001003300000033000011
:101010000033000100320000003200000032000105
:1010200000310000003100000031000100300000FC
:101030000030000000300001002F0000002F0000F1
:10104000002F0000002F0001002E0000002E0000E5
:10105000002E0001002D0000002D0000002D0000DA
:10106000002D0001002C0000002C0000002C0000CE
:10107000002C0001002B0000002B0000002B0000C2
:10108000002B0001002A0000002A0000002A0000B6
:10109000002A0001002900000029000000290000AA
:1010A000002900000029000100280000002800009D
:1010B0000028000000280000002800010027000090
:1010C0000027000000270000002700000027000183
:1010D0000026000000260000002600000026000078
:1010E000002600010025000000250000002500006A
:1010F000002500000025000000250001002400005C
:10110000002400000024000000240000002400014E
:101110000023000000230000002300000023000043
:101120000023000000230000002300010022000033
:101130000022000000220000002200000022000027
:101140000022000100210000002100000021000019
:10115000002100000021000000210000002100010A
:1011600000200000002000000020000000200000FF
:1011700000200000002000000020000000200001EE
:10118000001F0000001F0000001F0000001F0000E3
:10119000001F0000001F0000001F0001001E0000D3
:1011A000001E0000001E0000001E0000004D38342C
:1011B00020582059205A2045006265640A002C20DE
:1011C00073797374656D2073746F7070656421201A
:1011D0004865617465725F49443A200048656174EE
:1011E000696E67206661696C656400486561746951
:1011F0006E67206661696C65640048656174696E3C
:1012000067206661696C65640048656174696E6732
:10121000206661696C6564000000210024002700DD
:101220002A0000002200250028002B0000002000DA
:101230002300260029000202020202020202040424
:10124000040404040404030303030303030301016C
:101250000101010101010102040810204080010286
:1012600004081020408001020408102040808040C3
:10127000201008040201000000010200090A000019
:101280000000040308070000000000000000000048
:10129000000000000000024B494C4C45442E200049
:1012A000202D20496E76616C6964206578747275B2
:1012B000646572206E756D62657220210A002020BF
:1012C000506C616E6E6572427566666572427974C5
:1012D00065733A20002046726565204D656D6F721A
:1012E000793A2000436F6D70696C65643A204D61F6
:1012F0007920313820323031370A00207C20417586
:1013000074686F723A20286E6F6E652C2064656673
:1013100061756C7420636F6E666967290A003230EC
:1013200031372D30352D30342031323A30300020F5
:101330004C61737420557064617465643A20006276
:1013400075676669782D312E312E780A004D6172ED
:101350006C696E0020536F66747761726520526508
:101360007365740A00205761746368646F67205264
:10137000657365740A002042726F776E206F757412
:101380002052657365740A002045787465726E6139
:101390006C2052657365740A00506F7765725570E2
:1013A0000A0073746172740A006572726F7220773A
:1013B000726974696E6720746F2066696C650A00D3
:1013C000456E6473746F7073202563202563202538
:1013D0006320256300205A3A0020593A0020583AE9
:1013E00000656E6473746F7073206869743A2000CE
:1013F000446F6E6520736176696E672066696C65FF
:101400002E0A004D32390045787472756465720099
:101410004D6F7665205A004D6F76652059004D6FEF
:1014200076652058005072657061726500496E697A
:1014300074616C697A65204D656D6F7279004D3508
:1014400030320A4D3530300A4D3530310052657337
:10145000746F7265206661696C73616665004C6FBC
:101460006164206D656D6F72790053746F726520D1
:101470006D656D6F72790046696C616D656E7400A3
:101480004D6F74696F6E0054656D7065726174752F
:101490007265004D61696E00507265686561742007
:1014A00041425320636F6E660050726568656174D7
:1014B00020504C4120636F6E66005049442D44001B
:1014C0005049442D44005049442D49005049442D71
:1014D00049005049442D50005049442D50002008E7
:1014E0002046616374002008204661637400200870
:1014F000204D6178002008204D6178002008204DA3
:101500006178002008204D696E002008204D696E2A
:10151000002008204D696E004F6666004F6E200067
:101520004175746F74656D700046616E20737065EF
:1015300065640046616E2073706565640042656491
:1015400000426564004E6F7A7A6C65004E6F7A7A5D
:101550006C6500436F6E74726F6C0053746F7265CC
:10156000206D656D6F7279004265640042656400AC
:101570004E6F7A7A6C65004E6F7A7A6C65004661C0
:101580006E2073706565640046616E2073706565DA
:10159000640054656D7065726174757265007C3CA1
:1015A0003E5E2B3D3F2F5B5D3B2C2A225C0062752B
:1015B00073793A2070617573656420666F72206973
:1015C0006E7075740A00627573793A207061757374
:1015D000656420666F7220757365720A00627573A8
:1015E000793A2070726F63657373696E670A004B96
:1015F000494C4C45442E20004B494C4C20636175AE
:1016000073656420627920746F6F206D7563682044
:10161000696E6163746976652074696D65202D203B
:1016200063757272656E7420636F6D6D616E643A7E
:101630002000506C6561736520726573657400509D
:1016400052494E5445522048414C54454400507232
:10165000696E7465722068616C7465642E206B69B4
:101660006C6C28292063616C6C6564210A00656ECE
:101670007175657565696E672022000000000000C5
:10168000000000000000005761726E696E673A202A
:10169000486F6D696E672042756D70204469766988
:1016A000736F72203C20310A000000A0400000A0AF
:1016B0004000000040000061430000664300007AE3
:1016C00043FFFFFF53442063617264206F6B0A0085
:1016D0006F70656E526F6F74206661696C65640A25
:1016E00000766F6C756D652E696E69742066616930
:1016F0006C65640A00534420696E697420666169F0
:101700006C0A006175746F25692E67004D323400D4
:101710004D32332025730057726974696E672074E7
:101720006F2066696C653A20006F70656E20666197
:10173000696C65642C2046696C653A20006F7065A1
:101740006E206661696C65642C2046696C653A2080
:101750000046696C652073656C65637465640A0096
:101760002053697A653A200046696C65206F706580
:101770006E65643A20006F70656E206661696C6505
:10178000642C2046696C653A20002066696C653AD5
:1017900020004E6F7720002220706F73002220708F
:1017A0006172656E743A2200535542524F55544946
:1017B0004E452043414C4C207461726765743A2257
:1017C000004B494C4C45442E2000747279696E6779
:1017D00020746F2063616C6C207375622D67636F7A
:1017E00064652066696C6573207769746820746F1E
:1017F0006F206D616E79206C6576656C732E204D5F
:101800004158206C6576656C2069733A00457272A8
:101810006F723A0020706F736974696F6E206F7514
:1018200074206F662072616E67652E0A003F5072E9
:101830006F62652000486F6D6520257325732573E1
:10184000206669727374002066697273740A005AA4
:101850000059005800486F6D65200052756E6E6922
:101860006E6720696E204452592D52554E206D6F7F
:1018700064650A00473239204175746F20426564FF
:10188000204C6576656C696E670A002842296163A1
:101890006B00284629726F6E7400285229696768A8
:1018A0007400284C29656674003F285629657262C9
:1018B0006F7365206C6576656C20697320696D7047
:1018C0006C61757369626C652028302D34292E0A8D
:1018D00000426164205A2076616C75650A004E6F83
:1018E0002062696C696E65617220677269640A00C2
:1018F000452569202573003344205072696E746554
:10190000722072656164792E002042403A002040C6
:101910003A00202F0020423A00202F0020543A00A5
:101920006F6B0048656174696E6720646F6E652E29
:10193000003F0A0020573A004525692025730033EF
:1019400044205072696E7465722072656164792EEC
:10195000005072656865617420504C412042656496
:10196000005072656865617420504C4120456E647A
:10197000005072656865617420504C41005072657A
:1019800070617265005072656865617420414253F0
:10199000204265640050726568656174204142535D
:1019A00020456E6400507265686561742041425341
:1019B0000050726570617265004732380A473239EB
:1019C00000473239004C6576656C206265640043DF
:1019D000616E63656C004D34323800507265686525
:1019E00061742041425300507265686561742050F3
:1019F0004C4100436F6F6C646F776E004D3834005C
:101A000044697361626C652073746570706572738C
:101A10000053657420686F6D65206F66667365742A
:101A200073004C6576656C2062656400473238004F
:101A30004175746F20686F6D65004D6F766520612C
:101A4000786973004D61696E004D6F7665205800AE
:101A50004D6F76652059004D6F7665205A004578A8
:101A6000747275646572004D6F766520302E316D2D
:101A70006D004D6F766520316D6D004D6F76652080
:101A800031306D6D004D6F7665206178697300456A
:101A900078747275646572004D6F7665205A004DDA
:101AA0006F76652059004D6F766520580025753A90
:101AB0002530327500253032753A253032750025D3
:101AC000756420253032753A25303275005A005938
:101AD0000058000920000000000000000000000085
:101AE00000007FFFE0000000000000000000000098
:101AF000007000E000000000000000000000000096
:101B000061F86000000000000000000000000041DB
:101B1000F82000000000000000000000000040F07D
:101B200020000000000000000000000000406020D5
:101B30000000000000000000000000005801A07F2D
:101B400080000000000000004104005C63A0FFC0B2
:101B5000000000000000002082005EF7A0FFC0002F
:101B60000000000000002082005EF7A0FFC000001F
:101B700000000000004104005C63A07F80000000C2
:101B8000000000008208005801A07F8000000000D3
:101B9000000001041000406020FFC00000000000B1
:101BA000000104100040F020FFC000000000000011
:101BB0000082080041F820FFC00000000000000083
:101BC00041040061F8603F000000000000000000D8
:101BD00000007000E01E0000000000000001FFFF98
:101BE000807FFFE00C0000000000000001FFFF808C
:101BF0000000000000000000000000000000007F66
:101C0000FFE0000000000000000000000000700085
:101C1000E0000000000000000000000000630C6015
:101C2000000000000000000000000000470E20003F
:101C300000000000000000000000004F0F20000026
:101C4000000000000000000000005F0FA000000086
:101C50000000000000000000005E07A07F80000080
:101C60000000000000410400406020FFC0000000B0
:101C70000000000020820040F020FFC000000000B3
:101C800000000020820040F020FFC00000000000A3
:101C900000004104004060207F8000000000000040
:101CA000008208005E07A07F8000000000000001A5
:101CB0000410005F0FA0FFC000000000000001043E
:101CC00010004F0F20FFC00000000000000082083D
:101CD00000470E20FFC0000000000000004104008B
:101CE000630C603F00000000000000000000007076
:101CF00000E01E0000000000000001FFFF807FFFE9
:101D0000E00C0000000000000001FFFF8000000068
:101D100000060900FE000000000001090008FE00A6
:101D20000005080806000040F0C88888987810056B
:101D30000808060000C0F88888888888F805050526
:101D40000600012030F83020050808060000207049
:101D5000F820202020E00509090600FF2070A8A82F
:101D6000B8888870200509090600FFE080C0B0A887
:101D7000283028280509090600FFF8A888888888DF
:101D800088A8F8050A0A0600FE205050505088A87E
:101D9000A8887003030306000340A0404572726FD9
:101DA000722077726974696E6720746F20454550A0
:101DB000524F4D210A00290A002062797465733B55
:101DC00020637263200053657474696E67732053D7
:101DD000746F726564202800202863616C63756CE1
:101DE0006174656429210A0020213D200045455089
:101DF000524F4D20435243206D69736D6174636887
:101E0000202D202873746F726564292000290A0030
:101E10002062797465733B206372632000207374C1
:101E20006F7265642073657474696E677320726580
:101E300074726965766564202800204D61726C6952
:101E40006E3D563338290A0028454550524F4D3DC6
:101E500000454550524F4D2076657273696F6E2074
:101E60006D69736D61746368200048617264636FAB
:101E70006465642044656661756C74205365747490
:101E8000696E6773204C6F616465640A0020746F2B
:101E90006F206C6F6E6720657874727573696F6EF2
:101EA0002070726576656E7465640A0020636F6CDD
:101EB0006420657874727573696F6E2070726576D0
:101EC000656E7465640A0020204D383531205A0053
:101ED0005A2D50726F6265204F66667365742028B4
:101EE0006D6D293A0A0020440020490020204D331E
:101EF00030312050005049442073657474696E6716
:101F0000733A0A0020460020420020480020204D5D
:101F10003134352053004D6174657269616C2068FD
:101F2000656174757020706172616D65746572733E
:101F30003A0A00205A0020204D343230205300410C
:101F400075746F20426564204C6576656C696E67B8
:101F50003A0A00205A0020590020204D3230362005
:101F60005800486F6D65206F66667365743A0A00A5
:101F7000204500205A00205900205800204200200F
:101F8000540020204D323035205300416476616E7C
:101F90006365643A20533C6D696E5F666565647283
:101FA0006174653E20543C6D696E5F747261766544
:101FB0006C5F66656564726174653E20423C6D6964
:101FC0006E5F7365676D656E745F74696D655F6D77
:101FD000733E20583C6D61785F78795F6A65726BFB
:101FE0003E205A3C6D61785F7A5F6A65726B3E2075
:101FF000453C6D61785F655F6A65726B3E0A0020E3
:10200000540020520020204D3230342050004163D3
:1020100063656C65726174696F6E2028756E697492
:10202000732F7332293A20503C7072696E745F616D
:102030006363656C3E20523C726574726163745FC9
:10204000616363656C3E20543C74726176656C5FBD
:10205000616363656C3E0A00204500205A002059E8
:102060000020204D3230312058004D6178696D7567
:102070006D20416363656C65726174696F6E2028C1
:10208000756E6974732F7332293A0A002045002057
:102090005A0020590020204D3230332058004D6125
:1020A00078696D756D20666565647261746573200D
:1020B00028756E6974732F73293A0A002045002031
:1020C0005A0020590020204D3932205800537465A1
:1020D00070732070657220756E69743A0A00202052
:1020E0004D3230302044300A0020204D3230302034
:1020F00044002044697361626C65640A0046696C3F
:10210000616D656E742073657474696E67733A00EF
:1021100020204D3134392043203B20556E697473A3
:1021200020696E2043656C736975730A0A0020206C
:10213000473231203B20556E69747320696E206DE3
:102140006D0A0A0043616E6E6F74206F70656E20B9
:1021500073756264697220006563686F3A0046694E
:102160006C2E204469612E0046696C2E2044696102
:102170002E004F6666004F6E20004520696E206D70
:102180006D3300436F6E74726F6C0043616E6E6FDF
:102190007420656E746572207375626469723A208A
:1021A00000022E2E000152656672657368004D6153
:1021B000696E004573746570732F6D6D004573749F
:1021C0006570732F6D6D005A73746570732F6D6D2C
:1021D000005A73746570732F6D6D00597374657058
:1021E000732F6D6D005973746570732F6D6D00588A
:1021F00073746570732F6D6D005873746570732FF1
:102200006D6D00412D74726176656C00412D7472A4
:102210006176656C00412D72657472616374004172
:102220002D7265747261637400416D6178204500A0
:10223000416D6178204500416D6178205A00416D03
:102240006178205A00416D6178205900416D6178B4
:10225000205900416D6178205800416D6178205807
:10226000005654726176206D696E00565472617624
:10227000206D696E005654726176206D696E00564D
:102280006D696E00566D696E00566D696E00566D13
:102290006178204500566D6178204500566D617863
:1022A000204500566D6178205A00566D6178205A9D
:1022B00000566D6178205A00566D6178205900569D
:1022C0006D6178205900566D6178205900566D6116
:1022D00078205800566D6178205800566D6178203E
:1022E000580056652D6A65726B0056652D6A6572D9
:1022F0006B0056652D6A65726B00567A2D6A6572A1
:102300006B00567A2D6A65726B0056792D6A65727C
:102310006B0056792D6A65726B0056792D6A65726D
:102320006B0056782D6A65726B0056782D6A65725F
:102330006B0056782D6A65726B00416363656C00B3
:10234000416363656C005A204F6666736574004391
:102350006F6E74726F6C0000060900FE0701920335
:102360002120FFFF08FF07FF000000060000010713
:102370000706020080808080800080030202060140
:1023800005A0A00507070600005050F850F850506F
:102390000507070600002078A07028F02005070731
:1023A000060000C0C8102040981805070706000066
:1023B0006090A040A89068020303060104C040801A
:1023C00003070706010020408080804020030707A4
:1023D0000601008040202020408005050506000100
:1023E00020A870A8200505050600012020F820205F
:1023F0000203030602FFC04080050101060003F846
:10240000020202060200C0C0050505060001081010
:10241000204080050707060000708888888888703B
:1024200003070706010040C040404040E0050707A1
:10243000060000708808708080F805070706000015
:10244000F81020100808F0050707060000103050AB
:1024500090F81010050707060000F880F0080888BB
:1024600070050707060000708080F08888700507F7
:1024700007060000F80810202020200507070600A6
:1024800000708888708888700507070600007088CB
:102490008878080870020505060200C0C000C0C0A8
:1024A0000206060602FFC0C000C0408004070706FF
:1024B000000010204080402010050303060002F8B1
:1024C00000F8040707060100804020102040800526
:1024D000070706000070880810200020050707067F
:1024E000000070880868A8A870050707060000703B
:1024F0008888F8888888050707060000F08888F033
:102500008888F00507070600007088808080887042
:10251000050707060000F08888888888F005070707
:10252000060000F88080F08080F8050707060000AC
:10253000F88080F0808080050707060000708880A2
:10254000B8888870050707060000888888F888889A
:102550008801070706020080808080808080050750
:1025600007060000381010101090600507070600DD
:10257000008890A0C0A09088050707060000808012
:1025800080808080F805070706000088D8A8888822
:1025900088880507070600008888C8A898888805E5
:1025A0000707060000708888888888700507070676
:1025B0000000F08888F08080800507070600007022
:1025C000888888A89068050707060000F08888F0CA
:1025D000A09088050707060000788080700808F042
:1025E000050707060000F820202020202005070707
:1025F000060000888888888888700507070600001C
:102600008888888888502005070706000088888801
:102610008888A85005070706000088885020508841
:1026200088050707060000888888502020200507B5
:1026300007060000F80810204080F803070706018D
:1026400000E08080808080E0050505060001804074
:10265000201008030707060100E02020202020E0CA
:10266000050303060004205088050101060000F858
:1026700002020206020580400505050600007008FA
:102680007888780507070600008080B0C88888F041
:1026900005050506000070808088700507070600A4
:1026A0000008086898888878050505060000708885
:1026B000F880700507070600003048E040404040C1
:1026C0000506060600FF708888780870050707066B
:1026D00000008080B0C88888880107070602008053
:1026E0000080808080800308080601FF20002020F1
:1026F0002020A040040707060000808090A0C0A012
:1027000090030707060100C04040404040E0050537
:1027100005060000D0A8A8A8A8050505060000B079
:10272000C8888888050505060000708888887005B7
:1027300006060600FFF08888F08080050606060081
:10274000FF788888780808050505060000B0C8806D
:10275000808005050506000070807008F0040707FA
:102760000600004040E040404030050505060000FE
:1027700088888898680505050600008888885020A4
:102780000505050600008888A8A85005050506006F
:102790000088502050880506060600FF8888887843
:1027A0000870050505060000F8102040F80307072B
:1027B000060100204040804040200107070602003B
:1027C0008080808080808003070706010080404071
:1027D00020404080050202060002689000000006CA
:1027E00000000000000600000000000600000000DD
:1027F00000060000000000060000000000060000C7
:1028000000000006000000000006000000000006B6
:1028100000000000000600000000000600000000AC
:102820000006000000000006000000000006000096
:102830000000000600000000000600000000000686
:10284000000000000006000000000006000000007C
:102850000006000000000006000000000006000066
:102860000000000600000000000600000000000656
:10287000000000000006000000000006000000004C
:102880000006000000000006000000000006000036
:102890000000000600000000000600000000000626
:1028A000000000000006000001070706020080008B
:1028B00080808080800507070600002070A8A0A8FF
:1028C0007020050707060000304040E04050A80592
:1028D000050506000088705070880507070600008F
:1028E000885020F820F82001070706020080808029
:1028F00000808080050808060000304820505020E5
:102900009060030101060107A0050707060000F813
:1029100088B8B8B888F805070706000170087888F5
:102920007800F80505050600012850A05028050389
:1029300003060001F80808020202060206408005AC
:102940000707060000F888A88898A8F8050101067E
:102950000006F80404040600036090906005070771
:102960000600002020F8202000F8040505060003DA
:1029700060902040F0030505060003E020E020E021
:1029800002020206020640800508080600FF888849
:10299000888898E88080050707060000789898786E
:1029A000181818020202060202C0C0020202060241
:1029B000FF408003050506000340C04040E00507D6
:1029C00007060001708888887000F8050505060074
:1029D00001A0502850A00507070600008890A858BD
:1029E000B808080507070600008890B848982038FE
:1029F000050808060000C040C048D8380808050788
:102A000007060000200020408088700508080600A6
:102A1000004020007088F88888050808060000102B
:102A200020007088F88888050808060000205000FB
:102A30007088F8888805080806000068900070888B
:102A4000F888880508080600005000708888F88813
:102A5000880508080600002050207088F88888053E
:102A600007070600003860A0B8E0A0B8050808060F
:102A700000FF7088808088702060050808060000CC
:102A8000402000F880F080F80508080600000810D3
:102A900000F880F080F8050808060000205000F8D3
:102AA00080F080F80507070600005000F880F080ED
:102AB000F8030808060100804000E0404040E003C1
:102AC0000808060100204000E0404040E0030808FC
:102AD00006010040A000E0404040E0030707060177
:102AE00000A000E0404040E00507070600007048F5
:102AF00048E848487005080806000068900088C843
:102B0000A8988805080806000040207088888888F2
:102B100070050808060000102070888888887005F5
:102B20000808060000205000708888887005080892
:102B30000600006890007088888870050808060004
:102B40000050007088888888700505050600018897
:102B5000502050880508080600FF1070A8A8A8A8F3
:102B60007040050808060000402088888888887022
:102B700005080806000010208888888888700508E5
:102B8000080600002050008888888870050808061C
:102B900000005000888888888870050808060000B2
:102BA00010208850202020200509090600FFC04081
:102BB000704848704040E00408080601FF609090AB
:102BC000A09090E0800508080600004020007008F2
:102BD00078887805080806000010200070087888BA
:102BE00078050808060000205000700878887805ED
:102BF00008080600006890007008788878050707C4
:102C00000600005000700878887805080806000063
:102C10002050207008788878050606060000D02825
:102C200078A0A8500506060600FF70808870206016
:102C30000508080600004020007088F8807005082C
:102C4000080600001020007088F88070050808064B
:102C500000002050007088F880700507070600000B
:102C600050007088F880700308080601008040005A
:102C700040C04040E003080806010020400040C07A
:102C80004040E003080806010040A00040C040406A
:102C9000E0030707060100A00040C04040E0050730
:102CA00007060000A040A0107888700508080600FC
:102CB00000689000B0C888888805080806000040B1
:102CC0002000708888887005080806000010200021
:102CD00070888888700508080600002050007088F9
:102CE0008888700508080600006890007088888849
:102CF0007005070706000050007088888870050579
:102D0000050600012000F800200507070600FF1057
:102D100070A8A8A870400508080600004020008898
:102D200088889868050808060000102000888888B0
:102D30009868050808060000205000888888986870
:102D4000050707060000500088888898680509096B
:102D50000600FF102000888888F80870040707061E
:102D600001FFC04060506040E00508080600FF50C9
:102D7000008888887808705072696E742061626F6C
:102D80007274656400496E69742E20534420636137
:102D90007264004E6F2053442063617264004D32B0
:102DA00031004368616E676520534420636172643B
:102DB000005072696E742066726F6D205344004D2E
:102DC00032310053746F70207072696E74005265F6
:102DD00073756D65207072696E74005061757365EE
:102DE000207072696E7400436F6E74726F6C005065
:102DF0007265706172650054756E6500496E666F2C
:102E00002073637265656E005A204F666673657441
:102E1000005A204F666673657400466C6F770046F3
:102E20006C6F770046616E20737065656400466163
:102E30006E207370656564004265640042656400DD
:102E40004E6F7A7A6C65004E6F7A7A6C65005370BB
:102E5000656564005370656564004D61696E00438B
:102E60004F4D4D554E49434154494F4E00445259E0
:102E700052554E004552524F525300494E464F0054
:102E80004543484F0042656420646F6E652E003FE5
:102E90000A0020573A004265642048656174696EF3
:102EA000672E00802E7B2E742E6D2E5F2E6F666631
:102EB0000044454255473A004D31343520533C6972
:102EC0006E6465783E206F7574206F662072616E47
:102ED00067652028302D31290A00205A3A002059F0
:102EE0003A0020436F756E7420583A0020453A002E
:102EF000205A3A0020593A00583A004649524D5754
:102F00004152455F4E414D453A4D61726C696E20AC
:102F10006275676669782D312E312E7820284769D1
:102F2000746875622920534F555243455F434F449F
:102F3000455F55524C3A68747470733A2F2F676925
:102F4000746875622E636F6D2F4D61726C696E4689
:102F500069726D776172652F4D61726C696E205078
:102F6000524F544F434F4C5F56455253494F4E3A80
:102F7000312E30204D414348494E455F545950450C
:102F80003A3344205072696E746572204558545229
:102F9000554445525F434F554E543A31205555499B
:102FA000443A63656465326132662D343161322D95
:102FB000343734382D396231322D6335356336324A
:102FC0006633363766660A00526573656E643A206A
:102FD000006F6B00D7E56DE511241FBECFEFD0E485
:102FE000DEBFCDBF13E0A0E0B1E0E8E6F9EE01E01E
:102FF0000BBF02C007900D92AE35B107D9F723E1A0
:10300000AEE5B3E001C01D92AB3BB207E1F717E1BB
:10301000CBEED7E104C02197FE010E9416F4CA3E10
:10302000D107C9F70E9481E10C94A7F40C94000029
:103030002F923F924F925F926F927F928F929F92C8
:10304000AF92BF92CF92DF92EF92FF920F931F93B6
:10305000CF93DF93CDB7DEB7C359D1090FB6F8943C
:10306000DEBF0FBECDBF8091250C20E6829FC00140
:1030700011248B55954F9093630C8093620C809133
:10308000380F80FF1BC0E8E5F1E284918F010F5FEC
:103090001F4F882321F00E94AE3FF801F6CF009128
:1030A000620C1091630CD8018D918D01882319F069
:1030B0000E94AE3FF8CF8AE00E94AE3FE091620CE2
:1030C000F091630C8081803231F43196F093630C7F
:1030D000E093620CF3CF8E3469F01091620C009192
:1030E000630C6AE270E0812F902F0E946FF40097CA
:1030F00021F52AC0818190ED980F9A3010F08D3221
:1031000061F73296F093630CE093620CE091620CED
:10311000F091630C808180538A3010F43196F2CFA5
:10312000E091620CF091630C80818032B1F63196AF
:10313000F093630CE093620CF3CFFC013196829123
:10314000803231F08A3221F0A12FB02F9D9102C040
:103150001082F5CFFD01808111968032D9F3805322
:103160008A3020F0E8E5F1E20C94C433E12CF12C34
:103170002AE02E9DB0012F9D700D11247B01B0E33C
:10318000EB1AF1088191E80EF11C87FDFA94808119
:1031900080538A3070F38F013196D8018C91803240
:1031A000D1F3109368030093670321E030E030937C
:1031B000610C2093600C9D3411F40C94832394359E
:1031C00011F40C945733973411F00C946F33BCE125
:1031D000EB16F10409F44AC790F4F4E0EF16F10499
:1031E00038F480911C0122E0E216F10458F136C156
:1031F00034E0E316F10409F4FBC60C94BB334AE552
:10320000E416F10411F40C94C12270F48DE1E81677
:10321000F10411F40C9438229EE1E916F10411F442
:103220000C943C220C94BB33ABE5EA16F10411F488
:103230000C94C522BCE5EB16F10411F40C94CA22DF
:103240000C94BB33882311F40C94BB330E94B18BD4
:1032500080915501882321F088E79CE00E949275B7
:103260000E94693F8091380F83FD9BC0C090840C01
:10327000D090850CE090860CF090870C2091800A0D
:103280003091810A4091820A5091830AC701B601A8
:103290000E948CEC882309F484C08091330F811143
:1032A0003CC06091C20E7091C30E8091C40E90918B
:1032B000C50E0E9429F2072E000C880B990B0E9464
:1032C00093EC209156013091570140915801509153
:1032D00059010E948CEC87FF20C0C092800AD092D6
:1032E000810AE092820AF092830AE8E5F1E2849191
:1032F0008F010F5F1F4F882321F00E94AE3FF8011E
:10330000F6CFEAE5F1E084918F010F5F1F4F88232C
:1033100021F00E94AE3FF801F6CFC090840CD0900F
:10332000850CE090860CF090870C2091800A3091FB
:10333000810A4091820A5091830AC701B6010E9416
:10334000BCF00E9429F297FF07C090958095709578
:1033500061957F4F8F4F9F4F693C710581059105A6
:1033600004F1C092800AD092810AE092820AF0921F
:10337000830AE8E5F1E284918F010F5F1F4F8823F4
:1033800021F00E94AE3FF801F6CFEBE3F1E084912B
:103390008F010F5F1F4F882321F00E94AE3FF8017D
:1033A000F6CF2091780C3091790C40917A0C5091A5
:1033B0007B0C6091740A7091750A8091760A9091E5
:1033C000770A0E948CEC81111DC020917C0C3091F9
:1033D0007D0C40917E0C50917F0C6091780A709129
:1033E000790A80917A0A90917B0A0E948CEC811173
:1033F00009C06091000170910101809102019091DA
:10340000030126C06091B7017091B801072E000C2E
:10341000880B990B0E9493EC2091000130910101DF
:1034200040910201509103010E94F2EC2AE037ED35
:1034300043E25CE30E94F2EC2091FC12222341F073
:103440002FEF3FEF4FEF5FEF0E946A7A0C94BB3390
:103450000E947F3C0E94753C0C94BB33882311F47E
:103460000C94BB3311E0E2E0EE16F10409F010E039
:103470000E94B18B82E50E94DA3C882309F45CC18A
:103480000E943F3D6B017C014090740A5090750A88
:103490006090760A7090770A2091780A3091790AC4
:1034A00040917A0A50917B0A23962CAF3DAF4EAFE4
:1034B0005FAF23978091780C9091790CA0917A0C52
:1034C000B0917B0C27968CAF9DAFAEAFBFAF279767
:1034D00020917C0C30917D0C40917E0C50917F0CA2
:1034E0002F962CAF3DAF4EAF5FAF2F9720E030E06F
:1034F000A901C701B6010E948CEC882309F45EC5BE
:10350000A301920127966CAD7DAD8EAD9FAD27973F
:103510000E948CEC811111C023962CAD3DAD4EADB7
:103520005FAD23972F966CAD7DAD8EAD9FAD2F9780
:103530000E948CEC882309F441C520E030E0A90109
:10354000C701B6010E948CEC881F8827881F1813BA
:103550000BC080E090E0A0E8BFE36B968CAF9DAF1E
:10356000AEAFBFAF6B970AC020E030E040E85FEB42
:103570006B962CAF3DAF4EAF5FAF6B97A30192013F
:1035800027966CAD7DAD8EAD9FAD27970E94BCF0A8
:1035900063966CAF7DAF8EAF9FAF639723962CADD4
:1035A0003DAD4EAD5FAD23972F966CAD7DAD8EAD2D
:1035B0009FAD2F970E94BCF067966CAF7DAF8EAF2A
:1035C0009FAF679763962CAD3DAD4EAD5FAD6397F2
:1035D000CA01B9010E94F2EC4B015C0167962CAD67
:1035E0003DAD4EAD5FAD6797CA01B9010E94F2ECE7
:1035F0009B01AC01C501B4010E94BDF00E946BF3B8
:103600002B966CAF7DAF8EAF9FAF2B9720E030E055
:1036100040E05FE30E94F2EC4B015C01A7019601E0
:10362000C701B6010E94F2EC6B017C01A501940177
:10363000C501B4010E94F2EC9B01AC01C701B601C7
:103640000E94BCF00E946BF39B01AC016B966CADC9
:103650007DAD8EAD9FAD6B970E94F2EC4B015C018E
:1036600027962CAD3DAD4EAD5FAD2797C301B2019E
:103670000E94BDF020E030E040E05FE30E94F2EC09
:103680006B017C0167966CAD7DAD8EAD9FAD67978C
:1036900090582B962CAD3DAD4EAD5FAD2B970E9453
:1036A000B7F19B01AC01C501B4010E94F2EC9B0192
:1036B000AC01C701B6010E94BDF0A30192010E94B6
:1036C000BCF06B017C012F962CAD3DAD4EAD5FADD6
:1036D0002F9723966CAD7DAD8EAD9FAD23970E9445
:1036E000BDF020E030E040E05FE30E94F2EC2B010F
:1036F0003C012B962CAD3DAD4EAD5FAD2B97639647
:103700006CAD7DAD8EAD9FAD63970E94B7F19B010F
:10371000AC01C501B4010E94F2EC9B01AC01C301F4
:10372000B2010E94BDF023962CAD3DAD4EAD5FAD14
:1037300023970E94BCF014C089E40E94DA3C8823DD
:1037400029F00E943F3D6B017C0103C0C12CD12CAC
:1037500076018AE40E94DA3C8823F9F00E943F3D1A
:103760002F966CAF7DAF8EAF9FAF2F9720E030E0EC
:10377000A901C701B6010E948CEC81111EC020E096
:1037800030E0A9012F966CAD7DAD8EAD9FAD2F972A
:103790000E948CEC811111C011C420E030E0A9011D
:1037A000C701B6010E948CEC882309F407C42F9648
:1037B0001CAE1DAE1EAE1FAE2F97D701C601B0586E
:1037C00023968CAF9DAFAEAFBFAF23972F962CAD96
:1037D0003DAD4EAD5FAD2F97505827962CAF3DAF06
:1037E0004EAF5FAF27979C01AD01BC01CD010E9498
:1037F000F2EC4B015C0127962CAD3DAD4EAD5FADBB
:103800002797CA01B9010E94F2EC9B01AC01C501E6
:10381000B4010E94BDF00E946BF3A7966CAF7DAF20
:103820008EAF9FAFA7978091740A9091750AA0916F
:10383000760AB091770A2B968CAF9DAFAEAFBFAF33
:103840002B97A7019601BC01CD010E94BDF06B969C
:103850006CAF7DAF8EAF9FAF6B972091780A3091A0
:10386000790A40917A0A50917B0A63962CAF3DAF5A
:103870004EAF5FAF63972F962CAD3DAD4EAD5FADB4
:103880002F9763966CAD7DAD8EAD9FAD63970E9413
:10389000BDF0AF966CAF7DAF8EAF9FAFAF9780910D
:1038A000780C9091790CA0917A0CB0917B0C6F966A
:1038B0008CAF9DAFAEAFBFAF6F976B962CAD3DADEC
:1038C0004EAD5FAD6B97BC01CD010E94BCF06B01AA
:1038D0007C0120917C0C30917D0C40917E0C5091AC
:1038E0007F0CA3962CAF3DAF4EAF5FAFA397AF96C3
:1038F0002CAD3DAD4EAD5FADAF97A3966CAD7DAD3C
:103900008EAD9FADA3970E94BCF04B015C018091EE
:103910007C0A90917D0AA0917E0AB0917F0AE3967D
:103920008CAF9DAFAEAFBFAFE3979C01AD0160918F
:10393000800C7091810C8091820C9091830C0E947C
:10394000BCF067966CAF7DAF8EAF9FAF679720914D
:10395000840C3091850C4091860C5091870CAB966D
:103960002CAF3DAF4EAF5FAFAB978091800A909187
:10397000810AA091820AB091830AE7968CAF9DAF2D
:10398000AEAFBFAFE797A701960123966CAD7DADB3
:103990008EAD9FAD23970E94F2EC2B013C01A50157
:1039A000940127966CAD7DAD8EAD9FAD27970E949B
:1039B000F2EC9B01AC01C301B2010E94BDF02B01EE
:1039C0003C01A501940123966CAD7DAD8EAD9FADFC
:1039D00023970E94F2EC4B015C01A7019601279608
:1039E0006CAD7DAD8EAD9FAD27970E94F2EC9B0133
:1039F000AC01C501B4010E94BCF0A30192010E9478
:103A00003CF16B017C0120E030E0A9010E948CECCC
:103A100087FF0AC02BED3FE049EC50E4C701B60137
:103A20000E94BDF06B017C01112351F02BED3FE0B2
:103A300049EC50E4C701B6010E94BCF06B017C0167
:103A400020E030E0A901C701B6010E948CEC811191
:103A50002AC06F962CAD3DAD4EAD5FAD6F972B96E6
:103A60006CAD7DAD8EAD9FAD2B970E948CEC81111E
:103A70001AC0A3962CAD3DAD4EAD5FADA397639636
:103A80006CAD7DAD8EAD9FAD63970E948CEC8111C6
:103A90000AC02BED3FE049EC50E4C701B6010E949B
:103AA000BDF06B017C01A7962CAD3DAD4EAD5FAD79
:103AB000A797C701B6010E94F2EC9B01AC010E94DE
:103AC000F2EC4B015C0167962CAD3DAD4EAD5FADA8
:103AD0006797CA01B9010E94F2EC9B01AC01C501D4
:103AE000B4010E94BDF00E946BF34B015C012FE614
:103AF00032E143E85AE30E948CEC87FD5BC2C501CA
:103B0000B4010E945FF20E9430F261967FAF6EAF07
:103B10006197DB01AB2B31F4E1E0F0E06196FFAFA0
:103B2000EEAF619761962EAD3FAD6197B90180E030
:103B300090E00E9491EC4B015C019B01AC01C7013C
:103B4000B6010E94B7F12B966CAF7DAF8EAF9FAFE1
:103B50002B97A501940167966CAD7DAD8EAD9FADA1
:103B600067970E94B7F1A7966CAF7DAF8EAF9FAFFE
:103B7000A797E7962CAD3DAD4EAD5FADE797AB9601
:103B80006CAD7DAD8EAD9FADAB970E94BCF0A50135
:103B900094010E94B7F1AB966CAF7DAF8EAF9FAF33
:103BA000AB972B962CAD3DAD4EAD5FAD2B97CA01BB
:103BB000B9010E94F2EC20E030E040E05FE30E94B7
:103BC000F2EC9B01AC0160E070E080E89FE30E94B2
:103BD000BCF067966CAF7DAF8EAF9FAF6797E396F3
:103BE0008CAD9DADAEADBFADE39789879A87AB87AE
:103BF000BC87E7962CAD3DAD4EAD5FADE7972D8709
:103C00003E874F87588B6091B7017091B801072E9E
:103C1000000C880B990B0E9493EC209100013091CD
:103C2000010140910201509103010E94F2EC2AE04F
:103C300037ED43E25CE30E94F2EC6F966CAF7DAF30
:103C40008EAF9FAF6F970E94CF599B01AC01285355
:103C50003F4F4F4F5F4FA3962CAF3DAF4EAF5FAF7F
:103C6000A3974FAC21965FAC219722966FAC229719
:103C700023967FAC239722242394312CD12C619658
:103C80008EAD9FAD61972816390609F44FC10E9489
:103C9000FB4E0E94CF59DC01CB01A3962CAD3DAD6C
:103CA0004EAD5FADA397821B930BA40BB50BB7FD75
:103CB00010C00E94CF599B01AC0128533F4F4F4F7A
:103CC0005F4FA3962CAF3DAF4EAF5FAFA3970E945F
:103CD0003078D39438E13D150CF44BC067962CAD89
:103CE0003DAD4EAD5FAD679727966CAD7DAD8EADAA
:103CF0009FAD27970E94F2EC4B015C012B962CADF7
:103D00003DAD4EAD5FAD2B97B201C3010E94F2EC09
:103D1000A50194010E94BDF07B018C0167962CAD3A
:103D20003DAD4EAD5FAD6797B201C3010E94F2ECAD
:103D30004B015C012B962CAD3DAD4EAD5FAD2B978D
:103D400027966CAD7DAD8EAD9FAD27970E94F2ECAE
:103D50009B01AC01C501B4010E94BCF02B013C01E8
:103D6000C701D80127968CAF9DAFAEAFBFAF2797E5
:103D70005AC0B10180E090E00E9491EC2B962CADEE
:103D80003DAD4EAD5FAD2B970E94F2EC4B015C0157
:103D90000E94B2F16B017C01C501B4010E945DF388
:103DA0004B015C01A701960123966CAD7DAD8EADF4
:103DB0009FAD23970E94F2EC2B013C01A5019401D9
:103DC0002F966CAD7DAD8EAD9FAD2F970E94F2EC1E
:103DD0009B01AC01C301B2010E94BDF02B013C016B
:103DE000A501940123966CAD7DAD8EAD9FAD23975B
:103DF0000E94F2EC4B015C01A70196012F966CAD7D
:103E00007DAD8EAD9FAD2F970E94F2EC9B01AC0172
:103E1000C501B4010E94BCF027966CAF7DAF8EAF98
:103E20009FAF2797D12C9201A3016B966CAD7DAD0E
:103E30008EAD9FAD6B970E94BDF069837A838B83B3
:103E40009C8327962CAD3DAD4EAD5FAD2797AF96C9
:103E50006CAD7DAD8EAD9FADAF970E94BDF06D8313
:103E60007E838F839887A7962CAD3DAD4EAD5FAD19
:103E7000A79769857A858B859C850E94BDF06987A7
:103E80007A878B879C87AB962CAD3DAD4EAD5FADF1
:103E9000AB976D857E858F8598890E94BDF06D8773
:103EA0007E878F87988B80915501882321F0CE01E2
:103EB00001960E949275C090610389819A81AB81BD
:103EC000BC8188A399A3AAA3BBA38D819E81AF8146
:103ED000B8858CA39DA3AEA3BFA389859A85AB8526
:103EE000BC8588A799A7AAA7BBA7AE01485D5F4F6D
:103EF000BE016C5D7F4FCE0180960E949BB36F9692
:103F0000ECACFDAC0EAD1FAD6F979E01235F3F4F34
:103F1000AE01485D5F4FBE016C5D7F4FCE01809664
:103F20000E9468A64FEF241A340AA9CEC0906103FC
:103F30008091780C9091790CA0917A0CB0917B0CC7
:103F400088A399A3AAA3BBA380917C0C90917D0C1C
:103F5000A0917E0CB0917F0C8CA39DA3AEA3BFA3B8
:103F60008091800C9091810CA091820CB091830C77
:103F700088A799A7AAA7BBA7AE01485D5F4FBE015E
:103F80006C5D7F4FCE0180960E949BB36F96ECAC28
:103F9000FDAC0EAD1FAD6F9724E83CE0AE01485D6F
:103FA0005F4FBE016C5D7F4FCE0180960E9468A678
:103FB0000E94753C0E94693F0C94BB33EDE0F8E130
:103FC00084918F010F5F1F4F882321F00E94AE3F25
:103FD000F801F6CFE5E7F1E084918F010F5F1F4F05
:103FE000882311F40C94BB330E94AE3FF801F4CF48
:103FF00080E50E94DA3C882329F00E94343D6B0161
:104000007C0103C0C12CD12C760183E50E94DA3CEF
:10401000882321F00E94683D6B017C010E94A5501D
:104020000E94693F8091640C9091650CA091660C90
:10403000B091670CC80ED91EEA1EFB1E8091660166
:10404000811105C060E08BE891E00E94AECD0E9436
:10405000CF59DC01CB018C199D09AE09BF09B7FD11
:1040600002C00C94BB330E943078F1CF0E94A5505F
:1040700080E00E946F3A0E948E3F11E0109324016D
:1040800088E50E94DA3C982E89E50E94DA3C082FE8
:104090008AE50E94DA3C882E911004C0011104C008
:1040A000182705C0011102C010E001C0182F80E1DF
:1040B000E4E7FAE0A8E7BCE001900D928A95E1F709
:1040C000111105C0911003C0002309F4EDC020E0D8
:1040D00030E040E850E460912B0F70912C0F8091FC
:1040E0002D0F90912E0F0E94BDF06093800C709365
:1040F000810C8093820C9093830C20917C0A3091E8
:104100007D0A40917E0A50917F0A0E941DF3181685
:104110007CF419821A821B821C829E012F5F3F4F02
:1041200040E85CE068E77AE084E79AE00E94D73AEA
:1041300011110EC0911003C00111B0C0B5C0011122
:1041400007C080E090E00E9424761123A9F3A6C066
:104150001092780A1092790A10927A0A10927B0AC9
:104160001092740A1092750A1092760A1092770AC9
:104170000E94243EE1ECF6E1B49085EB96E10E94CA
:10418000093F2B013C0189EB96E10E94093F6B013D
:104190007C019B01AC01C301B2010E941DF3181602
:1041A0002CF4A3019201C701B60104C0A701960136
:1041B000C301B2010E94B7F19B01AC010E94F2EC75
:1041C00020E030E040E85FE30E94BDF00E946BF326
:1041D00020E030E048E452E40E94F2EC6BAF7CAFA8
:1041E0008DAF9EAFE2ECF6E1A49020E030E040EC31
:1041F0005FE3C701B6010E94F2EC6B017C016A2DFE
:10420000AA0C770B880B990B0E9493EC9B01AC01D5
:10421000C701B6010E94F2EC69837A838B839C8389
:1042200020E030E040EC5FE3C301B2010E94F2EC19
:104230006B017C016B2DBB0C770B880B990B0E94DB
:1042400093EC9B01AC01C701B6010E94F2EC68A39C
:1042500079A38AA39BA39E01255C3F4F4CE75AE0BC
:10426000BE016F5F7F4FCE0180960E94D73A1092B9
:10427000A40A1092780A1092790A10927A0A10927F
:104280007B0A1092740A1092750A1092760A1092A4
:10429000770A111156CF911054CF4ECF81E090E0A4
:1042A0000E942476111103C0882009F4D5C08091A2
:1042B000640A882321F08091650A81111EC060E0A4
:1042C00088EC91E00E94AECDE8E5F1E284918F01A7
:1042D0000F5F1F4F882321F00E94AE3FF801F6CFF9
:1042E000E7EBF1E084918F010F5F1F4F882309F402
:1042F000B3C00E94AE3FF801F5CF0E94243E40902B
:10430000230F5090240F6090250F7090260F20915E
:10431000270F3091280F4091290F50912A0F239693
:104320002CAF3DAF4EAF5FAF239780917C0A909149
:104330007D0AA0917E0AB0917F0A8093800C9093B1
:10434000810CA093820CB093830C20E030E040EE0F
:1043500052E4C301B2010E94BDF020E030E048EF1A
:1043600051E40E94BDF04B015C016093780C7093A6
:10437000790C80937A0C90937B0C20E030E046EE31
:1043800052E423966CAD7DAD8EAD9FAD23970E9418
:10439000BDF020E030E040EA51E40E94BCF06B0147
:1043A0007C0160937C0C70937D0C80937E0C9093C9
:1043B0007F0CA3019201C501B4010E94BCF04B0126
:1043C0005C0127E137EB41ED58EB0E941DF387FFBD
:1043D00002C00C94DF3327E030E041E653E4C5012E
:1043E000B4010E948CEC181614F40C94DF3323965D
:1043F0002CAD3DAD4EAD5FAD2397C701B6010E9418
:10440000BCF06B017C0127E137EB41ED58EB0E94DA
:104410001DF387FF02C00C94DF3327E030E046E64F
:1044200053E4C701B6010E948CEC181614F40C94E6
:10443000DF3319821A821B821C829E012F5F3F4F3D
:104440004CE75AE06CE77CE088E79CE00E94D73AB2
:1044500082E090E00E9424760E94243E8091210F09
:10446000809324010E94743F0E9428D60C94BB3391
:104470000E949F850C94BB3388E50E94DA3C882318
:1044800019F00E943F3D0EC020E030E048EF51E4BB
:104490006091740A7091750A8091760A9091770AFA
:1044A0000E94BCF04B015C0189E50E94DA3C882344
:1044B00019F00E943F3D0EC020E030E040EA51E498
:1044C0006091780A7091790A80917A0A90917B0ABA
:1044D0000E94BDF02B013C018091270F9091280F85
:1044E000A091290FB0912A0F23968CAF9DAFAEAF4C
:1044F000BFAF23972091230F3091240F4091250FB8
:104500005091260FC501B4010E94BCF06B017C01E3
:1045100020E030E0A9010E941DF387FF02C00C9447
:10452000BB3320E030E042E453E4C701B6010E940F
:104530008CEC181614F40C94BB3323962CAD3DADC3
:104540004EAD5FAD2397C301B2010E94BCF06B0179
:104550007C0120E030E040EA51E40E941DF387FF37
:1045600002C00C94BB3320E030E046E653E4C701C0
:10457000B6010E948CEC181614F40C94BB330C9406
:104580007133109266030C94BB3381E08093660311
:104590000C94BC3385E40E94DA3CB82E811102C031
:1045A0000E94A55067EC862E61E0962E74E7C72E18
:1045B0007AE0D72EECE6EE2EECE0FE2E00E010E0E6
:1045C000A12CD4018D914D010E94DA3C882309F47D
:1045D0004EC0F6012081318142815381C057DF4FA7
:1045E0002883C059D040CF56DF4F3883C159D040BF
:1045F000CE56DF4F4883C259D040CD56DF4F588347
:10460000C359D0400E943F3DD6016D937D938D9359
:104610009C931397C057DF4F2881C059D040CF5685
:10462000DF4F3881C159D040CE56DF4F4881C25943
:10463000D040CD56DF4F5881C359D04003301105CB
:10464000B1F00E94BCF09B01AC01F7016081718167
:10465000828193810E94BDF0D7016D937D938D93EC
:104660009C931397C8010E940F3FAA24A3940F5F45
:104670001F4FB4E0CB0ED11CE4E0EE0EF11C043071
:10468000110509F09ECFAA2019F00E94243E37C0E0
:10469000BB20A9F1C090800AD090810AE090820AE4
:1046A000F090830A209188123091891240918A12E9
:1046B00050918B12C701B6010E94F2EC0E942AF3BE
:1046C0006093B80F7093B90F8093BA0F9093BB0F9C
:1046D000C701B6010E9429F22FB7F8946093FA0936
:1046E0007093FB098093FC099093FD092FBF1092F2
:1046F000A80F1092A90F1092AA0F1092AB0F0E9450
:1047000028D60C94BB33F2E7EF16F10409F44EC639
:1047100008F0ECC03BE4E316F10409F47FC508F0AF
:104720006FC058E1E516F10409F4C8C2E8F592E15A
:10473000E916F10409F40BC6B0F4B2E0EB16F1048B
:1047400008F4F5C1E1E1EE16F10411F00C94BB336D
:1047500060E08EE192E00E94AECD5E985E98159882
:104760005E980C94BB33F5E1EF16F10409F49CC29A
:1047700048F434E1E316F10411F00C94BB33E6E3A2
:10478000F2E04FC246E1E416F10409F491C257E1A8
:10479000E516F10411F00C94BB3340E061E0C80170
:1047A0000E94DD7C0C94BB338CE1E816F10409F423
:1047B000DAC268F4AAE1EA16F10409F48AC208F040
:1047C00096C21092EC0F0E9440810C94BB33EFE133
:1047D000EE16F10409F436C438F42EE1E216F104C1
:1047E00009F4C8C20C94BB3330E2E316F10409F4B7
:1047F000D9C34AE2E416F10409F4CAC40C94BB33E9
:1048000058E6E516F10409F415C508F040C092E534
:10481000E916F10409F492C520F5BDE4EB16F104A4
:1048200009F404C508F4FEC4F1E5EF16F10411F033
:104830000C94BB330E94464C0E94A5500E94AC775A
:1048400010923C0C10923B0C68EE73E080E090E01C
:104850000E94B86060E08CE093E00E94AECD0C94C2
:10486000BB3324E5E216F10409F471C508F46AC506
:1048700045E5E416F10409F495C55CE5E516F10497
:1048800011F00C94BB330E94E7D60C94BB338DE639
:10489000E816F10409F416C5B0F4AAE6EA16F10424
:1048A00009F414C508F406C5EBE6EE16F10409F4A4
:1048B00033C5FCE6EF16F10411F00C94BB331092F3
:1048C000B0010C94BB332FE6E216F10409F4BAC42C
:1048D00008F4B4C440E7E416F10409F4B7C451E79E
:1048E000E516F10409F4B6C40C94BB338CE2E81667
:1048F00081E0F80611F40C94D22C08F084C0A8ECE6
:10490000EA16F10409F408C6D8F5E8E7EE16F10452
:1049100009F4F7C5A0F425E7E216F10409F44CC543
:1049200037E7E316F10409F44DC543E7E416F10453
:1049300011F00C94BB330E9418D60C94BB335CE886
:10494000E516F10409F4B2C460F499E7E916F1043C
:1049500011F00C94BB33109224011092210F0C948F
:10496000BB33A1E9EA16F10409F4D2C5BEEBEB169C
:10497000F10411F00C94BB330E949ED80C94BB330D
:10498000EEECEE16F10409F4DDC610F52BECE216A0
:10499000F10409F4DFC580F449ECE416F10411F0E8
:1049A0000C94BB3334E9E32E32E1F32E07EC11E033
:1049B00044E0D42ED00EB4C55CECE516F10409F445
:1049C000E8C58DECE816F10409F44FC60C94BB332E
:1049D0009CEDE916F10409F493C748F4B3EDEB1626
:1049E000F10411F00C94BB33E8E5F1E2F3C6EDED10
:1049F000EE16F10409F491C7F2EEEF16F10409F492
:104A0000A5C70C94BB3324EAE21621E0F20611F4A8
:104A10000C94EA3008F040C043E6E41641E0F406A6
:104A200011F40C942E3398F48EE2E81681E0F80627
:104A300011F40C94972D10F40C94F82CAFE2EA16B4
:104A4000A1E0FA0611F40C940E2E0C94BB33B1E9DC
:104A5000EB16B1E0FB0611F40C94E23058F4F0E9E7
:104A6000EF16F1E0FF0611F00C94BB330E94A55045
:104A70000C94BB3322E9E21621E0F20611F40C9407
:104A8000E6303AE9E31631E0F30611F00C94BB335B
:104A90000E949BD50C94BB3346EFE41641E0F4062C
:104AA00011F40C94E93218F58CEAE81681E0F80666
:104AB00011F40C94D53148F4A5EAEA16A1E0FA06FF
:104AC00011F40C9446310C94BB33B4EFEB16B1E007
:104AD000FB0611F40C94E632E5EFEE16E1E0FE067B
:104AE00011F00C94BB330E94689C0C94BB33F3E52B
:104AF000EF16F3E0FF0611F40C94F83248F437EFA8
:104B0000E31631E0F30611F40C94EC320C94BB3351
:104B100040EAE41643E0F40609F48AC257EEE516CB
:104B200053E0F50611F40C9447330C94BB3380E545
:104B30000E94DA3C882361F00E94343D6B017C01C5
:104B4000BB24B394672B682B692B31F4B12C04C0C0
:104B5000B12CC12CD12C760183E50E94DA3C88234C
:104B600099F00E94683D6B017C01B1100FC0672B6A
:104B7000682B692B59F4D8018C91882339F061E0B6
:104B8000C8010E94C3CD07C0BB20A9F360E08BE041
:104B900092E00E94AECD83E090E09093610C809310
:104BA000600C81E08093E1120E94A5500E94693F51
:104BB000C114D104E104F104E9F08091640C9091F6
:104BC000650CA091660CB091670CC80ED91EEA1E48
:104BD000FB1E0E94CF59DC01CB018C199D09AE0947
:104BE000BF09B7FF1AC08091E1128823B1F00E947B
:104BF0003078EFCF8091E112882319F00E9430784D
:104C0000F9CF8091EC0F60E0882319F08CEF91E0F0
:104C100002C08AEE91E00E94AECD1092E1120C9497
:104C2000BB3384918F010F5F1F4F882321F00E94B7
:104C3000AE3FF801F6CF109272121092711240E05E
:104C400050E0BA018DE190E10E947C6B8BE1EDE1D7
:104C5000F0E1DE01159601900D928A95E1F78091C1
:104C60001B1090911C109C838B838BE892E09A839D
:104C7000898340E050E0BE016F5F7F4F8EE393E099
:104C80000E9489BDCE0101960E94A477E7E2F2E07E
:104C900084918F010F5F1F4F882311F40C94BB3355
:104CA0000E94AE3FF801F4CF0E9412800C94BB33F7
:104CB0001092EC0F1092ED0F0C94BB338091ED0F1E
:104CC000882319F081E08093EC0F0E9400810C94FE
:104CD000BB338091ED0F882311F40C94BB3383E533
:104CE0000E94DA3C81110C9400340C94BB33809107
:104CF000ED0F882351F1E7E4F2E084918F010F5F1B
:104D00001F4F882321F00E94AE3FF801F6CF60913B
:104D100068127091691280916A1290916B124AE048
:104D20000E94B53F8FE20E94AE3F60916412709185
:104D3000651280916612909167124AE00E94B53F19
:104D40008AE00E94AE3F0C94BB33E9E5F2E0849127
:104D50008F010F5F1F4F882311F40C94BB330E9407
:104D6000AE3FF801F4CF40E060E0C8010E94DD7C76
:104D70000C94BB338091ED0F882311F40C94BB335A
:104D800087EB91E10E94396B87EB91E10E94D97129
:104D90001092EB0F1092EA0FE0906703F090680317
:104DA0008091ED0F882311F40C94BB330E9405BC55
:104DB0001D8218861C821B828BE892E09A8389836D
:104DC00089E190E19093391080933810F701808148
:104DD0008F3209F068C06FE270E0C7010E946FF483
:104DE0008C010F5F1F4F9E012F5F3F4F490101153F
:104DF000110509F45EC06FE270E0C8010E946FF413
:104E00006C01009709F456C00817190708F052C042
:104E10005C01A01AB10AA501B801CE0180960E94DA
:104E200098F4E0E2F0E0EC0FFD1FEA0DFB1D1082AC
:104E30008E01005E1F4FD8018D918D01882319F0DE
:104E40000E94AE3FF8CF8AE00E94AE3F60913810DA
:104E5000709139106115710511F06C5F7F4F21E081
:104E6000AE01405E5F4FCE0105960E94E271811156
:104E700012C0BE01605E7F4F80E992E00E945FA495
:104E80008EE20E94AE3F8AE00E94AE3FC4010E94C3
:104E9000A4770C94BB33909239108092381086011D
:104EA0000F5F1F4FA4CF8AE390E190933910809356
:104EB00038108701609138107091391061157105B3
:104EC00011F06C5F7F4F18A21BA222E0A801CE0157
:104ED00080960E94E271811102C0F12C1EC0CE01A9
:104EE00080960E9473BB8823C1F36CA57DA58EA517
:104EF0009FA541E00E948569882379F3E8A9B0E283
:104F0000EB9FF0011124E556F34F309731F385EE16
:104F100080831BA20E944569F82ECE0180960E94D4
:104F2000633FFF2009F1EAE6F2E084917F012FEF71
:104F3000E21AF20A882321F00E94AE3FF701F5CF72
:104F4000D8018D918D01882319F00E94AE3FF8CFD2
:104F50008AE00E94AE3F109268121092691210927D
:104F60006A1210926B1218C0E8E7F2E084917F0198
:104F7000BFEFEB1AFB0A882321F00E94AE3FF70136
:104F8000F5CFF80181918F01882319F00E94AE3F7F
:104F9000F8CF8EE20E94AE3FCE0101960E94A47728
:104FA0000C94BB338091EC0F81110E94A5500091AD
:104FB00067031091680361E270E0C8010E946FF41A
:104FC000009719F08C010F5F1F4F80E50E94DA3CBB
:104FD000882349F0FF24F39480915E0390915F034E
:104FE0008017910708F0F12C8091ED0F882311F4C0
:104FF0000C94BB334F2D61E0C8010E94DD7C83E53A
:105000000E94DA3C882349F080915E0390915F030F
:105010008017910710F40C9411348091ED0F8823C0
:1050200019F081E08093EC0FF1100C94BB334DCE5E
:1050300081E08093EB0F40E060E0C8010E94DD7CDE
:105040000C94BB330E9453BD5CE3C52ED12CE12CE4
:10505000F12CA70196010E9480F0762E672ECA01DE
:10506000B901A70196010E9480F06B017C01CA0181
:10507000B90128E130E040E050E00E9480F04B01AF
:105080005C01C9016DE671E00E94CFF38E010F5FF4
:105090001F4F6115710599F06F927F92DF92CF9249
:1050A0009F928F929F938F937F936F938CEC92E05C
:1050B0009F938F931F930F930E9423EC12C000972E
:1050C000B1F06F927F92DF92CF929F928F929F93D7
:1050D0008F938CEB92E09F938F931F930F930E947B
:1050E00023EC0FB6F894DEBF0FBECDBF36C08114DF
:1050F0009104A104B10479F06F927F92DF92CF9274
:105100009F928F9280EB92E09F938F931F930F93C8
:105110000E9423ECE6CFC114D104E104F10469F04C
:105120006F927F92DF92CF9288EA92E09F938F9363
:105130001F930F930E9423ECD4CF6F927F9284EA47
:1051400092E09F938F931F930F930E9423EC0F90F5
:105150000F900F900F900F900F9060E0C8010E9489
:10516000C3CDE8E5F1E284917F01BFEFEB1AFB0AC2
:10517000882321F00E94AE3FF701F5CFB80180EE01
:1051800092E00E945FA48AE00E94AE3F0C94BB3381
:1051900083E50E94DA3C882311F40C94BB330E940F
:1051A0001C3D7C018F3F910519F010F00C94BB332E
:1051B00080E50E94DA3C882311F40C94BB330E94F2
:1051C0001C3D8C0197FF02C00C94BB33EBECF1E06B
:1051D0009927219131912817390731F022E0EB31DD
:1051E000F207B9F70C942334EDE0F8E184918F01D4
:1051F0000F5F1F4F882321F00E94AE3FF801F6CFCA
:10520000EDEEF2E084918F010F5F1F4F882311F4C0
:105210000C94BB330E94AE3FF801F4CF0E94008192
:105220000C94BB330E9440810C94BB330E9410BC91
:105230000C94BB330E9449850C94BB330E948ED8DA
:105240000C94BB330E941CD80C94BB338CEF92E0BF
:105250000E94B67783E50E94DA3C882369F00E94B9
:10526000ED3C80933F018D3310F40C94BB338CE301
:1052700080933F010C94BB33E8E5F1E284918F0108
:105280000F5F1F4F882321F00E94AE3FF801F6CF39
:1052900040913F0150E060E070E085E093E00E94C3
:1052A000B0578AE00E94AE3F0C94BB330E940AD8EC
:1052B0000C94BB330E942C851092610C1092600CF0
:1052C0000C9417360E9466830C94BB3383E50E94CE
:1052D000DA3C882321F00E94EADC8C0102C00FEF47
:1052E00010E080E50E94DA3C882319F00E94EADC95
:1052F00002C080E090E098010F3F110519F010F016
:105300002FEF30E0892B11F00C94BB3330933C0C21
:1053100020933B0C0C94BB3380E50E94DA3C811156
:1053200006C010923C0C10923B0C0C94BB330E94B4
:10533000EADC892B11F00C94BB33F3CF1092650398
:105340000C94BB3381E0809365030C94BC3383E5FC
:105350000E94DA3C882361F00E94683D609340011E
:105360007093410180934201909343010C94BB33AD
:1053700088E50E94DA3C81110C94383489E50E945A
:10538000DA3C81110C9438348AE50E94DA3C8111B0
:105390000C94383485E40E94DA3C81110C94383442
:1053A0000C9454340E9485D70C94BB330E94A550B2
:1053B0000E9428D60C94BB3360E0C8010E94C3CD84
:1053C0000C94BB33E4E3F3E084918F010F5F1F4F34
:1053D000882321F00E94AE3FF801F6CFECE2F3E023
:1053E00084918F010F5F1F4F882321F00E94AE3FF1
:1053F000F801F6CF329B03C007EA12E002C00CEAC4
:1054000012E0D8018D918D01882319F00E94AE3FE2
:10541000F8CF8AE00E94AE3FE4E2F3E084918F018E
:105420000F5F1F4F882321F00E94AE3FF801F6CF97
:10543000339B03C007EA12E002C00CEA12E0F80155
:1054400081918F01882319F00E94AE3FF8CF8AE046
:105450000E94AE3FECE1F3E084918F010F5F1F4F9C
:10546000882321F00E94AE3FF801F6CF349B03C0A1
:1054700007EA12E002C00CEA12E0D8018D918D011A
:105480008823D1F10E94AE3FF8CF8AE50E94DA3C32
:10549000882311F40C9420330E943F3D6B017C0162
:1054A00020E030E040EA51EC0E941DF387FF02C08B
:1054B0000C94123320E030E040EA51E4C701B60119
:1054C0000E948CEC181614F40C941233C092B101A3
:1054D000D092B201E092B301F092B40180E00E9458
:1054E000E4D46091B1017091B2018091B3019091C7
:1054F000B40142E00E946A438AE00E94AE3F0C94ED
:10550000BB3381E0809324018093210F0C94BC3342
:105510000E9495D70C94BB330E94CBD50C94BB331F
:10552000F80181918F010E94DA3C882351F00E949A
:105530003F3D0E9430F2D7016D937D938D939C93F4
:105540001397B4E0EB0EF11CD012EACF0E94C8A46E
:105550000C94BB339CEAE92E92E1F92E07EC11E0A2
:1055600024E0D22ED00EF80181918F010E94DA3C06
:10557000882341F00E943F3DD7016D937D938D9329
:105580009C931397B4E0EB0EF11CD012ECCF0C946B
:10559000BB3383E50E94DA3C8823D9F00E943F3D6B
:1055A000AB01BC014093CC125093CD126093CE124C
:1055B0007093CF1240938C1250938D1260938E1281
:1055C00070938F1288EA93E00E94EA578AE00E9463
:1055D000AE3F80E50E94DA3C882399F00E943F3D6F
:1055E000AB01BC014093CC125093CD126093CE120C
:1055F0007093CF128BE893E00E94EA578AE00E94F2
:10560000AE3F82E50E94DA3C882399F00E943F3D3C
:10561000AB01BC014093901250939112609392128F
:10562000709393128CE693E00E94EA578AE00E94FE
:10563000AE3F84E50E94DA3C882311F40C94BB331E
:105640000E943F3DAB01BC0140938C1250938D12E0
:1056500060938E1270938F128EE493E00E94EA574B
:105660008AE00E94AE3F0C94BB3383E50E94DA3C93
:10567000882351F00E943F3D6093A8127093A912B5
:105680008093AA129093AB1284E50E94DA3C88239F
:1056900051F00E943F3D6093A4127093A512809335
:1056A000A6129093A71282E40E94DA3C882351F05C
:1056B0000E94343D6093340F7093350F8093360F02
:1056C0009093370F88E50E94DA3C882351F00E94BE
:1056D0003F3D6093BC127093BD128093BE129093B5
:1056E000BF1289E50E94DA3C882351F00E943F3DB9
:1056F0006093C0127093C1128093C2129093C31230
:105700008AE50E94DA3C882351F00E943F3D609375
:10571000C4127093C5128093C6129093C71285E489
:105720000E94DA3C882311F40C94BB330E943F3D65
:105730006093C8127093C9128093CA129093CB12CF
:105740000C94BB3317ECA12E11E0B12E04E7C02E50
:105750000AE0D02E88E6E82E8AE0F82E00E010E07D
:10576000F50181915F010E94DA3C882311F10E94CA
:105770003F3D2B013C01D7012D913D914D915C9115
:105780000E94BCF09B01AC01F601608171818281B5
:1057900093810E94BDF0D6016D937D938D939C9370
:1057A0001397F7014082518262827382C8010E947E
:1057B0000F3F0F5F1F4FF4E0CF0ED11C24E0E20E2D
:1057C000F11C0330110561F60E94243E0E9428D688
:1057D0000C94BB3384918F010F5F1F4F882321F0FE
:1057E0000E94AE3FF801F6CF83E50E94DA3C8823A1
:1057F00021F00E94993D80935501E8EFF3E08491F8
:105800008F010F5F1F4F882321F00E94AE3FF801E8
:10581000F6CF80915501811103C0E4EFF3E002C09F
:10582000E0EFF3E084918F010F5F1F4F882321F099
:105830000E94AE3FF801F6CFE8EEF3E084918F01CD
:105840000F5F1F4F882321F00E94AE3FF801F6CF73
:105850004091AB0E5091AC0E6091AD0E7091AE0EBA
:1058600086EE93E00E94EA574091AF0E5091B00E41
:105870006091B10E7091B20E83EE93E00E94EA57F0
:105880004091B30E5091B40E6091B50E7091B60E6A
:1058900080EE93E00E94EA57E8EDF3E084918F01F7
:1058A0000F5F1F4F882321F00E94AE3FF801F6CF13
:1058B0004091490150914A0160914B0170914C0116
:1058C00086ED93E00E94EA5740914D0150914E01C0
:1058D00060914F017091500183ED93E00E94EA576F
:1058E00040915101509152016091530170915401C6
:1058F00080ED93E00E94EA578AE00E94AE3F3BC7EA
:1059000083E50E94DA3C882309F435C70E941C3DD8
:105910009093B8018093B7012EC78DED90E00E945F
:105920003940811128C783E50E94DA3C882309F4B5
:1059300022C70091600310E00E941C3D000F111F60
:10594000F801EB54FE4F9183808315C780E50E94D8
:10595000DA3C882309F40FC70E941C3D8C0183E5C3
:105960000E94DA3C882321F00E941C3D7C0103C088
:10597000EE24EA94FE2CC7010196039708F0FBC6BB
:1059800017FDF9C6EBECF1E0C8019927219131919F
:105990002817390709F4EFC632E0EB31F307B1F706
:1059A0000C94EF3583E50E94DA3C882319F00E94BD
:1059B000EADC02C084E091E099A388A380E50E941C
:1059C000DA3C882349F00E94EADC893843E19407F5
:1059D00028F088E893E102C088EE93E09A838983F7
:1059E000BE01605E7F4FCE0101960E94B180C3C6AA
:1059F00085E40E94DA3C811110C080E50E94DA3C07
:105A0000882399F00E943F3D6093270170932801FD
:105A10008093290190932A0108C00E941C3D18160A
:105A200019065CF7EDE0F8E171C089E40E94DA3C08
:105A3000882381F00E943F3D2CEA35EC47E25EE38B
:105A40000E94F2EC60932F0170933001809331013A
:105A50009093320184E40E94DA3C882381F00E9412
:105A60003F3D2CEA35EC47E25EE30E94B7F16093DC
:105A70002B0170932C0180932D0190932E01E8E56A
:105A8000F1E284918F010F5F1F4F882321F00E9464
:105A9000AE3FF801F6CF4091270150912801609167
:105AA000290170912A0180E194E00E94EA572CEAD2
:105AB00035EC47E25EE360912F01709130018091F7
:105AC0003101909132010E94B7F1AB01BC018CE031
:105AD00094E00E94CD572CEA35EC47E25EE36091FA
